:020000040000FA
:1000000000980000A5040000AD040000C504000035
:1000100000000000000000000000000000000000E0
:10002000000000000000000000000000DD040000EF
:100030000000000000000000F5040000F7040000CC
:10004000771F00005F2000000D3103004D200000ED
:10005000D91F00008D310300712000007F200000B7
:10006000F9040000351A0000BF200000AD31030084
:1000700057810200F9040000F9040000F9040000AF
:10008000F9040000F9040000F9040000F90400007C
:10009000F9040000F9040000F9040000F90400006C
:020000040000FA
:1001600032000000190600007F1C0000432300003D
:10017000000000000000000063800200BD8002005B
:10018000250A0000FB80020019810200358102006F
:100190005D810200311E0000BF0A0000110A00004C
:1001A0001B0A000000000000000000003F000000EB
:1001B000F48B00000004000030100800480100002B
:1001C000240C080000040000841108002005000031
:1001D000000000002000000048000000580000005F
:1001E0006800000004010000160100002801000062
:1001F0002E010000202A00008E2E000001000000C9
:1002000088130000091D0000E9600200FD93020050
:100210002311000019280300A574020061050000E5
:1002200003000000D52002006D2300000400000040
:10023000D74902000F490200930B000063910200AE
:10024000B7910200BF910200078202007182020092
:10025000506D0000AD8302009384020041850200CE
:1002600015860200378602005F860200758602004E
:10027000F9870200258902005D8A0200D38C020002
:10028000098D02000F900200438D0200278E0200AC
:10029000F98E0200478F020087090000D58F020007
:1002A00049510200775102002F5202001000000055
:1002B00020030000803E000000000000000000005D
:020000040000FA
:1002C000504600030003983A6400F401B80B000C98
:1002D000B80B120030003000CD009A01120024004B
:1002E00030006400B0001800280012001200D0078F
:1002F0000000FFFF00000000000000000000000000
:100300001F00000244413134353833000000000042
:1003100000000000000000000000000000000000DD
:0403200000000000D9
:020000040000FA
:10034000FFFF010000C201000000000000000000EB
:100350000000F40101000104070A0302A72E0000B7
:10036000000000000000000000000000000000008D
:100370000000000000000000000006FFD200B1B243
:10038000B3000000000000000000000000000000BA
:1003900000000000000000000000496F542D444B95
:1003A0002D53464C0000000000000000000000003B
:1003B000000000000000000000000000000000003D
:1003C000000000000000000000000000000000002D
:1003D0000000000000000000481900CAEA80D007B1
:0403E000064064323D
:020000040000FA
:100440000348854605F0CCFC00480047C720020061
:10045000009800000F4906200880FF200E49013057
:1004600008600E4988683E2290432E308860002242
:10047000052000070280018A0F231B021943018215
:1004800001210748C90404C1401E0028FBDA62B6F6
:10049000704700000034005080E100E0003300505D
:1004A000FF0B00001548804715480047042071469F
:1004B000084203D0EFF3098012490847EFF30880A0
:1004C0001049084704207146084203D0EFF3098021
:1004D0000D490847EFF308800B490847042071468F
:1004E000084203D0EFF3098008490847EFF308807A
:1004F00006490847FEE7FEE7FEE700005504000056
:100500004104000029050000110500009D0C0000B9
:100510000349C8200880034908204880FEE70000FE
:10052000003100500033005005200007018A0422EA
:1005300011430182018A0222114301820189402272
:1005400011430181054A01211160418A0122890874
:100550008900D203114341827047000080E200E02D
:1005600070B516460C460546012802D00C2D26D142
:100570000DE006222149224833F0FDFA00281ED062
:1005800006221F49304633F0CBFA062012E01D4DFB
:1005900029680878C00610D52078202803D20020CA
:1005A0002070042070BD0A7E30463A3133F0B8FA2C
:1005B0002868007E2070002070BD012070BD32468A
:1005C0002146284632F007FA70BD70B50E480F4933
:1005D000C405228880252A4322800D4A53891B079F
:1005E00001D4401EFAD20B4A0120106006220448B2
:1005F00033F096FA2088A843208070BD383E03006F
:10060000B0160800C0060800A0860100D47F0400D0
:10061000200000500080004008B500F05DFA05257C
:1006200000242D07C826654F09E004216846009480
:1006300026F07BF9002817D000F0B3F914E02889E0
:10064000000611D501208007006B00040CD432F0A5
:10065000B7FBC00708D1042031F056FD009032F0FE
:10066000B3FB00980028E0D172B601F077FD0428B2
:1006700006D002280BD0032809D0012810D010E0A2
:100680004F480078012801D0032000E0022000F04C
:100690000BF830BF4B490A69042082430A6100E02D
:1006A00030BF62B63E80CAE7F8B504466846052505
:1006B00004702D07288A0421084328824248434FAA
:1006C000C0690126012811D9032C18D132F08DFD03
:1006D000002814D032F0B2FD002810D0032031F0F1
:1006E0007AFD00280BD00220387009E0032C06D1D7
:1006F000032031F070FD002801D03E7000E002249C
:1007000068460470204600F023F800203049022C8F
:10071000087001D0032C1AD12E494A88FF230133D7
:100720009A434A806A882C4B1A804A8832434A800E
:1007300000900099491C00911429FADB6989890805
:100740008900491C698169894906FCD56880F8BD22
:1007500010B5022801D0032828D11A490B690422B8
:1007600013430B61052109074B8A2024A3434B82C5
:100770000B8A022423430B8210230228488A16D0B6
:10078000904348827F220888920180242043088079
:100790000020401CC0B20A28FBD3488A1843488274
:1007A0000E48521E42610888A043088010BD1043C5
:1007B0004882488A9843488210BD000000310050AA
:1007C0005402080000ED00E0E0010000C40608004B
:1007D000F816080020000050FA16080000800040BB
:1007E0007047000030480178002902D08021417014
:1007F00070472E49002008702D49C87070472A485C
:100800000178002902D081214170704727490120D9
:1008100008702749C870704723480178002902D022
:10082000822141707047214902200870204901202F
:10083000C8707047002804D0012803D0022802D1D4
:10084000EAE7CFE7DBE7704718490020097800297D
:1008500004D0012903D0022900D1022070470120D1
:10086000704711490120C87070470F490020C870B7
:1008700070470D48C07870470020EFF310810122C7
:1008800082F31088052212071289120605D409483E
:10089000028901231A4302811846002900D0012150
:1008A00081F3108870470000B71608005402080052
:1008B000C60608000033005070B505200007018906
:1008C00030229143018101898022114301810189F4
:1008D00089088900491C0181018908231943018184
:1008E000B1490C8814430C80448A9C434482058996
:1008F000402425430581058A0426B5430582858A5F
:10090000AD07FCD5A94E002575600E8801252E4344
:100910000E804D89AE05A64D0E8801D52E4300E010
:10092000AE430E800D887826B54328350D800D889E
:10093000062635430D80458A1D4345820B88934327
:100940000B800289A24302814889800503D596491C
:10095000052060318880012080070168821591435D
:100960000160944801683F22520291434214891861
:100970000160016802031143016070BD10B58E482B
:1009800032F0D5FA10BD70B5874C6088C006050FEF
:1009900028F002FB61881E2291436A0011436180A6
:1009A00070BD70B585490120C863C86B0028FCD1B3
:1009B00001208007C169824800220368994200D261
:1009C00002607A4C012663787E4D002B04D0627061
:1009D000016028F0DEFA11E0026819238A1ADB01AF
:1009E0009A4214D3016028F0D4FA2988884201D9A8
:1009F000411A00E0091A89B2182908D32880012079
:100A000028F064F928F09CFA002800D1667070BDC7
:100A100008B525F008FF009008BD08B525F00CFFCB
:100A2000009008BD08B5684901204A695206D20FF6
:100A300013D04A699206D20F0FD000220A610092A9
:100A4000FF225F32009B5B1C00939342FAD34969FB
:100A5000C907C90F02D027F02EFB002008BD70B5D2
:100A60005A4900200A78002A0DD0544A0120D06348
:100A7000D06B0028FCD101208007C069544A12685D
:100A8000904201D2012070BD00200870FFF7DCFE0B
:100A90000824504D022803D0FFF7D6FE012809D1C3
:100AA0002C8005200007818A8906FCD4418A802297
:100AB000914341826C80002070BD0020704710B5CA
:100AC000454900200860FFF759FF01208007016BAE
:100AD00049004908016310BDF8B501203B493F4C6E
:100AE0000870C8252580002666803A480827478078
:100AF00021F030F800F0A6FD0D207901800132F0E0
:100B000066F8FFF762FD02F09AF9012032F0FFFF6C
:100B100001F018F8FFF7D0FE042000F03EF807209F
:100B200000F03BF80A2000F038F8062000F035F815
:100B30000B2000F032F8012000F02FF8022000F026
:100B40002CF8002000F029F82548006832F0BDF8A4
:100B500000F087F800F043FDA005016882151143FD
:100B60000160FFF73FFE01F0ACFE03F036FDFFF73A
:100B7000A6FF05200007C6820B494888E022904363
:100B8000A0304880012028F03FFA25801148478096
:100B9000F8BD10B521F0F5F810BDC106C90E012051
:100BA000884010490860704720000050BC160800BB
:100BB0000010000000020040E2040000C0000040FD
:100BC0007C0408007804080000100050B6160800E5
:100BD0007C7E0000003300508C0308000031005080
:100BE0000490002080E200E0FFB581B01F460E4671
:100BF0004D780C78002031F05CFD042824D00028CA
:100C00001DD121E04148816E2E206043091888885B
:100C10000207120F130033F0F1F8070505050F0561
:100C20000F050F008204920E062A05D27278012A5F
:100C300012D0072210438880641C6407640F284682
:100C40006D1EEDB20028DDD13B463146039A019876
:100C500027F062F805B0F0BD204621F0D3FA00205D
:100C6000F8E770B52A480378021D0021294D07E0F6
:100C7000CC00165D002E01D12418A560491CC9B214
:100C80009942F5D370BD028908892349101A80B2B0
:100C9000884201D9012070470020704781692039BE
:100CA000897F082905D21B4A890010325158816179
:100CB0007047FEE71A48194901611A4941611A490A
:100CC00081611A49C1611A4901621A4941621A498E
:100CD00081621A49C1621A4901631A4941631A497A
:100CE00081631A49C1630E4819494030816019492E
:100CF000C16001201849C00608601849CA6912027B
:100D0000120ACA611449803908607047D802080085
:100D100004060800A06E0000307500009427030050
:100D20000084004062B600DF28A30200704701DFA4
:100D30001CCA0200F8BD02DF40CB0200F5E703DF6A
:100D400084D4020004DF89B0941B030005DF00B5E2
:100D5000EC0C030070BD07DF80E100E000ED00E077
:100D600070B516460D46104631F0A3FC002869D038
:100D7000340A304631F09DFC012812D0A87A1E2892
:100D800011D029460A310E2845D019DC801E0300F7
:100D900033F034F80B255829582D58315839583D1F
:100DA0005800022070BD3146274831F07BFD0021FC
:100DB00020462AF00FF90221304631F039FC41E09B
:100DC00018283CD006DC102819D012282BD0162861
:100DD00038D130E0522822D0D22833D127E0204623
:100DE00029F0DEFB2EE0204629F0FBFB2AE020461E
:100DF00029F049FD26E0204629F0D5FD22E02046D5
:100E000029F047FE1EE0204629F0C4FE1AE02046E5
:100E100029F0F2FE16E0204629F026FF12E02046D7
:100E200029F079FF0EE0204629F0A5FF0AE02046D0
:100E300029F0DEFF06E020462AF024F802E02046F2
:100E40002AF066F8002070BD01280000F8B50D46B4
:100E5000064681002B48EA884458521C20686B895A
:100E6000018F294F51430091014640314A89C98978
:100E7000511A8AB2991A89B2B94214D29A4212D03E
:100E8000294624F0D6F82D892049009832F00BFE2F
:100E90002818801C4034E0823002401C80B20421BB
:100EA00031F0C6FBF8BD2821304623F0D3FCF8BD55
:100EB000F8B50546870013480C46C059C988006834
:100EC000114E024640325389D2899A1A92B28B1A35
:100ED0009BB2B34211D20B4E8A420ED024F09FF83F
:100EE000F05905225F30611C32F01AFE2802401CC6
:100EF00080B2052131F09CFBF8BD2821284623F063
:100F0000A9FCF8BD4C030800FF7F0000102700007B
:100F100070B50446007800250D2801D00A2200E0B3
:100F200002225A494B7A002B06D00D2804D0637C4C
:100F3000032B01D0432551E0097A8A4339D10D288A
:100F400009D00E2802D00F2803D134E0607C03289A
:100F500004D3402542E0607C0328FAD8A07C042812
:100F6000F7D20A2908D0607C012822D0022820D09C
:100F70006078032809D811E02FF081FE012806D1FE
:100F80006078032803D0002801D0492526E02FF0FF
:100F900076FE002802D160780228F6D83020035D62
:100FA00022462046E17C3132143000F019F8054623
:100FB00014E0422512E02FF062FE012807D160788C
:100FC000052804D1A01D2FF070FE0028DDD02FF0E1
:100FD00056FE002802D160780228D6D8284670BD77
:100FE000FFB5002086B001216A46117004460591C4
:100FF0000021002C06D0089D099A1F239A4234D95B
:10100000402032E01C23069D079AF7E76B185E78B4
:10101000330032F0F3FE1D261010101010101010C7
:1010200010262626262626262626262626261010A2
:10103000101010102600059B03E06F46FF5CB742BE
:1010400004D05B1E5BB2002BF7DA03E0002B01DB60
:101050004A2006E0059B6F46FE54059B5B1CDBB2F5
:1010600005936B5C491C5918C9B2914201D2002802
:10107000CCD0914202D04A200AB0F0BD641CE4B248
:10108000022CF9D20028B3D0F6E70000980508003A
:1010900070B5EFF31085012080F31088264821F009
:1010A0000EF90446002D1DD0012080F31088002C7D
:1010B00023D020462038C08B204988421DD1618929
:1010C000208931F012FB05000ED021461031A38992
:1010D00062892089A847002806D001280DD002285F
:1010E0000BD105E00020E0E7204631F0A3F904E051
:1010F000114821460C3021F09AF8EFF310840120BA
:1011000080F310880C480068002802D1012030F0DC
:10111000E5FF002C03D0012080F3108870BD002073
:10112000FAE710B5BC21064832F013FD054901204D
:1011300030F0B4FF10BD0000A8050800388300009F
:10114000040608009110000000B502790021130088
:1011500032F054FE0C34070735352035353535353A
:1011600027344279042A27D8C279530707D0520777
:10117000520F012A03D0042A01D0052A1CD18279FA
:10118000002A01D0012A17D1007AC01F0A2816D3DD
:10119000062114E04279521E0A2A10D30822427115
:1011A0000DE0407942070AD04007400F012806D0E1
:1011B000042804D0052802D00A2100E007210846AF
:1011C00000BDF3B581B001980C460102CA1D02238F
:1011D00032480E3131F0ECF80470019905460227CF
:1011E0002F488E00002C06D0042C16D0062C10D0D0
:1011F000072C3FD108E0815905224968897C1140BC
:1012000069708059C77335E008462DF09DF9687004
:1012100030E080590F21C1732CE0044680594068AA
:10122000417C012902D1007E01280FD001982DF0C8
:10123000E3F801210028A0590BD04268D07D002896
:101240001CD001281AD004280DD00FE000206870AF
:101250000DE04068C27D022A01D0042A06D1007C3C
:1012600002280BD102E0107C022807D06F70A15930
:101270000320C873284631F0B3F8FEBD6970F6E765
:1012800001460A780120042A01D9002070474978D4
:101290000029FBD00129F8D170470000021C000092
:1012A00028050800FFB589B00D4600206946059065
:1012B00008720B98000A00902DF09EF807460B98D4
:1012C00031F0F7F900287DD00B982978000A8400C6
:1012D000784E012963D0042904D0062948D0072973
:1012E00068D125E03059C17B032901D0042961D19F
:1012F000697800291AD040681022A91C32F010FC2D
:10130000002F06D03159C87B032807D0042808D005
:1013100050E03059C07B032803D04BE00B20C8734A
:1013200048E0052100982BF010FD43E00120B6E0D5
:101330003059C07B0E283DD100982DF005F90021D1
:1013400003E02A18401C9170C0B21028F9D3688AB3
:1013500069460883294606A808221431023032F073
:10136000DFFB06ABAA1C394600982BF015FF21E0E5
:101370003059C07B0F281DD1AA1C0A2100982BF0E0
:1013800094FE002F04D0394600982BF06DFE11E03A
:1013900000231A46394600982BF0EDFD0AE0012F94
:1013A00008D10B9831F085F901281CD0002801D014
:1013B000022005906846007A002811D002AA052173
:1013C000009800E00CE02BF070FE6846027A602086
:1013D0000243684602720123394600982BF0CBFD88
:1013E00005980DB0F0BD3059C07B0228E2D1687875
:1013F000002851D002210B9831F01AF930590722F8
:101400004068A91C173032F08BFBE878002804D123
:1014100030594068407C01283AD000982BF0F0FB0E
:10142000002837D0297A00982BF0FEFB002833D013
:1014300000982BF0EFFE012100982BF027FF0028E9
:101440002CD030594068417E00292BD0042929D066
:10145000C17E027D1140C17630594068017F427DD6
:10146000114001776846007A0028A7D1305902213F
:101470004268009817322BF018FE3059416840310D
:10148000897B002913D004210098FFF79AFE91E789
:10149000022004E0062002E0082000E00320694664
:1014A00008728BE70021C17630594068D9E70B21DB
:1014B000C1737FE72805080010B50C4622F0FCF93F
:1014C00021888A004F4989580968002902D04E4B6B
:1014D000C968995010BDF8B50E461046150A31F08E
:1014E000E8F8AC00474F002817D0142815D015286D
:1014F00009D038596030C07BC00606D53D2128464A
:1015000023F0A8F909E0022008E026F056FD0128A2
:1015100003D131462846FFF799FC00203959096864
:10152000002902D0384AC9681151F8BDFFB50F46ED
:101530001546110A334A8800125881B012681E46B7
:10154000002A01D0D46803E02F4A00231458135016
:10155000002C18D0201F42882C4B9A4213D10088AF
:10156000602810D12046403002898A420BD1808801
:10157000002808D0A068002802D0204624F07BF97B
:10158000204630F0A8FE33462A463946019822F01C
:101590004DFE05B0F0BD70B510460D46140A31F091
:1015A00088F8002819D0142817D015280BD0154911
:1015B000A00008586030C07BC00606D53D212046FB
:1015C00023F048F909E0022070BD26F0F6FC01285E
:1015D00003D129462046FFF76BFC002070BD70B593
:1015E0000B480378021D00210A4D07E0CC00165D70
:1015F000012E01D12418A560491CC9B29942F5D326
:1016000070BD00004C030800D016080038830000AD
:1016100004060800C8700000052000070188302279
:101620001143018001880322114301807047052086
:1016300000070188302291430180018889088900D0
:1016400001807047704710B5032800D10420174C63
:1016500040010019490008181A43C28010BD032830
:1016600000D10420114A4001801801228A40828062
:101670007047032800D104200C4A40018018012241
:101680008A404280704770B5064604981446002888
:101690000D46304602D0FFF7ECFF01E0FFF7DFFF19
:1016A000224629463046FFF7CEFF70BD003000507D
:1016B00008430121890303460B432E490B802E4B1F
:1016C00018430880092002434A80704729490A8844
:1016D0000F239B0100079A43800D02430A80704745
:1016E00024482649028802231A430280491E02D355
:1016F00002889207FAD400210181408970470AE0EC
:1017000000BF00BF00BF00BF00BF00BF00BF00BFE1
:1017100000BF00BF00BF401EF2D2704770B502226A
:10172000510204464E003046FFF7C2FF1420FFF777
:10173000E6FF002C01D0092000E00720FFF7C6FFDC
:10174000FFF7CEFF05460120FFF7D9FF0222002157
:101750003046FFF7ADFF002C01D0092000E0072044
:10176000FFF7B4FFFFF7BCFF4019024A00211180C8
:1017700070BD00000015005001400000A08601006F
:10178000784AD1609060704710B5012000F0FCF8F5
:101790000520000200F020F9C0B210BD70B5002491
:1017A000714DFFF7F1FFC00704D0641CAC42F8D3C1
:1017B0000020C04370BD70B5FFF7F0FF002815D1C1
:1017C00000F0E2F8684E0025062000F005F900243C
:1017D000FFF7DAFFC10703D1800701D5002070BDF4
:1017E000641CB442F4D36D1C322DEDD30020C043F1
:1017F00070BD70B506465B480D4680685119814240
:1018000001D9441B00E01446FFF7C8FF00281AD195
:10181000022000F0B9F800F0A9F8032128460906D3
:10182000084300F0C2F8002000F0AEF8002505E003
:10183000002000F0BAF830706D1C761CA542F7D37A
:1018400000F09BF8204670BD70B5054645480E4631
:10185000C0681446824200D984B2FFF79FFF002877
:101860001ED1FFF7A8FF00281AD1022000F08CF843
:1018700000F07CF8012130464906084300F095F855
:10188000002000F081F805E028786D1C00F08DF84C
:10189000641EA4B2002CF7D100F06FF8FFF77EFFB2
:1018A00070BD70B50D460446FFF785FF002802D0D5
:1018B0000020C04370BD022000F066F828062043D7
:1018C00000F08AF8FFF76AFF70BDF7B582B0254FC8
:1018D0000E460091F96814460D46304632F0E3F8A2
:1018E000401C6843451E002000F04EF8B868801B7D
:1018F000A04200D204462646002719E0009880192D
:10190000A84202D900982E1A761C0298B2B2C019C9
:101910000099FFF799FF002803D00020C04305B0CD
:10192000F0BD681C00900F48BF19C0682D18E61B59
:10193000A742E3D33846F2E710B5FFF72FFF0028A0
:1019400005D100F021F8B92000F046F8002010BDC4
:1019500010B5002000F018F8AB2000F03DF8002092
:1019600010BD000020900000400D030010B520487D
:1019700041780078FFF773FE10BD10B51C48417820
:101980000078FFF776FE10BD1A490A885208520007
:101990000A800A88FF2381339A43C00102430A80E8
:1019A0000888012210430880704710B511490023B0
:1019B0000A88D205920F012A01D9040C8C80488034
:1019C00008888004FCD50120C880012A01D98888B4
:1019D00003044888C01810BD10B50446FFF7C6FFC1
:1019E0002046FFF7E2FF0446FFF7C7FF204610BD81
:1019F00068070800001200508307FF22DB0E9A40A0
:101A00008907090E994000280BDA0007000F0838F3
:101A1000830845489B001818C36993430B43C3616F
:101A20007047830841489B001B181868904308437F
:101A30001860704710B5FFF7FAFD0521090788887F
:101A40003B4AC30B104618D03A4B1C88640714D588
:101A50001178890710D51988022211431980198835
:101A60004908490019804468002C05D0985E04217B
:101A7000595E0A229A5EA04710BD8988C906FBD527
:101A80001178C907F8D02C4901228A800A8880235E
:101A90009A430A8080680028EED0804710BDF8B5D0
:101AA000234C638005242407A58810263543A58090
:101AB000214C00252581D2B262802A46D7000546F6
:101AC000FD40EEB255002D196E810E46FE40F6B275
:101AD0006E82521C042AF1DBE58903221202000403
:101AE000800F954300020543E581E08A0904890FD0
:101AF000904309020843E0820125A5800F486E0249
:101B000006609806800E8030208029460920FFF765
:101B100073FF074801782943017009480660F8BD42
:101B2000034988607047000000ED00E000E400E039
:101B3000E8160800000200500001005080E200E0BA
:101B400000E100E030B58E498E48CA051488802334
:101B50001C4314808C4C65892D0701D4491EFAD290
:101B60008A4C012121608A4C018821808949408862
:101B7000088010889843108030BD0020704770475F
:101B8000704770470020704701218907086B0722C2
:101B9000104308637047704730B580497E4808603D
:101BA0007F494C2008807E4C7E4B203C23827F491D
:101BB0007D4848807F487E4901807D4919314180B8
:101BC000222141818121890001827B4941827B4917
:101BD0000183794911314183764A794920329180D4
:101BE0004122784912018A80774ACA80764D1035A1
:101BF000CD810A824A82921C8A826A1FCA82FF228F
:101C000046320A83714A4A83714A592111807049C8
:101C1000704D20310D8043254D806F4D5582D5226A
:101C20008A80FF22D3320A816C4A4A816C4A8A81B7
:101C30006D4A6C4911805A496C4A60394A80CA8899
:101C400010252A43CA80634A0A3A0A81544D684AD9
:101C5000403D6A80638208224A814E495C4A098875
:101C6000403A11824A49634A0988118062490978D9
:101C7000002901D03021018330BD4008704700B5F4
:101C80008BB05E4A42625E4A82625E4A42615E4A4E
:101C9000C2625E4A02605E4A02625E4A42605E4A18
:101CA000C2613E4A3C48002110603C484038026B0B
:101CB00003129A430263426B1F231B049A430323BC
:101CC0001B04D218426355480268C3129A4302604B
:101CD000026803139A43026068464154491CC9B222
:101CE0002829FAD3014628224D4831F019FFFFF781
:101CF00053FF27F04EF94B490880002026F0E6FFFD
:101D000027F01EF90BB000BD10B5244A0F21224860
:101D10000902106021484038426B1F231B049A437C
:101D200003231B04D218426300060268D208D200C3
:101D3000026005200007028992089200521C02816D
:101D4000028908231A430281028A0A4302820E484A
:101D50004189890504D501887822914308310180A1
:101D6000FFF71AFF3048006F0078002804D02F4892
:101D700000880B496039C880012027F045F910BD63
:101D8000A0860100087F0400200000500080004071
:101D9000560208004A0308004C0554078000004022
:101DA000602C00507F7F0000AC2900000022005012
:101DB00009090000002400502204000030D0000077
:101DC000EE110000002500502E020000442000000B
:101DD000402800500D95000002420000E4DC0000A5
:101DE0001092000053780000002A00508B10000071
:101DF0009DD5000000260050F41608007B1B000053
:101E00007F1B0000851B0000891B0000811B000058
:101E1000971B0000831B00007B1C00000002004099
:101E20002000080078040800E001000052040800C7
:101E300010B50124A407A06BFEF7EFFDB84931F0FF
:101E400032FE27221201511A00D10121B54A5060F9
:101E50001160206B082188430843206310BDF0B552
:101E600087B000246A461472AF490A68002A5DD020
:101E7000114640318B7C002B58D0AC4B012813D03D
:101E8000108D1A460007803A0125126FC00EED042E
:101E90004019105A6A46800B10711079002845D0FD
:101EA0001079012802D00DE0D86C09E008894E2590
:101EB00068439F4D1A684019105ACA7C000A801A5C
:101EC0006A461072107A002829D09A4A9948603AD6
:101ED000007B956E05E02E224243AC18401C400763
:101EE000400F6F463A7A561E3E72F4D2A2785406DC
:101EF000640E3C713A79D406E40E3C769A692E233E
:101F000058438B4B463BC018105A3A46C006C00F88
:101F100038713879002802D1107E002806D0087D5B
:101F2000002803D1C87D08221043C87507B0F0BD52
:101F300010B5052000074189890708D04189890823
:101F4000890041817C494A88520852004A800189AF
:101F5000802211430181018A042291430182818AF6
:101F60008907FCD530F07EFE0120800701690169F8
:101F70004907FCD510BDF8B5704EF08800282AD16D
:101F800001200527F0803F077889800720D0B88A94
:101F9000400701D500F053FF674D28888021084392
:101FA0002880674CFF20608004202080FFF734FBEE
:101FB0007D21C900E088A288000480188842F9D9F0
:101FC00005202080B088788029888020814329805E
:101FD0005C4910200860F8BD70B5FFF728FBFFF7DB
:101FE000A7FF0026554C0520E6800007418A802285
:101FF0009143418254480189490849000181D00533
:10200000816904221143816130F067FF4D4910203E
:102010008031012508601FF084FE30F052FE4648F2
:1020200026704089800510D5607800280DD147487A
:1020300065700088C00708D10120FFF76FFB8B2176
:102040008900884201D90220607070BD10B531F05E
:1020500061F800F05DF839490120087010BD10B535
:1020600001208007008A000601D500F051F810BD5C
:1020700010B50120FFF7F3FE24F0DFFA10BD10B514
:102080000124A407208A000718D50220FFF7E7FEE5
:1020900024F0CBFA2068400040086100084320602B
:1020A0002068C00FFCD11F48803001680906090E66
:1020B00001D00121016021490420087010BD70B5D4
:1020C0002348008885062348AD0E44681748006FF2
:1020D0000078002802D1284626F013FE1E48008909
:1020E000164EC00507D520060BD5E00709D02846B7
:1020F00026F06DFF03E0200603D5E00701D00320A2
:102100003070200403D5E00501D50220307070BD89
:1021100010B50A490120887024F07FFA10BD000034
:1021200071020000400000406C030800E001000064
:102130004A0008003803080020000050F616080086
:102140000016005000E200E000330050001500507F
:102150000020005000020040002C0050FEB55B4CF7
:102160000026606D37460090FEF783FB584D00282F
:1021700002D12879022801D100200090FEF76FFCDF
:1021800000280ED12FF078FF00280AD050480126F1
:10219000C078002805D005252D07A88AC00701D0E2
:1021A000042690E030F00CFE00287DD1494880697B
:1021B000002801D0606D00904548009C81786846F9
:1021C00030F0AEFB00287ED041488178684624F08C
:1021D000ACFB002877D00020FF2100942D31012492
:1021E0000190A407206A8842FCD339488178684668
:1021F00030F096FB002866D035488178684624F098
:1022000094FB00285FD00098002804D00199002991
:1022100001D0401E00903049002209788320022915
:1022200000D1B5202D490B78012B00D121300A7047
:10223000E26B0F21920A92020A43E263E16B284AA1
:10224000800211400143E163E06B3721C002C00A04
:1022500089050843E06300980426002801D0001D8A
:102260000090C002642131F01EFC002800D0401E06
:1022700017490979002900D0012124F024FB1948CD
:10228000C06A8047FEF719FC002808D02888302152
:102290000843288028880321084328800127206BD1
:1022A0000004C00FFBD000E00DE00F480168C90535
:1022B000FCD5002F01D0FFF7BAF930F0A7FC288930
:1022C0008021884328813046FEBD00006002000066
:1022D000C6060800A805080054020800F716080002
:1022E000FF03E0FF1C07080000020040F8B5144699
:1022F0000F461E460546428801880623204630F0D8
:1023000057F8044628792CF06CF8208027716680F5
:10231000204630F065F8F8BD70B514464288007963
:102320000D46010204231C480C3130F041F8002D09
:1023300001D0132100E012210170448030F050F8E8
:1023400070BD70B50024154D09E0401940690028A2
:1023500003D0641CE4B2804701E0641CE4B2204670
:102360001C214843295CFF29EFD170BDF7B50098C7
:1023700000240F46094E050208E02B460343641C67
:10238000E4B2FAB2029900982CF004F81C206043E1
:10239000305CFF28F1D1FEBD0D3000007C730000E1
:1023A000FFB5002685B0154641486A463446374693
:1023B0001082002904D0042203A831F0B1FB02E00E
:1023C0000020C0430390002016E003990141C90793
:1023D00010D00F99020151180A79022A02D0102A4E
:1023E00005D102E0761CF6B201E0641CE4B2098972
:1023F000C9198FB2401CC0B2A842E6D30094002392
:10240000324601970E99059827F044FA00242AE0F5
:1024100003992141C90724D00F9927017E18F1881B
:1024200002A8009101900F983279C359059831891B
:10243000008827F0AFFA002813D17189002910D045
:102440003079022807D10F980222C05904A931F02F
:1024500092FB00280DD0684671890089F26827F048
:1024600085FB641CE4B2AC4201D20028D0D009B094
:10247000F0BDF0684078FF2809D00899002906D0FF
:1024800005996A4609781289511A089A11546A46C0
:102490001089411C11807189F26827F067FB0028C0
:1024A000DFD16B4602220121188927F062FBD8E7B1
:1024B0000328000002464B880020022B01D00D208B
:1024C00070470989002A05D00029F9D00129F7D0E1
:1024D000812070470029FCD00229F9D1704770B5DE
:1024E00086B0044627F037FA05461D4E0EE06A46D0
:1024F00004A9204627F066FB68460088B04203D155
:10250000641CA0B206B070BD641EA4B2A888A0422C
:1025100002D8E888A042EAD20020F3E7F0B585B0FF
:10252000044627F018FA0E4E0546FF360C4F0FE012
:102530006A4604A9204627F045FB68460088B04259
:1025400002D1204605B0F0BDB84207D0641CA4B249
:10255000A888A04202D8E888A042E9D20020F1E78A
:10256000032800000C2250430E4A10B580188078D2
:10257000FF2803D0088800F027F810BD02F08DF87E
:1025800010BD10B502F089F810BD10B500F0F1F9DA
:10259000002801D002F081F810BD10B502F07DF8DE
:1025A00010BD0000181708000021F64A05E083421C
:1025B00001D101207047491CC9B20C234B43D35CA5
:1025C000FF2BF4D100207047F8B505460024ED4EEE
:1025D0000AE080198168002904D0641CE4B228460E
:1025E000884701E0641CE4B220460C214843315C7A
:1025F000FF29EED1E34E0024443609E08F19B96873
:10260000002903D0FFF7D0FF00280AD0641CE4B2F1
:102610000C216143705CFF28F0D1DA4E00240C36A7
:1026200010E0641CB968E4B228468847F0E78019D6
:102630000169002904D0641CE4B22846884701E0FF
:10264000641CE4B220461C214843315CFF29EED1D2
:10265000F8BD70B5CB49CC4C0E4644360D460C3512
:102660000DE052185268002A07D0C2B20C235A4318
:1026700051184968401C60702DE0401C6070607803
:102680000C2242438B5CFF2BEBD10AE0891949688D
:10269000002903D0FFF788FF002809D02078401CCC
:1026A000207021780C204143705CFF28EED117E0A8
:1026B00020780C21414389194968401C20700AE0A8
:1026C0004919C968002909D0C1B21C2251434919CE
:1026D000C968401CA0708847002070BD401CA070D5
:1026E000A0781C2141436A5CFF2AE9D10020A07038
:1026F00060702070012070BDFFB581B005461E4698
:10270000144618460A9F03F0D9FE00902E70294601
:102710003846009A30F05CF90246C8209B490823ED
:102720009B4E002A02D008807380FEE72A78A242DE
:1027300002D908807380FEE7A24200D322462A70A5
:102740000099029831F0ECF9009803F0C7FD05B04C
:10275000F0BDF0B58C4899B0C06800285CD150231A
:1027600032220D218B482FF023FE0446864E002591
:10277000F0600E2020706570A580A020A081E0810F
:102780000720207401206074A57421460B201431A9
:1027900000901791481E20231C220390FFF7ACFFE6
:1027A00021460C2031310090481E20231F22189111
:1027B0000590FFF7A1FFF0681A22C17C2030511A62
:1027C000CEB2007C1D21081AC7B268460574304697
:1027D000384321D03E206946087406AA04A9022085
:1027E00030F0F6F80028684601D0057414E0017C4A
:1027F000002911D08E4205D3E27C179806AB12183F
:10280000039807E08F4207D32034227C189806AB48
:102810001218059800F0DAF85B48C06819B0F0BDEE
:1028200070B5594D84002D1D2959002911D101027F
:102830000A23322258480E312FF0BAFD0A210170C6
:10284000285120218180102141800421C180C8218C
:102850000181285970BD70B54B4DA868002821D161
:102860004C48222332220D210A382FF0A1FD0321EA
:1028700001700446A8600A20424960701022233982
:10288000A01C31F04DF90021618221756175202075
:10289000E0821022228360830420A083C820E0838A
:1028A00020342170A86870BD3A4810B50123322247
:1028B0000D210B382FF07CFD022101702FF090FDCF
:1028C00010BD1CB530480C21183031F042F90124FC
:1028D0006846047004716A4601A9352030F078F822
:1028E000002801D0684604702749002018310C22C6
:1028F00042435218401C00061471000EF7D02149C3
:10290000322050312FF03FFE002132202FF090FE78
:102910001CBD70B50D4601021F4814462C233222FF
:102920000C380E312FF044FD014620310D724C72EF
:102930002FF056FD70BD0CE710B5FFF70AFF2FF022
:102940004FFD11490020C860022132202FF070FE97
:1029500010BD10B50446FFF763FF2FF041FD0A4A92
:102960000020A100121D5050042132202FF060FEE3
:1029700010BD10B5012132202FF05AFEFFF769FE7D
:1029800010BD66E6F073000000170800003100502B
:10299000003300500E3400000E38000010B5FFF771
:1029A0005AFF2FF01DFD12490020886010BD10490C
:1029B00010B50020FF232431012442008B5452180B
:1029C000401CC0B254700A28F7D310BD70B506463B
:1029D000481C1070092015460C46507022461946B6
:1029E000A81C31F09DF83078A41C0019307070BD1F
:1029F00000170800FEB51C46089B0726594D6F4678
:102A000068C71346224600F0D2F8FEBD10B5104646
:102A10002FF04FFE002809D1012332220D21524808
:102A20002FF0C6FC012101702FF0DAFC002010BD50
:102A300070B54C4C0D78241F0F2D13D008DC012DE0
:102A400012D0022D0AD0032D14D00E2D06D117E07E
:102A5000102D07D0112D05D0122D03D02568002D83
:102A600000D0A847002070BD48780028FAD1FFF7B1
:102A700095FFF7E748780028F4D1FFF786FDF1E7E6
:102A8000487801F0BFFDEDE7F8B51C4610460E464C
:102A90002FF00FFE022822D1250A0C202F46474393
:102AA00032483C18A570FF2D15D00121E170052199
:102AB00032202FF0BDFD2D483188C153707A6071EE
:102AC0003146A01D06220A3131F02AF800221146B3
:102AD0002846FFF71EFF3146284601F040FD002042
:102AE000F8BD70B50C46097816460A2909D01D4D67
:102AF0002D1F2968002902D021462C68A0470020FC
:102B000070BD10462FF0D5FD0428F8D1607800285C
:102B1000F5D1052130462FF08BFDF0E710B51046BA
:102B20000C462FF0C6FD032803D0052801D0042849
:102B300002D1204601F034FD002010BD10B5104632
:102B40000C462FF0B6FD012808D12078002805D1C9
:102B5000FFF717FF002801D0FFF71FFD002010BD71
:102B600000207047F87600000234000018170800B3
:102B7000FFB583B01E4F002401AEA00000963D5863
:102B800003A80FC8A84700280ED0641C042CF4D357
:102B9000174C241F2068002803D003AD0FCD2468F4
:102BA000A047002007B0F0BD68460079FAE7F8B505
:102BB000089C9C46079D0346002C16D0641E14D426
:102BC0000C4FE600AE5B9E4201D0BE420BD1E3004B
:102BD0005B195C68002C08D013466246A047069932
:102BE00008700020F8BD641EEBD50120F8BD000080
:102BF00044770000FFFF000010B5052000070089A2
:102C0000000608D501208007006B000403D430F0D3
:102C1000D7F8C00701D0002010BD012010BD000072
:102C200070B50F49049C4118052901D3012070BDDE
:102C300000F00DF80025002806DB0A4A81005058F4
:102C4000002801D0555080472570002070BD0449F0
:102C50004018052801D240B270470020C043704799
:102C6000F337FFFF401708007047000070B5464A71
:102C700000248318049D002B1DD0444A012B06D04C
:102C80004149891E41180A291ED3012070BD0978C7
:102C9000481E092808D88900091F51583C4B994201
:102CA00021D1800014501EE03A49C82008803A49DA
:102CB00008204880FEE74A8808783849401880B2E2
:102CC00032212FF0AFFD0EE02F49491E4018C0B24F
:102CD000411E092907D8800081188039C86F002853
:102CE00001D0CC6780472C70002070BDF8B5044639
:102CF000401E092819D82548A1000D18803DE86F0D
:102D0000002812D0224EB0420FD0244F3221E019B9
:102D100080B22FF0C7FD3222012311463846EE67FC
:102D20002FF046FB04702FF05BFBF8BD70B5054635
:102D3000164A00208300D358002B04D0401C0A28D8
:102D4000F8DB002070BD8300401C0406D150240E27
:102D5000F7D0FFF751FF002807D010482A46201867
:102D600080B232212FF05EFD0CE0FDF785FD0B48AF
:102D7000322204231146401E2FF01AFB45800470B6
:102D80002FF02EFB204670BDFF37FFFF54170800C1
:102D9000692C0000003100500033005002C80000D0
:102DA000F8B5032601243602082332460321022007
:102DB0000094FEF768FC00F061F800210523220270
:102DC00008460094FEF75FFC0623324601210020EE
:102DD0000094FEF758FC072332460221002000949D
:102DE000FEF751FC00233246032118460094FEF7FB
:102DF0004AFC00233246072118460094FEF743FCA4
:102E000000233246092102200094FEF73CFC0025F5
:102E100067022B463A46062128460095FEF733FC0A
:102E200000233A46194602200095FEF72CFC0121AA
:102E30000023324608460094FEF725FCF8BD10B585
:102E400005242407208A022188432082A08A0007C3
:102E5000FCD509484188FF22013211434180FDF72A
:102E600029FFFFF79DFF00F009F802F040FE608A9D
:102E700020210843608210BD20000050052000077B
:102E800081880122D20211438180174801884908B4
:102E9000490001800188FF2281329143018001882D
:102EA000402291430180018804221143018001885E
:102EB000022211430180018852039143018001885D
:102EC00018229143103101800188012211430180B1
:102ED000704705490022488008888004FCD50120FD
:102EE000C88048888018704700120050F84B1B6853
:102EF000002B01D05B6B18477E20C0437047F44B1A
:102F00001B68002B01D01B6B18477E20C043704705
:102F100008B5B62069460870ED480068002804D05E
:102F20000122036BE020984708BD7E20C04308BD06
:102F300038B50446002069460870E5480068002856
:102F400009D00122436BF420984769460978890724
:102F5000890F217038BD7E20C04338BD30B587B0A1
:102F600000216A461172117311741175D84C1170D9
:102F70002168002930D003285BD82031897B800765
:102F800089088900800F0143117203A8FFF7D0FF61
:102F90006846007B002823D0FFF7BAFF2068816BCA
:102FA00003208847206801222030C17B68460175D4
:102FB00005A9F520FFF7A3FF206801222030417BFF
:102FC0006846017404A9F220FFF799FF012202A9C3
:102FD000F420FFF794FF09E07E20C04307B030BD26
:102FE00020680122036B02A9F42098470122694658
:102FF000F420FFF77BFF05462068694609782030FA
:10300000817301226946F220FFF770FF451920689D
:10301000694609782030417301226946F520FFF79F
:1030200065FF69460A784019216840B22031CA73A9
:10303000D4E70120C043D1E710B572B6FFF78EFF89
:1030400072B610BD38B5A248012100682424203092
:103050008172C172017341738473684601700A46BC
:1030600069467220FFF74BFF6846047001226946EB
:103070007420FFF744FF012269467220FFF736FFF4
:10308000012269467420FFF731FF38BD30B587B0A3
:103090001C21684630F05DFD8D4C2068002870D002
:1030A0001A22436B69468820984705466A4621687C
:1030B00010880880D07892780002104348806A46D1
:1030C000507912790002104388806A46D088C880FF
:1030D000507A127A0002104308816A46D07A927AB6
:1030E0000002104348816A46507B127B0002104365
:1030F00088816A46D07B927B00021043C8816A4671
:10310000507C127C0002104308826A46D07C927C7C
:103110000002104348826A46507D127D000210432F
:1031200088826A46D07D927D00021043C8826A463A
:10313000507E087607224B6B6946E12098476A4625
:10314000517840190B02117840B20B4321684B8330
:1031500092780A776A460323D35612791B01120725
:10316000120F1343CB836A460523D35612791B01F2
:10317000120913430B846A46927920318A702DE735
:10318000FFE77E20C04329E738B5002269460A7070
:103190004F4C01222060436BD020984705462068A1
:1031A0006946097820300172FFF770FF401940B27C
:1031B00038BD10B501F036F910BDF8B5074600204E
:1031C00016460D460446009002F0EFFF3846802177
:1031D0000843FFF77EFE06E00020FFF77AFE641C3E
:1031E0002870E4B26D1CB442F6D303F027FB0098BC
:1031F000F8BDF8B50746002016460D460446009077
:1032000002F0D3FF7806400EFFF763FE05E0287852
:103210006D1CFFF75EFE641CE4B2B442F7D303F00A
:103220000DFB0098F8BD70B5054629482949001DD9
:1032300001632949416329498163FFF7A5FF0446DA
:10324000FFF766FE04190020FFF7F6FE001944B2EE
:10325000FFF7F8FE002D05D00120FFF7EDFE001965
:1032600040B270BD204670BD10B519494B230968A6
:103270009B024A6A8003D21ACB8B22241B05C31AF5
:103280002020085E5043181A01239B03C018635680
:103290000C7F53435443E2120124E4039B1212199E
:1032A00053439A12A301D2181A23CB5EC0135A4378
:1032B000A310D21892135043C2135243097ED21165
:1032C0004A431111401A06490CD500200DE00000B8
:1032D00030900000F3310000BB310000B33100003A
:1032E00000000019884200DD0846001310BD70B5CB
:1032F0005D497D220C685202616A10254910891AC5
:103300008A105243655FD3126B430E25655F5213DB
:103310004D436D00EB18A5899B102D045B190A2500
:10332000655F6A43D5100822A25E4A4351106918AE
:1033300001258914E288ED0349194A43D1136A0132
:10334000101A1A13801A494A5043D207904205D2E4
:1033500000291BD0400030F0A6FB04E0002915D066
:1033600030F0A1FB4000C10816224943A25E490B80
:10337000514314230A13E35E81085943122349136E
:10338000E35E511859180911081870BD002070BD6E
:1033900010B53549C310096800110A885400801A15
:1033A0001B1B022404220C5F40438A5E001363430C
:1033B0005043DB1280131818486281004018803097
:1033C000001210BD7CB506460020009001902648F2
:1033D000144600680D4600281DD00822436B69463C
:1033E000F72098476B46014618785A780003120177
:1033F00010439A78120910433060D8781A79000384
:10340000120110435A79120910432860D88840BA33
:10341000206008467CBD7E20C0437CBDFEB50023F5
:1034200014460D46064600930193029372B60E4869
:103430000068002814D002AA01A96846FFF7C2FF5D
:1034400007460198FFF7A4FF28600098FFF74FFF99
:1034500030600298FFF708FF206062B63846FEBD74
:103460007E20C043FEBD000030900000350C0000FF
:10347000FFB581B00F46002069460870F8481E4627
:103480000568002D06D0AB6801220198984704001A
:1034900004D011E07E20C04305B0F0BD6946087835
:1034A0000399B8438E403E403043694608706B68CC
:1034B00001220198984744B2E948001D01690120A2
:1034C00088472046E8E70346002207214320CFE74C
:1034D000034600220F214120CAE7034601220221B0
:1034E0005320C5E710B50446012804D1002000F0A0
:1034F00009F8002805D12346042210215420FFF7A3
:10350000B7FF10BD10B50446012804D10020FFF715
:10351000E9FF002805D12346032208215320FFF7A5
:10352000A7FF10BD0346062240216C20A0E70346FA
:10353000052220216C209BE70346032218216C20E2
:1035400096E70346002207216C2091E703460222FA
:10355000FC215F208CE7034600220121622087E7DF
:1035600003460022FF21612082E703460022FF215B
:1035700060207DE7034602220421522078E70346BB
:1035800001220221522073E703460022012152202A
:103590006EE7034602220421502069E70346012218
:1035A0000221502064E703460022012150205FE7FA
:1035B000034600220F2140205AE701B5A8480068C1
:1035C000002805D00122436869467E20984708BD3F
:1035D0007E20C04308BD034600220F21422047E75A
:1035E000034604223021422042E703460422702190
:1035F00040203DE703460022FF21462038E70346EE
:1036000006224021512033E703460622402156205E
:103610002EE7034601220221472029E7034607221D
:103620008021472024E703460622402147201FE748
:1036300003460422102147201AE70346072280216F
:10364000402015E770B5864E864C01460025ED43B7
:10365000361D607D012903D0032957D0680070BD55
:10366000002803D0012000F0CEF80546A07D0028F8
:1036700004D0042000F0C7F8401945B2A07804280F
:1036800004D80120FFF7D9FF002003E00020FFF756
:10369000D4FF0220FFF7A9FF401945B2316901208C
:1036A00088470220FFF79CFF4519A07CFFF793FF96
:1036B0004519A078FFF77CFF44190120FFF722FF8E
:1036C00004190120FFF709FF04190120FFF7B0FFDB
:1036D00004190120FFF7A7FF04190120FFF79EFF3F
:1036E00004190120FFF795FF04190120FFF78CFF53
:1036F00004190120FFF783FF04195A48017DC27C99
:1037000008021043C0B2FFF775FF5AE0002808D046
:10371000012000F078F805460220FFF766FF401907
:1037200045B2A07D002809D00220FFF759FF4519B6
:10373000A07CFFF750FF401945B207E01420FFF7C7
:103740003CFF401945B231691E208847A078FFF739
:103750002FFF45190120FFF726FF45190120FFF72C
:103760001DFF45190120FFF714FF45190120FFF740
:103770000BFF45190120FFF702FF45190120FFF754
:10378000F9FE401945B2A07D00281DD00920FFF7A1
:10379000ECFE0920FFF7E4FE0120FFF7DCFE01202C
:1037A000FFF7D4FE0420FFF7CCFE44190220FFF7F8
:1037B000C3FE04190120FFF7BAFE04190120FFF728
:1037C000B1FE001945B208E00020FFF7B5FE002069
:1037D000FFF7A8FE0120FFF7AAFE284670BD07B537
:1037E0001F490968002905D0002A06D04B6801A9A5
:1037F00098470EBD7E20C0430EBD00200EBD0122A5
:1038000001467E20EBE770B5154D03002D1D30F00D
:10381000F5FA0C0709111315172B2B2B1E2B202B38
:10382000102000E01120FFF7EAFF04462969042078
:10383000884712E01220F6E7142002E0152000E08D
:103840001720FFF7DCFF04461E202969F0E703205C
:1038500000E00120FFF7F6FE0446204670BD0000A0
:1038600070900000880908000120C043F6E7410677
:10387000490E01226C20B2E7A04B1B68002B03D03D
:10388000002A04D09B6818477E20C0437047002060
:103890007047012201460020EEE710B500F0C2FD9E
:1038A00010BDF8B500201E4615460F460446009090
:1038B00002F081FC384680210843FFF70AFB05E04F
:1038C0000020FFF706FB2870641C6D1CB442F7D380
:1038D00002F0BAFF0098F8BDF8B50746002016467A
:1038E0000D460446009002F066FC384680210843ED
:1038F000FFF7EFFA06E00020FFF7EBFA641C2870F0
:10390000E4B26D1CB442F6D302F09EFF0098F8BDFD
:10391000F7B5002716460D463C4602F04CFC0098D1
:10392000FFF7D7FA05E028786D1CFFF7D2FA641C80
:10393000E4B2B442F7D302F087FF3846FEBD70B55B
:1039400006466E480D466E49001D41606D49816016
:103950006D49C1606D490161011F0860FFF799FF62
:1039600004460020FFF783FF001944B2002E04D064
:103970000120FFF748FF001944B2002D04D00420B5
:10398000FFF741FF001944B20120FFF7BBFD041906
:103990000120FFF7A2FD00195D4D44B26878FFF7E2
:1039A00097FDE878FFF78FFD204657E7024630B4D1
:1039B00052480068002807D001239B02994206D98B
:1039C0000120C04330BC70477E20C043FAE74478F2
:1039D000C5682046AC460B4630BC24216047012216
:1039E000B0217E20FBE60122B1217E20F7E610B552
:1039F000B620FFF704FF040004D14048001D016910
:103A000051208847204610BD10B5034600220121F1
:103A10005320FFF72DFD10BD10B5034602220421EF
:103A20005320FFF725FD10BD10B5034600220F21DE
:103A30005420FFF71DFD10BD10B5034601220221E1
:103A40006220FFF715FD10BD10B5034601220221CB
:103A5000622000F03BF810BD38B5054600216846ED
:103A60000170FFF7F1FF044668460078002804D093
:103A70000020FFF7E1FF001944B22B460222042187
:103A80005520FFF7F5FC001940B238BD10B50346CC
:103A9000002203215F20FFF7EBFC10BD012201464D
:103AA00057209CE601220146562098E60122014655
:103AB000552094E6012201461E20DDE60122014642
:103AC0001D20D9E6012201461C20D5E6F8B5164690
:103AD0000F4600216A46117008491D460C68002CEB
:103AE00009D0A36801226946984769460978394098
:103AF000F1402970F8BD7E20C043F8BD70900000F1
:103B000011390000D9380000A33800009B380000AC
:103B100088090800FFB581B00E460020694608708C
:103B2000F7481D4604681746002C13D0A3680122ED
:103B30000198984700280BD169460878BD40B043EA
:103B4000354028430870636801220198984740B2C5
:103B500005B0F0BD7E20C043FAE703460022FF21F6
:103B60005220D7E703460022FF215120D2E7034627
:103B7000032238214C20CDE710B5012808D00228B7
:103B800010D0032818D0042820D00120C04310BD35
:103B90000020FFF7ECFF04460120FFF7E3FF0419C4
:103BA00002201CE00020FFF7E2FF04460420FFF79C
:103BB000D9FF04190E2012E00520FFF7D8FF0446B4
:103BC0001720FFF7CFFF0419522008E00020FFF76D
:103BD000CEFF04460720FFF7C5FF04191A20FFF7A0
:103BE000BCFF001940B210BD10B5034600220121F0
:103BF0004B20FFF78FFF0446C148001DC16803201A
:103C00008847204610BDF8B516460F4600216A4683
:103C10001170BB491D460C68002C0BD0A368012213
:103C200069469847002804D1694609783940F1402F
:103C30002970F8BD7E20C043F8BD03460022012153
:103C40004B20E0E738B5054602280CD0042D1CD2E5
:103C5000002168460170FFF7F0FF044668460078CF
:103C6000002804D008E00020FFF7BEFF38BD012087
:103C7000FFF7BAFF001944B22B46012206214C205F
:103C8000FFF748FF001940B238BD0120C04338BDDE
:103C900038B500209A4C0090216801225D208B6885
:103CA000103198472168054601225E208B6811314A
:103CB000984721684519012264208B681231984782
:103CC00021684519012265208B68133198472168C6
:103CD0004519012271208B681C31984721684519CC
:103CE000012270208B681D319847451920680222F7
:103CF000836869466A20984745196946206809889B
:103D0000818202228368694668209847451969467E
:103D100048780202087802432068C282022283683F
:103D20006E20984745196946487802020878024390
:103D300020680283022283686220984745196946F9
:103D4000487802020878024320684283022283688E
:103D50006C2098476946497840194A06520E6946D0
:103D60004A702268098840B2D18338BD03460022D8
:103D7000FF21402047E7624810B5001D011F086081
:103D80000120FFF731FF04465D48001DFFF7EEFFFD
:103D90000419FFF77DFF001940B210BD10B500F007
:103DA00041FB10BDF8B50746002016460D460446F7
:103DB000009002F006FA384680210843FFF789F8A0
:103DC00006E00020FFF785F8641C2870E4B26D1C43
:103DD000B442F6D302F03EFD0098F8BDF7B50027D7
:103DE00016460D463C4602F0ECF90098FFF771F8D4
:103DF00005E028786D1CFFF76CF8641CE4B2B4424F
:103E0000F7D302F027FD3846FEBD70B5054600F039
:103E100010F9FFF7B0FF04460320FFF713FF041962
:103E2000002D05D00120FFF7A7FE001940B270BD9C
:103E300060B270BD06E770B50346012292033148B7
:103E4000D3422BD02E4A16241268145F002C26D0A1
:103E5000958A002D23D0002921D0D68B002E1ED08C
:103E600008B241004D430121C90369180914091919
:103E70001E251824555F145F401B4443A0101A24CC
:103E8000145F1A1BD203101A2FF023FE1D49C943D9
:103E9000884202DC4942884200DA084600B270BD1E
:103EA00070B50546012212031648D54227D00029D5
:103EB00025D0134A1468E28B002A20D090032FF0FB
:103EC000F2FD01218903401A00B21D21024661560C
:103ED0004243D2115143227FD2014243881801212B
:103EE00040120905411813202056A0304143081301
:103EF0001121615668434013C900401800B270BDDB
:103F0000889000000080FFFF70B505460122120373
:103F10004D48D54227D0002925D04C4A1468E28B61
:103F2000002A20D090032FF0BEFD01218903401A02
:103F300000B21D21024661564243D2115143227FF5
:103F4000D20142438818012140120905411812206C
:103F50002056A03041430813102161566843401396
:103F6000C900401800B270BDF0B5044689B0002009
:103F70000090019035480068002808D00822836826
:103F80006946422098470890002804D03DE07E20F2
:103F9000C04309B0F0BD684600780122C1086846F8
:103FA00001708256032352010A4302818078C108BE
:103FB00068468170C3565F010F434781007905232E
:103FC000410868460171C356DE010E43868180793F
:103FD000C007C00F207268468079810868468171E9
:103FE000C07985010D436846C58110462946FFF713
:103FF0008BFF208038462946FFF752FF6080294614
:104000003046FFF718FFA080E5800898C1E7ABE7CE
:1040100010B50346062240214D20FFF77BFD10BD61
:10402000012310B58343022204214D20FFF772FDC6
:1040300010BD06480649001D4160064981600649D9
:10404000C1600020704700000080FFFF88900000E2
:10405000DD3D0000A53D00009D3D000010B50321A1
:104060000220FDF706FB10BDF8B501240023250250
:104070002A46194618460094FDF705FB00232A46F8
:10408000012118460094FDF7FEFA00232A4602217A
:1040900018460094FDF7F7FA00232A46092102206A
:1040A0000094FDF7F0FA0024032636020723324677
:1040B000214602200094FDF7E6FA06233246092144
:1040C00002200094FDF7DFFA0523002204210220DC
:1040D0000094FDF7D8FAE3480221017003214170F2
:1040E00029466802FDF74CFBFDF732FCF8BD10B520
:1040F00003210220FDF7B3FA10BD38B5FFF7AEFF7C
:10410000FDF71AFCFFF7F3FF0124002325022A46DE
:10411000194602200094FDF7B6FA00232A46092129
:1041200002200094FDF7AFFA00232A460421022062
:104130000094FDF7A8FA00220523114610460094CA
:10414000FDF7A1FA0623DD012A4601210020009493
:10415000FDF799FA07232A46022100200094FDF773
:1041600092FA00232A4609210220FDF76CFA38BD95
:10417000F3B5D3B00646FF21453101A82FF0E9FC85
:1041800000240D204643FF212546423101A800941A
:10419000FFF70CFC01AF00287ED0002055B0F0BD29
:1041A000785D8008800084280CD006DC402874D01C
:1041B000442873D0802872D198E0882823D08C2896
:1041C000F9D142E06D1CA8B2851DB54267D82146E1
:1041D00014225143A44A8423535438184378027854
:1041E0001B061B141343A04A89184B80C27883789E
:1041F000120612141A438A804279037910060014B9
:104200001843C8801FE06D1CA8B2851DB54246D872
:10421000214614225143944A882353543818437832
:1042200002781B061B1413438F4A89180B81C2782E
:104230008378120612141A434A81427903791006D0
:10424000001418438881ADB261E06D1CA8B2811DD5
:10425000B14261D8224614235A43834B8C2199548E
:1042600039184D780B782D062D141D437E4BD2182E
:104270001581CB788D781B061B142B4353814B790A
:104280000D791B061B142B439381CB798D791B066B
:104290001B142B43538003E03BE01EE00FE02FE0B4
:1042A0004B7A0D7A1B061B142B439380CB7A8D7AA5
:1042B0001906091429430C30D18085B227E06D1C02
:1042C000A8B2C51CB54227D8381801F075FD010207
:1042D0005498090AADB2016005E06D1CA8B2401CFB
:1042E000B04219D885B2641EE4B210E06D1CA9B2C8
:1042F000481CB04210D8795C002902D0641EE4B298
:104300000AE085B2641E0098E4B2002804D1641C5F
:10431000E4B2B54200D243E720463FE710B5544926
:1043200052484861FDF7FCFB00230122194640205A
:10433000FDF7B5FB10BD38B500240520000700943B
:10434000808A400701D5FEF77AFD4A4800780228A6
:1043500002D0FFF7E3FF38BD474DE87D002805D0C8
:104360004648FFF754FE0120FFF764FD6946192017
:10437000FFF7FEFE002819D0E97D002916D03A4942
:104380000A78842A04D0882A04D08C2A04D005E034
:10439000942202E0982200E09C220A70374A123AE6
:1043A000538ACB81938A0B82D28A4A823149203147
:1043B0000871002809D032484C71428801880223D4
:1043C00030482DF0F5FF2EF00BF8FCF755FAC0E75A
:1043D00008B500206946087005200007808A40075C
:1043E00001D5FEF72CFDFCF740FA6846FFF766FBA7
:1043F0006846FFF75FFB6846FFF764FB6846007896
:10440000400706D51A4901208873FFF7F0FA00F03B
:1044100044F908BD002310B5012219461846FDF7DE
:104420003EFB10BD7D21C90048430AE000BF00BF2C
:1044300000BF00BF00BF00BF00BF00BF00BF00BF84
:1044400000BF401EF2D2704710B509490E484861BE
:10445000FDF766FB0023012219464020FDF71FFBF4
:1044600010BD0000680708002E0A0800374300004E
:10447000AC9000006C07080088090800BE0708001F
:104480007C1708000BD80000D143000010B59448F9
:10449000012380783222010292480C312DF088FFEE
:1044A000012101702DF09CFF10BDF8B5052000071B
:1044B000808A400701D5FEF7C2FC894CA0890028FC
:1044C0001AD0A0790322002601271202002802D068
:1044D000012811D108E00121002308460096FDF7CC
:1044E000D2F8A771258907E001210023084600972B
:1044F000FDF7C9F8A6716589A089401E0004000C6B
:10450000A08104D078492846FEF710FC6071F8BD00
:1045100010B5734C0020A0710A20A0812081608119
:104520007149FEF703FC607110BD10B56C4C0A2098
:1045300020815A2060810020C043A0810020A0710A
:1045400069490A20FEF7F2FB607110BD10B5644C9A
:104550002079FEF7CBFB6079FEF7C8FB10BD70B584
:1045600005221207928A0C460546500701D5FEF730
:1045700066FCFFF7EBFFFFF7CBFFFFF787FF01F0CC
:104580009FFA01F0DEF801F073FA0020FEF7E1F97E
:1045900021462846FDF7E6FF54480021017570BD0D
:1045A00070B5054605200007808A400701D5FEF753
:1045B00046FC01F0C6F84A4CE078FEF797FBFFF79F
:1045C00029FF0120A0732846FDF7DBFF70BD1CB555
:1045D00001AC009400F0D2F81CBD10B50520000716
:1045E000808A400701D5FEF72AFC01F069FA01F044
:1045F000A8F83B4901208873FEF7D9F90120FCF7A0
:1046000019F910BD10B5044605200007808A40073F
:1046100001D5FEF714FC442C17D131484079FEF740
:1046200065FB0220FFF706FC0020FEF705FDFFF703
:10463000DEF90020FFF7E7F80320FFF7E4F801F0C8
:1046400017F8FFF701FFFCF70CF910BD10B5322089
:104650002EF02FF8052801D0FEF726F910BD3EB543
:104660000446002006226B461A722278B12A04D032
:10467000401CC0B2641C8842F7D31A4602A901202C
:10468000FBF76EFF6846807820706846407860705F
:1046900068460078A07000203EBD70B5104DA87B24
:1046A000002812D0012812D01924A401FEF743F9E2
:1046B000C48184810A213130FFF7D1FFFEF73CF934
:1046C000022132202DF0B4FF70BD0120A873A02478
:1046D000FFF72BFF06490748FEF728FB2871E5E79F
:1046E000AC90000001300000AB4400008C070800D3
:1046F0004D4600007017000010B5362110233222FD
:1047000088022DF055FE00211A4A03E0362B0DD009
:10471000491CC9B21C234B43D35CFF2BF6D10021AB
:104720004160816081812DF05BFE10BD1C235943E7
:104730008918097A0170F2E770B505461C23322208
:1047400036210D482DF034FE0580012181700022B4
:10475000027142718271C1710172417281720549A7
:1047600004460B2238310B302FF0DAF920462DF0B9
:1047700037FE70BDF879000002D80000FEB51C4677
:10478000089B0526494D6F4668C713462246FEF72B
:104790000EFAFEBD10B510460C462DF08AFF01281A
:1047A00009D132220123114690022DF001FE217819
:1047B00001702DF015FE002010BD00207047F8B5E7
:1047C0003B488D79067A4888CA1D19285CD1394939
:1047D00000270C460120203434312B002FF00EFB33
:1047E000130D0B2E291517133154541A1F34383C4E
:1047F0003F474B565400207503E02E4A2775384634
:10480000578701223EE0012224E000F0D1FD00F0B4
:10481000E8FD39E0104600F0F9FC277534E000F0BF
:10482000C9FC0F222449284600F004FE00F0C2FC17
:104830002AE02149C87600F084FD25E000F08FFDD4
:1048400022E000F074FD1FE0104600F0F9FC1BE0D0
:104850001A490822284615E0104600F0F8FC1A20F4
:10486000464316481A223118284608310AE01046F5
:1048700000F0FEFC08E03001811B10480F220918EF
:104880002846563100F0D6FD0020F8BD0A4A907641
:104890002075B8E707488168491E8160002070478D
:1048A00010B501F071F9002010BD00003C7A000045
:1048B0002C0808006C07080088090800A4090800F3
:1048C00010B50E2110482FF044F9104936202DF074
:1048D0005AFE012136202DF0ABFE10BD70B50A4CFA
:1048E000054662882188022309482DF061FD058074
:1048F0002DF076FDE088002125F0BFF9002136205B
:104900002DF096FE70BD00007C170800647A000050
:1049100009D80000FEB5BD4C1F460D46628000233D
:10492000BB4816E0914212D13118496800290ED0D7
:104930001C214B4318184068019000922A78A01D52
:104940006B68A968FDF72CFD060008D011E05B1C20
:10495000DBB21C265E43815DFF29E3D112E028789B
:104960002072E088002125F088F9002136202DF002
:104970005FFE012336223946A6482DF019FD067048
:104980002DF02EFD0020FEBD70B51E460C46088899
:1049900029F011FD9D4DFF2828712E8010D0A1789F
:1049A000E88825F06AF9E888221D173080B21721BF
:1049B00025F0DCF8022136202DF03AFE002070BDF3
:1049C000944B944A5B1C093289219048FDF78EFC78
:1049D000F4E7F0B58D4815460C460279190A8FB0F8
:1049E00091427DD12388C188007A591A8EB2B04293
:1049F00078D90AAA0EA9184625F0E4F86846018D70
:104A00002046854A08300190914218D12088FDF750
:104A100066FD07A925F014F96846808B4005800FD4
:104A2000012800D000202146FDF744FD05062D0E8B
:104A30002DD161882088019A25F098F826E0002081
:104A4000734F15E0A94211D1D119896900290DD000
:104A5000019900911C256843C01985696388A28863
:104A6000E1793046A847050008D010E0401CC0B2EC
:104A70001C2141430A46B95CFF29E3D1A288002AE0
:104A8000D7D061882088019B25F04FF80546E07952
:104A9000002828D0002D26D1208809AA02A925F0B7
:104AA00081F868460089801D83B258484288018891
:104AB0005848C01D2DF07CFC074668460289B81D89
:104AC00009992FF02DF85148007929F08AFC388097
:104AD0007E8068460089B88038462DF081FC02E06F
:104AE0000AE0FFE78225A079012805D147482188FF
:104AF00000792A4626F07DFA00200FB0F0BD70B58F
:104B0000424C0E46087821886288122802D0132869
:104B100008D018E03F480623001D2DF049FC05464B
:104B2000608906E03B480623801D2DF041FC0546C8
:104B3000A0896880207929F054FC28807078287139
:104B400028462DF04DFC002070BD70B52F4D0C4651
:104B5000287929F046FC2188884207D1E8886188B5
:104B6000A21D401880B2A18825F000F8002070BD79
:104B7000FEB5264D0C46287929F033FC2188884261
:104B800023D1E8886188A21D401880B2A18824F052
:104B9000EDFFE8886188401880B2297AFDF7BEFCF5
:104BA0006A4601A924F0FEFF00980088012801D080
:104BB0008B260BE0E8886188401882B200211348F8
:104BC000FDF7AAFB6088688112E0812611486A8897
:104BD00029880623001D2DF0EBFB074660887880AE
:104BE000287929F0FEFB38803E7138462DF0F8FB1D
:104BF0000020FEBD10B5054A180A1279904202D174
:104C00000888FFF76BFE002010BD00007C1708002D
:104C1000187D000001D800000229000070B53E4850
:104C20003B4C3C4D2C2106462EF093FF3A480C3865
:104C3000014644394865383088654438C865374886
:104C4000C86620784007400F052815D068782A7874
:104C5000000210434866E878AA780002104388668C
:104C6000E0787D210901C14020791922801F82400E
:104C7000304601F0C7F870BD0B20C0024866032023
:104C8000C002ECE770B5244B1546503B1A6D042466
:104C9000A24384002243540864000C4302221C6592
:104CA000002D06D01E46C036367AB60701D514430D
:104CB00000E094431C65002808D00020185E98632B
:104CC0000220185ED8630420185E1864002908D0FA
:104CD0000620185E58640820185E98640A20185E42
:104CE000D8640D4C3034002D05D02068404220603F
:104CF000606840426060084801F08EF8002D05D0E1
:104D000020684042206060684042606070BD0000E2
:104D100088090800A4090800FC070800FF7F0000BC
:104D2000F0B5028F0126511E8E40014620318C467F
:104D3000097FFD240B46DB0721409B0F1943634687
:104D40001977CB0752D0CB090CD14B070AD5056890
:104D500084682B68C7681B1B6C68AD68E41B076917
:104D6000ED1B01E0056838CD090724D54169876945
:104D700059436743CF19C16969438919791847684D
:104D800011413960016A476A59436743CF19816A03
:104D9000694389197918476811417960C16A594393
:104DA000036B6343CB18416B69438919591811414F
:104DB0004268916005E041680B6041684C60416861
:104DC0008D606146097FCA0910D049070ED5416838
:104DD00083680A68D21A0A604168C3684A68D21AAE
:104DE0004A60416800698A68101A8860F0BD000056
:104DF000F0B50546044640356888298889B048439F
:104E00004000000C264620360390307F400644D5F3
:104E1000208F0E2815D900200C22002142431219A0
:104E2000944662468B00D218278F53690E3F3B4150
:104E3000491C53610329F4D3401C0328ECD30E20F2
:104E400020872F8880B28740384661692EF041FE66
:104E5000206600903846616A2EF03BFE6066029044
:104E60003846616B2EF035FEA0660146A3680098B7
:104E7000181AA064E2680298101AE0642769781A88
:104E8000206500981818606502981018A0657818B9
:104E9000E065707F8021084326E00E202087774858
:104EA0002065E064A064C043E065A0656065002003
:104EB0002061E0600146A06002E00021884203D149
:104EC000238F01229A4000E000220C2343438F00ED
:104ED0001B19DB19491C5A610329EFD3401C032815
:104EE000EBD3707F4006400E707728880399411AF3
:104EF000A98503994018E88509B0F0BDF0B50746CB
:104F0000044620378FB0387F0C90C0067ED52368CA
:104F1000A16C1868814200DA0846A0648646E16CFC
:104F20005868814200DA0846E0640890216D98686C
:104F3000814200DA084620658446616D1868814226
:104F400000DD08466065A26D59688A4200DD1146A1
:104F5000A1650791E26D99688A4200DC0A467146B4
:104F6000411AE265491C491005922166089D079B7C
:104F70005B1B5B1C5D106346D21A521C5610A66662
:104F80006566A94201DA0A4600E02A46B24205DA1D
:104F9000A94201DA0A4602E02A4600E032462346E8
:104FA00040330D939B8D9A4203DA787F4006400E82
:104FB00042E07044401C4010A0600390089A07989B
:104FC0008018401C4010E060049005986044401C2C
:104FD0004010206105900C9880062AD50D98228FEC
:104FE00000880792904002902EF05DFD6061019074
:104FF000294602982EF057FD054660623146029818
:105000002EF051FD014660630C9800E015E0C009E8
:105010000FD0019A03985043079A1041A06004985A
:10502000079A68431041E060059848430799084192
:105030002061787F8021084378770FB0F0BD70B58C
:1050400004462034217F05460846FD26C00731402E
:10505000800F01432177C8070FD02846FFF74EFF86
:10506000607FC00902D02846FFF75AFE617F207F8B
:10507000C909304049000843207770BDFF7F000018
:105080007047000070B5254C6188491E09B26180E7
:10509000002912D00022825E216989182161022232
:1050A000825E6169891861610422825EA169881843
:1050B00001218903401AA06170BD0021615E206951
:1050C0002EF007FD164D20812870000A687000211F
:1050D000615E60692EF0FDFC6081A91E0871000A06
:1050E00048710021615EA0692EF0F3FCA081287157
:1050F000000A6871012060600A480021017570BDD6
:105100000648642101804180002101814181818123
:10511000016141618161416070470000C4900000FD
:10512000270A08008C070800F8B5BA4D0024687DEE
:10513000AF7D0146264639430DD0002810D0A9780E
:105140000820401A082909D80121814064202EF046
:10515000C0FC044604E020200090F8BD6424844094
:10516000002F0DD029790820401A082906D80121DE
:10517000814064202EF0ADFC064601E064268640A6
:10518000B44201D9204600E03046A21906235A4312
:10519000E97910182EF087FC80080090C0B2E874FE
:1051A000010A2975ED1C4028D7D940202874002019
:1051B0006874F8BD10B5974CA179002903D004207C
:1051C0002EF071FC00E00420A07110BD914801791F
:1051D000817400210174417470478E48002141752B
:1051E0008175C17501760178CA070121002A00D0B6
:1051F00041750278920700D581750278520700D573
:10520000C1750278120700D501768DE710B5814C83
:1052100001460F2220462EF083FCFFF7DEFFFFF74A
:10522000D5FFA17D607DFEF78AFBE07DFEF7EDFDF9
:10523000207EFDF7F8FF00F031FAFFF7BBFF10BD4D
:1052400010B50146744808222EF06AFC10BD10B556
:10525000017802290BD171491A22097A51436E4A09
:105260008B18014618461A2208302EF059FC10BD42
:1052700010B56A490278097A022A09D10A01511A3D
:10528000654A8B18014618460F2256302EF048FC0E
:1052900010BDF8B50021684601805E4F5E4DFEF7F7
:1052A000E3FE03210222C9036846FCF7A2FA68461E
:1052B00000885B4CA04215D0684604800F225949F3
:1052C00038462EF02DFC584E20213046FCF7E9FAE6
:1052D0000222B11E6846FCF7F8FA0F223146384622
:1052E000FCF7F3FA19263603022231466846FCF72A
:1052F00080FA68460088A04216D068464949048072
:1053000089221C3128462EF00BFCB41C202120469B
:10531000FCF7C7FA022231466846FCF7D6FA892222
:1053200021462846FCF7D1FAFEF7E7FEF8BD10B596
:10533000FEF79AFE20213D48FCF7B3FA00F0C0FBCF
:1053400010BD10B5FEF790FE20213848FCF7A9FAF1
:1053500020213548FCF7A5FA00F0B2FB10BD38B5A6
:10536000002069460880FEF77FFE0F222E4929485B
:10537000FCF73FFA89222D492748FCF73AFAFEF755
:10538000BCFE254983314A7808781206121402437C
:10539000274802818A1E54791379220612141A436F
:1053A00042814B790A79190609141143818138BD6C
:1053B00038B51B4869460880FEF756FE0324E4030F
:1053C00020212046FCF76DFA022221466846FCF7B0
:1053D0007CFA0F22A11C0F48FCF777FAFEF78DFE2E
:1053E00038BD38B50E4869460880FEF73DFE1924E1
:1053F000240320212046FCF754FA02222146684665
:10540000FCF763FA8922A11C0348FCF75EFAFEF759
:1054100074FE38BD88090800A40908002C0808009B
:10542000DA840000A87D00000280010002900100E3
:10543000C4900000F8B5134615460F4606460833DB
:105440003222362170482CF0B3FF040012D008211C
:10545000A171E6716D492046098821801B21618078
:10546000A91CA1802A46394608302EF059FB204657
:105470002CF0B6FFF8BD70B50D4606460D2332225E
:10548000362161482CF094FF04001ED0A571022043
:10549000E07103202072A11D5D48032E16D0042E5A
:1054A0001AD0052E11D1806AC91C00F08FFC112082
:1054B00056490988218060800720A08020462CF072
:1054C0008FFF54488168491C816070BDC06AC91C47
:1054D00000F07CFC0B20EBE7006BC91C00F076FCB5
:1054E0000E20E5E770B50D4604460F233222362123
:1054F00045482CF05DFF002827D0821D85710221D0
:10550000C171032101724249002C1FD0012C2BD004
:10551000022C37D0062C18D10B231146D370002350
:10552000137116235371002393712122CA710B72D8
:105530001421364A128802804180092181802CF092
:105540004FFF34488168491C816070BD0C88D4705D
:10555000240A14714C885471240A94718988D17179
:10556000090A11720221E4E7CC88D470240A14716C
:105570000C895471240A94714989D171090A1172F4
:105580000521D6E7CC6FD11C0B46D470240A1471C8
:105590001F4980310C885471240A947189881971CB
:1055A000090A59710821C4E710B50C4611233222AB
:1055B000362115482CF0FCFE002823D0821D847172
:1055C0000221C171032101721149CC6E4472240A77
:1055D00084720C6FC472240A04734C6F4473240ADF
:1055E0008473896F5172090A9172084A14211288D2
:1055F000028041800B2181802CF0F2FE05488168F9
:10560000491C816010BD000004D800001817080074
:10561000AC0708006C07080010B50120FDF7C3FFB8
:105620000120FDF7BBFF0120FDF7B3FF0120FDF7CF
:1056300054FF0020FEF7F0F90020FEF7E5F9012005
:10564000FDF760FF0720FEF7EFF90020FEF72EFAC6
:105650000020FEF727FA0020FEF720FA0120FEF7CF
:10566000FBF90020FEF712FA9620FDF77EFF10BD31
:1056700010B50120FEF7C7F8FFF7CEFF0220FEF7B6
:10568000C2F80320FEF7BFF80120FDF7D6FF022085
:10569000FDF7ABFF0420FDF78BFF10BD10B5002018
:1056A000FDF7ADFF0020FEF7BBFC0020FEF7B0FCCD
:1056B00010BDF8B506461A21FB4FFA4C4843C519F0
:1056C00020460C38007A0835022802D1204601F025
:1056D000F6F83001801BC1194331487D0A7D000274
:1056E0001043802290430875030A4B75A38F134023
:1056F00018430875000A48752089A870000AE870E8
:10570000A0892871000A6871208AA871000AE871CE
:1057100000210C224A431319062200204A43521941
:10572000860047009E19B68AD7193E72360A401C79
:105730007E720328F4DB491C0329EADB208F6870A2
:10574000F8BD10B572B6FFF7A9FF0220FEF772FB95
:105750000020FEF758F80320FEF755F80020FDF76B
:105760006BFC62B60020CF49CC39087010BD10B573
:10577000FEF735F9FEF737F9FEF739F90120FDF7A5
:10578000ACFE0020FEF748F90020FEF73DF90120AD
:10579000FDF7B8FE0120FDF755FF10BDF8B5C24E6C
:1057A000FF211C3E5531701ABF4C00902EF0D1F9EC
:1057B000BC49727ACC39084603230027C030002A3E
:1057C00008D0012A10D00127022A08D0032A03D0CA
:1057D0000372F8BD037208E04F870A238B87B37A00
:1057E000002B01D00223F5E7077204230B87AD4994
:1057F0001039C1600161007A0101091A09194331A8
:105800004B7D097D1B020B43A64934310B81032AD2
:1058100000D002E0402293430B81002804D00128ED
:1058200005D0022827D10FE0627A8A8025E00A7A23
:105830005206D50F6822125B8A815234627E237E23
:1058400012021A43CA8116E00A7A5206D50F22467E
:105850005F34637E267E1B021E3233438B814332CC
:10586000537E167E1A023243CA81627F237F12065C
:1058700012141A430A82002D01D000F04CF900984E
:105880008A4A017889005158001D8847F8BDFEB545
:105890000020844D844E0190CC3D1C3E36202CF0DF
:1058A00008FF834C022802D06420216960E00520B3
:1058B0000007808A400701D5FDF7C1FA794FCC3F38
:1058C0007868401C7860384639782030009000298C
:1058D00025D0012928D002294ED004294BD1FFF729
:1058E00030FFFEF797FD01202169FDF71FFAE070F8
:1058F00000203870688F3C463434002874D0002073
:105900006887FFF7D6FE01207072FFF76AFDFFF788
:105910004FFD012221460620FFF78CFD97E0007D18
:10592000002823D0012038705E482C21CC382EF07E
:1059300010F9FFF733FFB07E002801D0FFF7E0FB3E
:10594000FFF76CF90920FDF75EFFF07D002802D01B
:105950000120FEF711F9FEF7E1FCFFF708FF0A202E
:105960002169FDF7E3F9E070022064E00A20216973
:10597000FDF7DCF9E070FEBD32202169FDF7D6F9B4
:10598000E070009CE07900280AD0464A5C3A114653
:105990000839081DFDF742FD0020E071012001904B
:1059A000307E00280AD0B179A0792EF07CF8002949
:1059B00004D10120FDF740FB0120E071A079401CDB
:1059C000A071A8680C2810DA0198002810D00421D2
:1059D0000320FFF750FD05210420FFF74CFD0621B1
:1059E0000520FFF748FD03E027E06869401C686177
:1059F000288F002801D0401E2887688F002816D0E5
:105A00002848B17A3430002902D0012906D00EE0AE
:105A1000407AC0090BD0002020750BE0C08F2549CB
:105A2000884204D1A88F0028F5D0401EA887207D89
:105A30000028A0D104203870FEBD707A022806D15B
:105A400018480C38007AFFF734FEFFF7CAFCB07E26
:105A50000028F1D00020B076174840680028EBD02D
:105A6000FFF7BFFC012221461220FFF7E3FCFEBD39
:105A70000C4810B52C21CC382EF06BF80C4C0F498B
:105A8000C8202161FDF752F90649E0700120CC39A8
:105A9000887000224A6004491C39CA760649486069
:105AA00010BD000038080800A4090800C0800000EC
:105AB000AC900000FF030000C49000008F5800006D
:105AC00010B52F4CFFF7E5FBFFF749FCFFF785FB0F
:105AD000FFF77CFBA17D607DFDF731FFE07DFEF7E8
:105AE00094F9207EFDF79FFBFFF7D8FDD8E710B5AE
:105AF00000F0AAFE00F0AEFE00F0A0FE02210020A1
:105B0000FBF7B7FD00210846FBF7B3FD012100209C
:105B1000FBF7AFFDC4E71A22F0B55043184A194904
:105B20001C328218D07A937A0006001418438860D9
:105B3000507B137B000600141843C860D07B937B16
:105B4000000600141843086100200832062444436C
:105B5000A5180C240023444366185C002C19677AAE
:105B6000247A3F063F1427439C0034195B1C67616D
:105B7000032BF2DB401C0328E8DB50780887F0BDDC
:105B80008809080038080800FEB5002006460546CA
:105B90000746824C00900294814820340190D7E05F
:105BA000142148437F49095C94292BD006DC8429C1
:105BB00022D0882922D08C2904D121E0982924D010
:105BC0009C2927D0009900293CD0764914234018FD
:105BD000428873480127C038028062795A435218BC
:105BE0009288428062795A435118C98881806E48F0
