:020000040000FA
:1000000000980000A5040000AD040000C504000035
:1000100000000000000000000000000000000000E0
:10002000000000000000000000000000DD040000EF
:100030000000000000000000F5040000F7040000CC
:10004000AB1F0000932000000D3103008120000051
:100050000D2000008D310300A5200000B32000001A
:10006000F90400004F1A0000F3200000AD31030036
:1000700057810200F9040000F9040000F9040000AF
:10008000F9040000F9040000F9040000F90400007C
:10009000F9040000F9040000F9040000F90400006C
:020000040000FA
:100160003200000019060000B31C000077230000D5
:10017000000000000000000063800200BD8002005B
:10018000250A0000FB80020019810200358102006F
:100190005D810200651E0000BF0A0000110A000018
:1001A0001B0A000000000000000000003F000000EB
:1001B000F48B000000040000040E08004801000059
:1001C000F809080000040000580F0800200500008E
:1001D000000000002000000048000000580000005F
:1001E0006800000004010000160100002801000062
:1001F0002E010000202A00008E2E000001000000C9
:10020000881300003D1D0000E9600200FD9302001C
:100210002311000019280300A574020061050000E5
:1002200003000000D5200200A1230000040000000C
:10023000D74902000F490200930B000063910200AE
:10024000B7910200BF910200078202007182020092
:10025000E8610000AD830200938402004185020042
:1002600015860200378602005F860200758602004E
:10027000F9870200258902005D8A0200D38C020002
:10028000098D02000F900200438D0200278E0200AC
:10029000F98E0200478F020087090000D58F020007
:1002A00049510200775102002F5202001000000055
:1002B00020030000803E000000000000000000005D
:020000040000FA
:1002C000504600030003983A6400F401B80B000C98
:1002D000B80B120030003000CD009A01120024004B
:1002E00030006400B0001800280012001200D0078F
:1002F0000000FFFF00000000000000000000000000
:100300001F00000244413134353833000000000042
:1003100000000000000000000000000000000000DD
:0403200000000000D9
:020000040000FA
:10034000FFFF010000C201000000000000000000EB
:100350000000F40101000104070A0302A72E0000B7
:10036000000000000000000000000000000000008D
:100370000000000000000000000006FFD200B1B243
:10038000B3000000000000000000000000000000BA
:1003900000000000000000000000496F542D444B95
:1003A0002D52415700000000000000000000000036
:1003B000000000000000000000000000000000003D
:1003C000000000000000000000000000000000002D
:1003D0000000000000000000461900CAEA80D007B3
:0403E000064064323D
:020000040000FA
:100440000348854605F0B8FA00480047C720020077
:10045000009800000F4906200880FF200E49013057
:1004600008600E4988683E2290432E308860002242
:10047000052000070280018A0F231B021943018215
:1004800001210748C90404C1401E0028FBDA62B6F6
:10049000704700000034005080E100E0003300505D
:1004A000FF0B00001548804715480047042071469F
:1004B000084203D0EFF3098012490847EFF30880A0
:1004C0001049084704207146084203D0EFF3098021
:1004D0000D490847EFF308800B490847042071468F
:1004E000084203D0EFF3098008490847EFF308807A
:1004F00006490847FEE7FEE7FEE700005504000056
:100500004104000029050000110500009D0C0000B9
:100510000349C8200880034908204880FEE70000FE
:10052000003100500033005005200007018A0422EA
:1005300011430182018A0222114301820189402272
:1005400011430181054A01211160418A0122890874
:100550008900D203114341827047000080E200E02D
:1005600070B516460C460546012802D00C2D26D142
:100570000DE006222149224833F0FDFA00281ED062
:1005800006221F49304633F0CBFA062012E01D4DFB
:1005900029680878C00610D52078202803D20020CA
:1005A0002070042070BD0A7E30463A3133F0B8FA2C
:1005B0002868007E2070002070BD012070BD32468A
:1005C0002146284632F007FA70BD70B50E480F4933
:1005D000C405228880252A4322800D4A53891B079F
:1005E00001D4401EFAD20B4A0120106006220448B2
:1005F00033F096FA2088A843208070BD383E03006F
:1006000084140800C0060800A0860100D47F0400FE
:10061000200000500080004008B500F05DFA05257C
:1006200000242D07C826654F09E004216846009480
:1006300026F07BF9002817D000F0B3F914E02889E0
:10064000000611D501208007006B00040CD432F0A5
:10065000B7FBC00708D1042031F056FD009032F0FE
:10066000B3FB00980028E0D172B601F091FD042898
:1006700006D002280BD0032809D0012810D010E0A2
:100680004F480078012801D0032000E0022000F04C
:100690000BF830BF4B490A69042082430A6100E02D
:1006A00030BF62B63E80CAE7F8B504466846052505
:1006B00004702D07288A0421084328824248434FAA
:1006C000C0690126012811D9032C18D132F08DFD03
:1006D000002814D032F0B2FD002810D0032031F0F1
:1006E0007AFD00280BD00220387009E0032C06D1D7
:1006F000032031F070FD002801D03E7000E002249C
:1007000068460470204600F023F800203049022C8F
:10071000087001D0032C1AD12E494A88FF230133D7
:100720009A434A806A882C4B1A804A8832434A800E
:1007300000900099491C00911429FADB6989890805
:100740008900491C698169894906FCD56880F8BD22
:1007500010B5022801D0032828D11A490B690422B8
:1007600013430B61052109074B8A2024A3434B82C5
:100770000B8A022423430B8210230228488A16D0B6
:10078000904348827F220888920180242043088079
:100790000020401CC0B20A28FBD3488A1843488274
:1007A0000E48521E42610888A043088010BD1043C5
:1007B0004882488A9843488210BD000000310050AA
:1007C0005402080000ED00E0E0010000C40608004B
:1007D000CC14080020000050CE1408000080004017
:1007E0007047000030480178002902D08021417014
:1007F00070472E49002008702D49C87070472A485C
:100800000178002902D081214170704727490120D9
:1008100008702749C870704723480178002902D022
:10082000822141707047214902200870204901202F
:10083000C8707047002804D0012803D0022802D1D4
:10084000EAE7CFE7DBE7704718490020097800297D
:1008500004D0012903D0022900D1022070470120D1
:10086000704711490120C87070470F490020C870B7
:1008700070470D48C07870470020EFF310810122C7
:1008800082F31088052212071289120605D409483E
:10089000028901231A4302811846002900D0012150
:1008A00081F31088704700008B1408005402080080
:1008B000C60608000033005070B505200007018906
:1008C00030229143018101898022114301810189F4
:1008D00089088900491C0181018908231943018184
:1008E000B1490C8814430C80448A9C434482058996
:1008F000402425430581058A0426B5430582858A5F
:10090000AD07FCD5A94E002575600E8801252E4344
:100910000E804D89AE05A64D0E8801D52E4300E010
:10092000AE430E800D887826B54328350D800D889E
:10093000062635430D80458A1D4345820B88934327
:100940000B800289A24302814889800503D596491C
:10095000052060318880012080070168821591435D
:100960000160944801683F22520291434214891861
:100970000160016802031143016070BD10B58E482B
:1009800032F0D5FA10BD70B5874C6088C006050FEF
:1009900028F002FB61881E2291436A0011436180A6
:1009A00070BD70B585490120C863C86B0028FCD1B3
:1009B00001208007C169824800220368994200D261
:1009C00002607A4C012663787E4D002B04D0627061
:1009D000016028F0DEFA11E0026819238A1ADB01AF
:1009E0009A4214D3016028F0D4FA2988884201D9A8
:1009F000411A00E0091A89B2182908D32880012079
:100A000028F064F928F09CFA002800D1667070BDC7
:100A100008B525F008FF009008BD08B525F00CFFCB
:100A2000009008BD08B5684901204A695206D20FF6
:100A300013D04A699206D20F0FD000220A610092A9
:100A4000FF225F32009B5B1C00939342FAD34969FB
:100A5000C907C90F02D027F02EFB002008BD70B5D2
:100A60005A4900200A78002A0DD0544A0120D06348
:100A7000D06B0028FCD101208007C069544A12685D
:100A8000904201D2012070BD00200870FFF7DCFE0B
:100A90000824504D022803D0FFF7D6FE012809D1C3
:100AA0002C8005200007818A8906FCD4418A802297
:100AB000914341826C80002070BD0020704710B5CA
:100AC000454900200860FFF759FF01208007016BAE
:100AD00049004908016310BDF8B501203B493F4C6E
:100AE0000870C8252580002666803A480827478078
:100AF00021F030F800F0A6FD0D207901800132F0E0
:100B000066F8FFF762FD02F0B4F9012032F0FFFF52
:100B100001F032F8FFF7D0FE042000F03EF8072085
:100B200000F03BF80A2000F038F8062000F035F815
:100B30000B2000F032F8012000F02FF8022000F026
:100B40002CF8002000F029F82548006832F0BDF8A4
:100B500000F087F800F043FDA005016882151143FD
:100B60000160FFF73FFE01F0C6FE03F076FCFFF7E1
:100B7000A6FF05200007C6820B494888E022904363
:100B8000A0304880012028F03FFA25801148478096
:100B9000F8BD10B521F0F5F810BDC106C90E012051
:100BA00088401049086070472000005090140800E9
:100BB0000010000000020040E2040000C0000040FD
:100BC0007C04080078040800001000508A14080013
:100BD00014730000003300508C03080000310050F3
:100BE0000490002080E200E0FFB581B01F460E4671
:100BF0004D780C78002031F05CFD042824D00028CA
:100C00001DD121E04148816E2E206043091888885B
:100C10000207120F130033F0F1F8070505050F0561
:100C20000F050F008204920E062A05D27278012A5F
:100C300012D0072210438880641C6407640F284682
:100C40006D1EEDB20028DDD13B463146039A019876
:100C500027F062F805B0F0BD204621F0D3FA00205D
:100C6000F8E770B52A480378021D0021294D07E0F6
:100C7000CC00165D002E01D12418A560491CC9B214
:100C80009942F5D370BD028908892349101A80B2B0
:100C9000884201D9012070470020704781692039BE
:100CA000897F082905D21B4A890010325158816179
:100CB0007047FEE71A48194901611A4941611A490A
:100CC00081611A49C1611A4901621A4941621A498E
:100CD00081621A49C1621A4901631A4941631A497A
:100CE00081631A49C1630E4819494030816019492E
:100CF000C16001201849C00608601849CA6912027B
:100D0000120ACA611449803908607047D802080085
:100D100004060800386300003075000094270300C3
:100D20000084004062B600DF28A30200704701DFA4
:100D30001CCA0200F8BD02DF40CB0200F5E703DF6A
:100D400084D4020004DF89B0941B030005DF00B5E2
:100D5000EC0C030070BD07DF80E100E000ED00E077
:100D600070B516460D46104631F0A3FC002869D038
:100D7000340A304631F09DFC012812D0A87A1E2892
:100D800011D029460A310E2845D019DC801E0300F7
:100D900033F034F80B255829582D58315839583D1F
:100DA0005800022070BD3146274831F07BFD0021FC
:100DB00020462AF00FF90221304631F039FC41E09B
:100DC00018283CD006DC102819D012282BD0162861
:100DD00038D130E0522822D0D22833D127E0204623
:100DE00029F0DEFB2EE0204629F0FBFB2AE020461E
:100DF00029F049FD26E0204629F0D5FD22E02046D5
:100E000029F047FE1EE0204629F0C4FE1AE02046E5
:100E100029F0F2FE16E0204629F026FF12E02046D7
:100E200029F079FF0EE0204629F0A5FF0AE02046D0
:100E300029F0DEFF06E020462AF024F802E02046F2
:100E40002AF066F8002070BD01280000F8B50D46B4
:100E5000064681002B48EA884458521C20686B895A
:100E6000018F294F51430091014640314A89C98978
:100E7000511A8AB2991A89B2B94214D29A4212D03E
:100E8000294624F0D6F82D892049009832F00BFE2F
:100E90002818801C4034E0823002401C80B20421BB
:100EA00031F0C6FBF8BD2821304623F0D3FCF8BD55
:100EB000F8B50546870013480C46C059C988006834
:100EC000114E024640325389D2899A1A92B28B1A35
:100ED0009BB2B34211D20B4E8A420ED024F09FF83F
:100EE000F05905225F30611C32F01AFE2802401CC6
:100EF00080B2052131F09CFBF8BD2821284623F063
:100F0000A9FCF8BD4C030800FF7F0000102700007B
:100F100070B50446007800250D2801D00A2200E0B3
:100F200002225A494B7A002B06D00D2804D0637C4C
:100F3000032B01D0432551E0097A8A4339D10D288A
:100F400009D00E2802D00F2803D134E0607C03289A
:100F500004D3402542E0607C0328FAD8A07C042812
:100F6000F7D20A2908D0607C012822D0022820D09C
:100F70006078032809D811E02FF081FE012806D1FE
:100F80006078032803D0002801D0492526E02FF0FF
:100F900076FE002802D160780228F6D83020035D62
:100FA00022462046E17C3132143000F019F8054623
:100FB00014E0422512E02FF062FE012807D160788C
:100FC000052804D1A01D2FF070FE0028DDD02FF0E1
:100FD00056FE002802D160780228D6D8284670BD77
:100FE000FFB5002086B001216A46117004460591C4
:100FF0000021002C06D0089D099A1F239A4234D95B
:10100000402032E01C23069D079AF7E76B185E78B4
:10101000330032F0F3FE1D261010101010101010C7
:1010200010262626262626262626262626261010A2
:10103000101010102600059B03E06F46FF5CB742BE
:1010400004D05B1E5BB2002BF7DA03E0002B01DB60
:101050004A2006E0059B6F46FE54059B5B1CDBB2F5
:1010600005936B5C491C5918C9B2914201D2002802
:10107000CCD0914202D04A200AB0F0BD641CE4B248
:10108000022CF9D20028B3D0F6E70000980508003A
:1010900070B5EFF31085012080F31088264821F009
:1010A0000EF90446002D1DD0012080F31088002C7D
:1010B00023D020462038C08B204988421DD1618929
:1010C000208931F012FB05000ED021461031A38992
:1010D00062892089A847002806D001280DD002285F
:1010E0000BD105E00020E0E7204631F0A3F904E051
:1010F000114821460C3021F09AF8EFF310840120BA
:1011000080F310880C480068002802D1012030F0DC
:10111000E5FF002C03D0012080F3108870BD002073
:10112000FAE710B5BC21064832F013FD054901204D
:1011300030F0B4FF10BD0000A8050800388300009F
:10114000040608009110000000B502790021130088
:1011500032F054FE0C34070735352035353535353A
:1011600027344279042A27D8C279530707D0520777
:10117000520F012A03D0042A01D0052A1CD18279FA
:10118000002A01D0012A17D1007AC01F0A2816D3DD
:10119000062114E04279521E0A2A10D30822427115
:1011A0000DE0407942070AD04007400F012806D0E1
:1011B000042804D0052802D00A2100E007210846AF
:1011C00000BDF3B581B001980C460102CA1D02238F
:1011D00032480E3131F0ECF80470019905460227CF
:1011E0002F488E00002C06D0042C16D0062C10D0D0
:1011F000072C3FD108E0815905224968897C1140BC
:1012000069708059C77335E008462DF09DF9687004
:1012100030E080590F21C1732CE0044680594068AA
:10122000417C012902D1007E01280FD001982DF0C8
:10123000E3F801210028A0590BD04268D07D002896
:101240001CD001281AD004280DD00FE000206870AF
:101250000DE04068C27D022A01D0042A06D1007C3C
:1012600002280BD102E0107C022807D06F70A15930
:101270000320C873284631F0B3F8FEBD6970F6E765
:1012800001460A780120042A01D9002070474978D4
:101290000029FBD00129F8D170470000021C000092
:1012A00028050800FFB589B00D4600206946059065
:1012B00008720B98000A00902DF09EF807460B98D4
:1012C00031F0F7F900287DD00B982978000A8400C6
:1012D000784E012963D0042904D0062948D0072973
:1012E00068D125E03059C17B032901D0042961D19F
:1012F000697800291AD040681022A91C32F010FC2D
:10130000002F06D03159C87B032807D0042808D005
:1013100050E03059C07B032803D04BE00B20C8734A
:1013200048E0052100982BF010FD43E00120B6E0D5
:101330003059C07B0E283DD100982DF005F90021D1
:1013400003E02A18401C9170C0B21028F9D3688AB3
:1013500069460883294606A808221431023032F073
:10136000DFFB06ABAA1C394600982BF015FF21E0E5
:101370003059C07B0F281DD1AA1C0A2100982BF0E0
:1013800094FE002F04D0394600982BF06DFE11E03A
:1013900000231A46394600982BF0EDFD0AE0012F94
:1013A00008D10B9831F085F901281CD0002801D014
:1013B000022005906846007A002811D002AA052173
:1013C000009800E00CE02BF070FE6846027A602086
:1013D0000243684602720123394600982BF0CBFD88
:1013E00005980DB0F0BD3059C07B0228E2D1687875
:1013F000002851D002210B9831F01AF930590722F8
:101400004068A91C173032F08BFBE878002804D123
:1014100030594068407C01283AD000982BF0F0FB0E
:10142000002837D0297A00982BF0FEFB002833D013
:1014300000982BF0EFFE012100982BF027FF0028E9
:101440002CD030594068417E00292BD0042929D066
:10145000C17E027D1140C17630594068017F427DD6
:10146000114001776846007A0028A7D1305902213F
:101470004268009817322BF018FE3059416840310D
:10148000897B002913D004210098FFF79AFE91E789
:10149000022004E0062002E0082000E00320694664
:1014A00008728BE70021C17630594068D9E70B21DB
:1014B000C1737FE72805080010B50C4622F0FCF93F
:1014C00021888A004F4989580968002902D04E4B6B
:1014D000C968995010BDF8B50E461046150A31F08E
:1014E000E8F8AC00474F002817D0142815D015286D
:1014F00009D038596030C07BC00606D53D2128464A
:1015000023F0A8F909E0022008E026F056FD0128A2
:1015100003D131462846FFF799FC00203959096864
:10152000002902D0384AC9681151F8BDFFB50F46ED
:101530001546110A334A8800125881B012681E46B7
:10154000002A01D0D46803E02F4A00231458135016
:10155000002C18D0201F42882C4B9A4213D10088AF
:10156000602810D12046403002898A420BD1808801
:10157000002808D0A068002802D0204624F07BF97B
:10158000204630F0A8FE33462A463946019822F01C
:101590004DFE05B0F0BD70B510460D46140A31F091
:1015A00088F8002819D0142817D015280BD0154911
:1015B000A00008586030C07BC00606D53D212046FB
:1015C00023F048F909E0022070BD26F0F6FC01285E
:1015D00003D129462046FFF76BFC002070BD70B593
:1015E0000B480378021D00210A4D07E0CC00165D70
:1015F000012E01D12418A560491CC9B29942F5D326
:1016000070BD00004C030800A414080038830000DB
:1016100004060800606500000520000701883022EC
:101620001143018001880322114301807047052086
:1016300000070188302291430180018889088900D0
:1016400001807047704710B5032800D10420174C63
:1016500040010019490008181A43C28010BD032830
:1016600000D10420114A4001801801228A40828062
:101670007047032800D104200C4A40018018012241
:101680008A404280704770B5064604981446002888
:101690000D46304602D0FFF7ECFF01E0FFF7DFFF19
:1016A000224629463046FFF7CEFF70BD003000507D
:1016B00008430121890303460B432E490B802E4B1F
:1016C00018430880092002434A80704729490A8844
:1016D0000F239B0100079A43800D02430A80704745
:1016E00024482649028802231A430280491E02D355
:1016F00002889207FAD400210181408970470AE0EC
:1017000000BF00BF00BF00BF00BF00BF00BF00BFE1
:1017100000BF00BF00BF401EF2D2704770B502226A
:10172000510204464E003046FFF7C2FF1420FFF777
:10173000E6FF002C01D0092000E00720FFF7C6FFDC
:10174000FFF7CEFF05460120FFF7D9FF0222002157
:101750003046FFF7ADFF002C01D0092000E0072044
:10176000FFF7B4FFFFF7BCFF4019024A00211180C8
:1017700070BD00000015005001400000A08601006F
:10178000784AD1609060704710B5012000F0FCF8F5
:101790000520000200F020F9C0B210BD70B5002491
:1017A000714DFFF7F1FFC00704D0641CAC42F8D3C1
:1017B0000020C04370BD70B5FFF7F0FF002815D1C1
:1017C00000F0E2F8684E0025062000F005F900243C
:1017D000FFF7DAFFC10703D1800701D5002070BDF4
:1017E000641CB442F4D36D1C322DEDD30020C043F1
:1017F00070BD70B506465B480D4680685119814240
:1018000001D9441B00E01446FFF7C8FF00281AD195
:10181000022000F0B9F800F0A9F8032128460906D3
:10182000084300F0C2F8002000F0AEF8002505E003
:10183000002000F0BAF830706D1C761CA542F7D37A
:1018400000F09BF8204670BD70B5054645480E4631
:10185000C0681446824200D984B2FFF79FFF002877
:101860001ED1FFF7A8FF00281AD1022000F08CF843
:1018700000F07CF8012130464906084300F095F855
:10188000002000F081F805E028786D1C00F08DF84C
:10189000641EA4B2002CF7D100F06FF8FFF77EFFB2
:1018A00070BD70B50D460446FFF785FF002802D0D5
:1018B0000020C04370BD022000F066F828062043D7
:1018C00000F08AF8FFF76AFF70BDF7B582B0254FC8
:1018D0000E460091F96814460D46304632F0E3F8A2
:1018E000401C6843451E002000F04EF8B868801B7D
:1018F000A04200D204462646002719E0009880192D
:10190000A84202D900982E1A761C0298B2B2C019C9
:101910000099FFF799FF002803D00020C04305B0CD
:10192000F0BD681C00900F48BF19C0682D18E61B59
:10193000A742E3D33846F2E710B5FFF72FFF0028A0
:1019400005D100F021F8B92000F046F8002010BDC4
:1019500010B5002000F018F8AB2000F03DF8002092
:1019600010BD000020900000400D030010B520487D
:1019700041780078FFF773FE10BD10B51C48417820
:101980000078FFF776FE10BD1A490A885208520007
:101990000A800A88FF2381339A43C00102430A80E8
:1019A0000888012210430880704710B511490023B0
:1019B0000A88D205920F012A01D9040C8C80488034
:1019C00008888004FCD50120C880012A01D98888B4
:1019D00003044888C01810BD10B50446FFF7C6FFC1
:1019E0002046FFF7E2FF0446FFF7C7FF204610BD81
:1019F00068070800001200508307FF22DB0E9A40A0
:101A00008907090E994000280BDA0007000F0838F3
:101A1000830852489B001818C36993430B43C36162
:101A2000704783084E489B001B1818689043084372
:101A3000186070474B480078002802D00020C0434F
:101A4000704701204849400208600020704710B5E7
:101A5000FFF7EDFD052109078888424AC30B1046B0
:101A600018D0424B1C88640714D51178890710D50B
:101A700019880222114319801988490849001980E0
:101A80004468002C05D0985E0421595E0A229A5EB3
:101A9000A04710BD8988C906FBD51178C907F8D0C1
:101AA000334901228A800A8880239A430A80806809
:101AB0000028EED0804710BDF8B52A4C638005247D
:101AC0002407A58810263543A580294C00252581AB
:101AD000D2B262802A46D7000546FD40EEB25500DC
:101AE0002D196E810E46FE40F6B26E82521C042AFB
:101AF000F1DBE589032212020004800F9543000206
:101B00000543E581E08A0904890F904309020843EF
:101B1000E0820125A58017486E0206609806800EB7
:101B20008030208029460920FFF766FF0D480178A4
:101B3000294301700C4880380660F8BD09480178D7
:101B40004908490001700A480121818001888022EA
:101B5000914301806EE703498860704700ED00E023
:101B600000E400E0BC14080080E100E00002005046
:101B70000001005080E200E030B58E498E48CA0571
:101B8000148880231C4314808C4C65892D0701D454
:101B9000491EFAD28A4C012121608A4C0188218099
:101BA00089494088088010889843108030BD002003
:101BB00070477047704770470020704701218907C0
:101BC000086B0722104308637047704730B580499F
:101BD0007E4808607F494C2008807E4C7E4B203C2C
:101BE00023827F497D4848807F487E4901807D4926
:101BF00019314180222141818121890001827B4963
:101C000041827B490183794911314183764A79497F
:101C1000203291804122784912018A80774ACA8015
:101C2000764D1035CD810A824A82921C8A826A1FC3
:101C3000CA82FF2246320A83714A4A83714A592175
:101C400011807049704D20310D8043254D806F4DBE
:101C50005582D5228A80FF22D3320A816C4A4A817A
:101C60006C4A8A816D4A6C4911805A496C4A6039C4
:101C70004A80CA8810252A43CA80634A0A3A0A81E0
:101C8000544D684A403D6A80638208224A814E4929
:101C90005C4A0988403A11824A49634A098811809E
:101CA00062490978002901D03021018330BD400804
:101CB000704700B58BB05E4A42625E4A82625E4AFD
:101CC00042615E4AC2625E4A02605E4A02625E4AE7
:101CD00042605E4AC2613E4A3C48002110603C4876
:101CE0004038026B03129A430263426B1F231B04AA
:101CF0009A4303231B04D218426355480268C31257
:101D00009A430260026803139A4302606846415492
:101D1000491CC9B22829FAD3014628224D4831F07E
:101D2000FFFEFFF753FF27F034F94B4908800020EE
:101D300026F0CCFF27F004F90BB000BD10B5244A03
:101D40000F2122480902106021484038426B1F23AE
:101D50001B049A4303231B04D21842630006026843
:101D6000D208D20002600520000702899208920082
:101D7000521C0281028908231A430281028A0A4303
:101D800002820E484189890504D501887822914351
:101D900008310180FFF71AFF3048006F00780028F3
:101DA00004D02F4800880B496039C880012027F0F3
:101DB0002BF910BDA0860100087F04002000005010
:101DC00000800040560208004A0308004C055407F2
:101DD00080000040602C00507F7F0000AC29000094
:101DE00000220050090900000024005022040000D5
:101DF00030D00000EE110000002500502E0200003F
:101E000044200000402800500D95000002420000D0
:101E1000E4DC00001092000053780000002A00501B
:101E20008B1000009DD5000000260050C81408004B
:101E3000AF1B0000B31B0000B91B0000BD1B00005E
:101E4000B51B0000CB1B0000B71B0000AF1C00003F
:101E5000000200402000080078040800E0010000B3
:101E60005204080010B50124A407A06BFEF7D5FDAD
:101E7000B84931F018FE27221201511A00D1012170
:101E8000B54A50601160206B0821884308432063E5
:101E900010BDF0B587B000246A461472AF490A68D5
:101EA000002A5DD0114640318B7C002B58D0AC4BC2
:101EB000012813D0108D1A460007803A0125126FB1
:101EC000C00EED044019105A6A46800B107110794B
:101ED000002845D01079012802D00DE0D86C09E027
:101EE00008894E2568439F4D1A684019105ACA7CCC
:101EF000000A801A6A461072107A002829D09A4A7D
:101F00009948603A007B956E05E02E224243AC185A
:101F1000401C4007400F6F463A7A561E3E72F4D27C
:101F2000A2785406640E3C713A79D406E40E3C76ED
:101F30009A692E2358438B4B463BC018105A3A4699
:101F4000C006C00F38713879002802D1107E0028F1
:101F500006D0087D002803D1C87D08221043C8752B
:101F600007B0F0BD10B5052000074189890708D0EA
:101F700041898908890041817C494A885208520078
:101F80004A800189802211430181018A0422914300
:101F90000182818A8907FCD530F064FE0120800728
:101FA000016901694907FCD510BDF8B5704EF0888C
:101FB00000282AD101200527F0803F077889800773
:101FC00020D0B88A400701D500F053FF674D28881C
:101FD000802108432880674CFF20608004202080F7
:101FE000FFF71AFB7D21C900E088A2880004801851
:101FF0008842F9D905202080B088788029888020FF
:10200000814329805C4910200860F8BD70B5FFF756
:102010000EFBFFF7A7FF0026554C0520E6800007C2
:10202000418A8022914341825448018949084900EC
:102030000181D005816904221143816130F04DFF97
:102040004D4910208031012508601FF06AFE30F0F4
:1020500038FE464826704089800510D560780028F3
:102060000DD1474865700088C00708D10120FFF7EF
:1020700055FB8B218900884201D90220607070BD18
:1020800010B531F047F800F05DF8394901200870CB
:1020900010BD10B501208007008A000601D500F0B0
:1020A00051F810BD10B50120FFF7F3FE24F0C5FA7A
:1020B00010BD10B50124A407208A000718D50220FE
:1020C000FFF7E7FE24F0B1FA206840004008610005
:1020D000084320602068C00FFCD11F488030016891
:1020E0000906090E01D00121016021490420087070
:1020F00010BD70B52348008885062348AD0E44689E
:102100001748006F0078002802D1284626F0F9FD14
:102110001E480089164EC00507D520060BD5E007DE
:1021200009D0284626F053FF03E0200603D5E00738
:1021300001D003203070200403D5E00501D5022032
:10214000307070BD10B50A490120887024F065FA1E
:1021500010BD000071020000400000406C03080048
:10216000E00100004A000800380308002000005089
:10217000CA1408000016005000E200E000330050CE
:10218000001500500020005000020040002C0050BC
:10219000FEB55B4C0026606D37460090FEF769FB8C
:1021A000584D002802D12879022801D10020009042
:1021B000FEF755FC00280ED12FF05EFF00280AD054
:1021C00050480126C078002805D005252D07A88A8B
:1021D000C00701D0042690E030F0F2FD00287DD148
:1021E00049488069002801D0606D00904548009CF6
:1021F0008178684630F094FB00287ED04148817891
:10220000684624F092FB002877D00020FF2100943C
:102210002D3101240190A407206A8842FCD339485B
:102220008178684630F07CFB002866D0354881789C
:10223000684624F07AFB00285FD00098002804D07C
:102240000199002901D0401E0090304900220978F0
:102250008320022900D1B5202D490B78012B00D114
:1022600021300A70E26B0F21920A92020A43E26364
:10227000E16B284A800211400143E163E06B3721A2
:10228000C002C00A89050843E063009804260028BC
:1022900001D0001D0090C002642131F004FC002830
:1022A00000D0401E17490979002900D0012124F0EF
:1022B0000AFB1948C06A8047FEF7FFFB002808D0D8
:1022C0002888302108432880288803210843288053
:1022D0000127206B0004C00FFBD000E00DE00F4889
:1022E0000168C905FCD5002F01D0FFF7A0F930F037
:1022F0008DFC28898021884328813046FEBD00005E
:1023000060020000C6060800A80508005402080084
:10231000CB140800FF03E0FF1C0708000002004088
:10232000F8B514460F461E46054642880188062326
:10233000204630F03DF8044628792CF052F82080F1
:1023400027716680204630F04BF8F8BD70B5144612
:10235000428800790D46010204231C480C3130F0FC
:1023600027F8002D01D0132100E0122101704480D4
:1023700030F036F870BD70B50024154D09E04019F5
:102380004069002803D0641CE4B2804701E0641C6B
:10239000E4B220461C214843295CFF29EFD170BDDF
:1023A000F7B5009800240F46094E050208E02B46B9
:1023B0000343641CE4B2FAB2029900982BF0EAFFDE
:1023C0001C206043305CFF28F1D1FEBD0D300000C1
:1023D00014680000FFB5002685B0154641486A46DE
:1023E000344637461082002904D0042203A831F075
:1023F00097FB02E00020C0430390002016E0039901
:102400000141C90710D00F99020151180A79022A17
:1024100002D0102A05D102E0761CF6B201E0641C5D
:10242000E4B20989C9198FB2401CC0B2A842E6D3F0
:1024300000940023324601970E99059827F02AFA56
:1024400000242AE003992141C90724D00F992701CC
:102450007E18F18802A8009101900F983279C35933
:1024600005983189008827F095FA002813D17189E1
:10247000002910D03079022807D10F980222C059C4
:1024800004A931F078FB00280DD0684671890089D5
:10249000F26827F06BFB641CE4B2AC4201D2002866
:1024A000D0D009B0F0BDF0684078FF2809D0089975
:1024B000002906D005996A4609781289511A089AA6
:1024C00011546A461089411C11807189F26827F005
:1024D0004DFB0028DFD16B4602220121188927F02D
:1024E00048FBD8E70328000002464B880020022B57
:1024F00001D00D2070470989002A05D00029F9D0A4
:102500000129F7D0812070470029FCD00229F9D198
:10251000704770B586B0044627F01DFA05461D4E7B
:102520000EE06A4604A9204627F04CFB6846008866
:10253000B04203D1641CA0B206B070BD641EA4B248
:10254000A888A04202D8E888A042EAD20020F3E797
:10255000F0B585B0044627F0FEF90E4E0546FF366D
:102560000C4F0FE06A4604A9204627F02BFB684673
:102570000088B04202D1204605B0F0BDB84207D075
:10258000641CA4B2A888A04202D8E888A042E9D27C
:102590000020F1E7032800000C2250430E4A10B53A
:1025A00080188078FF2803D0088800F027F810BD35
:1025B00001F0B3FF10BD10B501F0AFFF10BD10B5B5
:1025C00000F0F1F9002801D001F0A7FF10BD10B50F
:1025D00001F0A3FF10BD0000EC1408000021F64A32
:1025E00005E0834201D101207047491CC9B20C2388
:1025F0004B43D35CFF2BF4D100207047F8B5054660
:102600000024ED4E0AE080198168002904D0641C82
:10261000E4B22846884701E0641CE4B220460C215D
:102620004843315CFF29EED1E34E0024443609E0F3
:102630008F19B968002903D0FFF7D0FF00280AD00E
:10264000641CE4B20C216143705CFF28F0D1DA4EC7
:1026500000240C3610E0641CB968E4B228468847B0
:10266000F0E780190169002904D0641CE4B228460F
:10267000884701E0641CE4B220461C214843315CD9
:10268000FF29EED1F8BD70B5CB49CC4C0E4644368F
:102690000D460C350DE052185268002A07D0C2B220
:1026A0000C235A4351184968401C60702DE0401CAF
:1026B000607060780C2242438B5CFF2BEBD10AE008
:1026C00089194968002903D0FFF788FF002809D03D
:1026D0002078401C207021780C204143705CFF283A
:1026E000EED117E020780C21414389194968401C3C
:1026F00020700AE04919C968002909D0C1B21C221A
:1027000051434919C968401CA0708847002070BD1A
:10271000401CA070A0781C2141436A5CFF2AE9D1CB
:102720000020A07060702070012070BDFFB581B0E6
:1027300005461E46144618460A9F03F08DFA00907F
:102740002E7029463846009A30F042F90246C820D9
:102750009B4908239B4E002A02D008807380FEE725
:102760002A78A24202D908807380FEE7A24200D3F1
:1027700022462A700099029831F0D2F9009803F0AD
:10278000D5F905B0F0BDF0B58C4899B0C068002807
:102790005CD1502332220D218B482FF009FE0446D4
:1027A000864E0025F0600E2020706570A580A02068
:1027B000A081E0810720207401206074A574214667
:1027C0000B20143100901791481E20231C220390E7
:1027D000FFF7ACFF21460C2031310090481E20232A
:1027E0001F2218910590FFF7A1FFF0681A22C17C03
:1027F0002030511ACEB2007C1D21081AC7B268469B
:1028000005743046384321D03E206946087406AA34
:1028100004A9022030F0DCF80028684601D00574D5
:1028200014E0017C002911D08E4205D3E27C179878
:1028300006AB1218039807E08F4207D32034227C9E
:10284000189806AB1218059800F0DAF85B48C068D3
:1028500019B0F0BD70B5594D84002D1D29590029BE
:1028600011D101020A23322258480E312FF0A0FD67
:102870000A210170285120218180102141800421EA
:10288000C180C8210181285970BD70B54B4DA86821
:10289000002821D14C48222332220D210A382FF062
:1028A00087FD032101700446A8600A204249607038
:1028B00010222339A01C31F033F9002161822175E7
:1028C00061752020E0821022228360830420A0838F
:1028D000C820E08320342170A86870BD3A4810B544
:1028E000012332220D210B382FF062FD02210170ED
:1028F0002FF076FD10BD1CB530480C21183031F09A
:1029000028F901246846047004716A4601A935203B
:1029100030F05EF8002801D0684604702749002096
:1029200018310C2242435218401C00061471000E4C
:10293000F7D02149322050312FF025FE00213220DE
:102940002FF076FE1CBD70B50D4601021F481446DF
:102950002C2332220C380E312FF02AFD0146203173
:102960000D724C722FF03CFD70BD0CE710B5FFF7F7
:102970000AFF2FF035FD11490020C86002213220E6
:102980002FF056FE10BD10B50446FFF763FF2FF081
:1029900027FD0A4A0020A100121D505004213220B8
:1029A0002FF046FE10BD10B5012132202FF040FE61
:1029B000FFF769FE10BD66E688680000D4140800C1
:1029C00000310050003300500E3400000E3800007B
:1029D00010B5FFF75AFF2FF003FD12490020886061
:1029E00010BD104910B50020FF23243101244200FE
:1029F0008B545218401CC0B254700A28F7D310BD33
:102A000070B50646481C1070092015460C465070DB
:102A100022461946A81C31F083F83078A41C00190E
:102A2000307070BDD4140800FEB51C46089B072604
:102A3000594D6F4668C71346224600F0D2F8FEBDD6
:102A400010B510462FF035FE002809D1012332229F
:102A50000D2152482FF0ACFC012101702FF0C0FC79
:102A6000002010BD70B54C4C0D78241F0F2D13D0D5
:102A700008DC012D12D0022D0AD0032D14D00E2D0A
:102A800006D117E0102D07D0112D05D0122D03D03F
:102A90002568002D00D0A847002070BD4878002888
:102AA000FAD1FFF795FFF7E748780028F4D1FFF750
:102AB00086FDF1E7487801F0E5FCEDE7F8B51C4646
:102AC00010460E462FF0F5FD022822D1250A0C20D3
:102AD0002F46474332483C18A570FF2D15D00121E1
:102AE000E170052132202FF0A3FD2D483188C1531C
:102AF000707A60713146A01D06220A3131F010F85B
:102B0000002211462846FFF71EFF3146284601F0F5
:102B100066FC0020F8BD70B50C46097816460A29F7
:102B200009D01D4D2D1F2968002902D021462C688F
:102B3000A047002070BD10462FF0BBFD0428F8D13F
:102B400060780028F5D1052130462FF071FDF0E7BF
:102B500010B510460C462FF0ACFD032803D0052815
:102B600001D0042802D1204601F05AFC002010BDFB
:102B700010B510460C462FF09CFD012808D1207896
:102B8000002805D1FFF717FF002801D0FFF71FFD30
:102B9000002010BD00207047906B00000234000040
:102BA000EC140800FFB583B01E4F002401AEA00056
:102BB00000963D5803A80FC8A84700280ED0641CF3
:102BC000042CF4D3174C241F2068002803D003AD35
:102BD0000FCD2468A047002007B0F0BD68460079FB
:102BE000FAE7F8B5089C9C46079D0346002C16D0D2
:102BF000641E14D40C4FE600AE5B9E4201D0BE4270
:102C00000BD1E3005B195C68002C08D013466246C8
:102C1000A047069908700020F8BD641EEBD501207E
:102C2000F8BD0000DC6B0000FFFF000010B50520C0
:102C300000070089000608D501208007006B00040A
:102C400003D430F0BDF8C00701D0002010BD012032
:102C500010BD000070B50F49049C4118052901D32F
:102C6000012070BD00F00DF80025002806DB0A4A9F
:102C700081005058002801D0555080472570002011
:102C800070BD04494018052801D240B270470020A9
:102C9000C0437047F337FFFF14150800704700006A
:102CA00070B5464A00248318049D002B1DD0444A69
:102CB000012B06D04149891E41180A291ED3012043
:102CC00070BD0978481E092808D88900091F515885
:102CD0003C4B994221D1800014501EE03A49C82053
:102CE00008803A4908204880FEE74A880878384931
:102CF000401880B232212FF095FD0EE02F49491E79
:102D00004018C0B2411E092907D8800081188039B7
:102D1000C86F002801D0CC6780472C70002070BDA0
:102D2000F8B50446401E092819D82548A1000D18F9
:102D3000803DE86F002812D0224EB0420FD0244FC1
:102D40003221E01980B22FF0ADFD3222012311466D
:102D50003846EE672FF02CFB04702FF041FBF8BDD6
:102D600070B50546164A00208300D358002B04D0C6
:102D7000401C0A28F8DB002070BD8300401C0406BC
:102D8000D150240EF7D0FFF751FF002807D010488C
:102D90002A46201880B232212FF044FD0CE0FDF7C6
:102DA0006BFD0B48322204231146401E2FF000FB1E
:102DB000458004702FF014FB204670BDFF37FFFFE5
:102DC000281508009D2C00000031005000330050F1
:102DD00002C80000F8B50326012436020823324653
:102DE000032102200094FEF74EFC00F061F8002160
:102DF0000523220208460094FEF745FC06233246CE
:102E0000012100200094FEF73EFC072332460221F8
:102E100000200094FEF737FC0023324603211846B9
:102E20000094FEF730FC0023324607211846009438
:102E3000FEF729FC00233246092102200094FEF708
:102E400022FC002567022B463A46062128460095BB
:102E5000FEF719FC00233A46194602200095FEF7BA
:102E600012FC01210023324608460094FEF70BFCB9
:102E7000F8BD10B505242407208A0221884320824A
:102E8000A08A0007FCD509484188FF22013211437E
:102E90004180FDF70FFFFFF79DFF00F009F802F0FA
:102EA0007EFA608A20210843608210BD2000005015
:102EB0000520000781880122D20211438180174832
:102EC00001884908490001800188FF22813291432D
:102ED000018001884022914301800188042211432E
:102EE000018001880222114301800188520391432D
:102EF000018001881822914310310180018801224C
:102F000011430180704705490022488008888004E9
:102F1000FCD50120C88048888018704700120050F6
:102F2000F84B1B68002B01D05B6B18477E20C04319
:102F30007047F44B1B68002B01D01B6B18477E2099
:102F4000C043704708B5B62069460870ED48006870
:102F5000002804D00122036BE020984708BD7E20A2
:102F6000C04308BD38B50446002069460870E548EE
:102F70000068002809D00122436BF4209847694675
:102F800009788907890F217038BD7E20C04338BD7C
:102F900030B587B000216A46117211731174117532
:102FA000D84C11702168002930D003285BD820311B
:102FB000897B800789088900800F0143117203A86B
:102FC000FFF7D0FF6846007B002823D0FFF7BAFF49
:102FD0002068816B03208847206801222030C17B54
:102FE0006846017505A9F520FFF7A3FF20680122B7
:102FF0002030417B6846017404A9F220FFF799FF55
:10300000012202A9F420FFF794FF09E07E20C043CB
:1030100007B030BD20680122036B02A9F420984755
:1030200001226946F420FFF77BFF054620686946C8
:1030300009782030817301226946F220FFF770FF82
:103040004519206869460978203041730122694694
:10305000F520FFF765FF69460A784019216840B2FC
:103060002031CA73D4E70120C043D1E710B572B64E
:10307000FFF78EFF72B610BD38B5A2480121006877
:10308000242420308172C1720173417384736846B5
:1030900001700A4669467220FFF74BFF68460470CC
:1030A000012269467420FFF744FF0122694672201D
:1030B000FFF736FF012269467420FFF731FF38BD64
:1030C00030B587B01C21684630F043FD8D4C206838
:1030D000002870D01A22436B69468820984705461D
:1030E0006A46216810880880D078927800021043E0
:1030F00048806A46507912790002104388806A46F7
:10310000D088C880507A127A0002104308816A463B
:10311000D07A927A0002104348816A46507B127B33
:103120000002104388816A46D07B927B00021043E4
:10313000C8816A46507C127C0002104308826A46AD
:10314000D07C927C0002104348826A46507D127DFA
:103150000002104388826A46D07D927D00021043AF
:10316000C8826A46507E087607224B6B6946E1208A
:1031700098476A46517840190B02117840B20B43C8
:1031800021684B8392780A776A460323D3561279D3
:103190001B011207120F1343CB836A460523D35634
:1031A00012791B01120913430B846A46927920316C
:1031B0008A702DE7FFE77E20C04329E738B500225B
:1031C00069460A704F4C01222060436BD02098471B
:1031D000054620686946097820300172FFF770FFC4
:1031E000401940B238BD10B501F061F810BDF8B516
:1031F0000746002016460D460446009002F0FDFBEF
:10320000384680210843FFF77EFE06E00020FFF7E6
:103210007AFE641C2870E4B26D1CB442F6D302F04E
:103220009FFD0098F8BDF8B50746002016460D46EC
:103230000446009002F0E1FB7806400EFFF763FEC3
:1032400005E028786D1CFFF75EFE641CE4B2B44212
:10325000F7D302F085FD0098F8BD70B50546294802
:103260002949001D01632949416329498163FFF709
:10327000A5FF0446FFF766FE04190020FFF7F6FEDF
:10328000001944B2FFF7F8FE002D05D00120FFF72A
:10329000EDFE001940B270BD204670BD10B5194951
:1032A0004B2309689B024A6A8003D21ACB8B2224E3
:1032B0001B05C31A2020085E5043181A01239B03E4
:1032C000C01863560C7F53435443E2120124E403B5
:1032D0009B12121953439A12A301D2181A23CB5EE0
:1032E000C0135A43A310D21892135043C21352432F
:1032F000097ED2114A431111401A06490CD500200B
:103300000DE000003090000027320000EF31000097
:10331000E731000000000019884200DD0846001374
:1033200010BD70B55D497D220C685202616A10259E
:103330004910891A8A105243655FD3126B430E25D8
:10334000655F52134D436D00EB18A5899B102D044A
:103350005B190A25655F6A43D5100822A25E4A43BD
:103360005110691801258914E288ED0349194A436F
:10337000D1136A01101A1A13801A494A5043D2070E
:10338000904205D200291BD0400030F08CFB04E0B5
:10339000002915D030F087FB4000C10816224943B0
:1033A000A25E490B514314230A13E35E810859437B
:1033B00012234913E35E511859180911081870BDFA
:1033C000002070BD10B53549C310096800110A8886
:1033D0005400801A1B1B022404220C5F40438A5EA7
:1033E000001363435043DB128013181848628100B6
:1033F00040188030001210BD7CB5064600200090B9
:1034000001902648144600680D4600281DD0082269
:10341000436B6946F72098476B46014618785A78FF
:103420000003120110439A78120910433060D878D3
:103430001A790003120110435A79120910432860C7
:10344000D88840BA206008467CBD7E20C0437CBD41
:10345000FEB5002314460D460646009301930293E1
:1034600072B60E480068002814D002AA01A9684666
:10347000FFF7C2FF07460198FFF7A4FF28600098F6
:10348000FFF74FFF30600298FFF708FF206062B639
:103490003846FEBD7E20C043FEBD000030900000D7
:1034A000350C0000FFB581B00F460020694608705A
:1034B000FE481E460568002D06D0AB680122019823
:1034C0009847040004D011E07E20C04305B0F0BD51
:1034D000694608780399B8438E403E4030436946B8
:1034E00008706B6801220198984744B2EF48001DAC
:1034F0000169012088472046E8E7034600220721AA
:103500004320CFE7034600220F214120CAE70346AC
:10351000012202215320C5E710B50446012804D139
:10352000002000F009F8002805D1234604221021CC
:103530005420FFF7B7FF10BD10B50446012804D191
:103540000020FFF7E9FF002805D1234603220821C8
:103550005320FFF7A7FF10BD0346062240216C2031
:10356000A0E70346052220216C209BE703460322A7
:1035700018216C2096E70346002207216C2091E772
:1035800003460222FC215F208CE703460022012132
:10359000622087E703460022FF21612082E703467D
:1035A0000022FF2160207DE70346022204215220F1
:1035B00078E7034601220221522073E703460022E6
:1035C000012152206EE7034602220421502069E7C0
:1035D000034601220221502064E703460022012114
:1035E00050205FE7034600220F2140205AE701B533
:1035F000AE480068002805D00122436869467E2055
:10360000984708BD7E20C04308BD034600220F2115
:10361000422047E7034604223021422042E7034686
:103620000422702140203DE770B50025ED430328BA
:1036300001D0680070BD9E4C607D002808D001203C
:1036400000F07AF805460220FFF7E9FF401945B27D
:10365000A07D002809D00220FFF7DCFF4519A07CDF
:10366000FFF7D3FF401945B209E01420FFF7BFFF71
:10367000401945B28D48001D01691E208847A07879
:10368000FFF7B0FF45190120FFF7A7FF45190120FB
:10369000FFF79EFF45190120FFF795FF451901200F
:1036A000FFF78CFF45190120FFF783FF4519012023
:1036B000FFF77AFF401945B2A07D00281DD00920F0
:1036C000FFF76DFF0920FFF765FF0120FFF75DFFA2
:1036D0000120FFF755FF0420FFF74DFF441902209A
:1036E000FFF744FF04190120FFF73BFF04190120F5
:1036F000FFF732FF001945B208E00020FFF736FF60
:103700000020FFF729FF0120FFF72BFF284670BD9F
:1037100007B566490968002905D0002A06D04B681C
:1037200001A998470EBD7E20C0430EBD00200EBDEE
:10373000012201467E20EBE770B55C4D03002D1D94
:1037400030F05CFB0A0608101214162323231D23F5
:10375000102000E01120FFF7EBFF04462969042048
:10376000884710E01220F6E7142002E0152000E060
:103770001720FFF7DDFF04461E202969F0E703202C
:10378000FFF752FF0446204670BD0120C04370BDC4
:103790004106490E01226C20BAE7444B1B68002BFE
:1037A00003D0002A04D09B6818477E20C04370478E
:1037B00000207047012201460020EEE710B500F01E
:1037C00076FD10BDF8B500201E4615460F4604468E
:1037D000009002F018F9384680210843FFF793FB68
:1037E00005E00020FFF78FFB2870641C6D1CB442BD
:1037F000F7D302F0BBFA0098F8BDF8B507460020F1
:1038000016460D460446009002F0FDF83846802129
:103810000843FFF778FB06E00020FFF774FB641C09
:103820002870E4B26D1CB442F6D302F09FFA0098FF
:10383000F8BDF7B5002716460D463C4602F0E3F802
:103840000098FFF760FB05E028786D1CFFF75BFB35
:10385000641CE4B2B442F7D302F088FA3846FEBDE5
:1038600070B5064611480D461249001D41601249C7
:1038700081601249C16012490161011F0860FFF7B0
:1038800099FF04460020FFF783FF001944B2002E81
:1038900004D00120FFF750FF001944B2002D04D0DE
:1038A0000420FFF749FF001944B20BE070900000BC
:1038B0005009080033380000FB370000C53700000E
:1038C000BD3700000120FFF737FE04190120FFF784
:1038D0001EFE0019834D44B26878FFF713FEE878A6
:1038E000FFF70BFE204670BD1CB50446002000907B
:1038F00001907D48006800281AD006228368694636
:103900000C209847694649780A02694609780A43B3
:1039100022806946C9780A02694689780A4362802A
:10392000694649790A02694609790A43A2801CBDA1
:103930007E20C0431CBD1CB50446002000900190B1
:103940006948006800281AD0062283686946122058
:103950009847694649780A02694609780A432280ED
:103960006946C9780A02694689780A4362806946CD
:1039700049790A02694609790A43A2801CBD7E2062
:10398000C0431CBD10B5B620FFF7D2FE040004D121
:103990005548001D016951208847204610BD10B5CB
:1039A0000346062240211B2000F083F810BD10B50D
:1039B0000346072280211B2000F07BF810BD10B5C4
:1039C0000346072280214020FFF76CFD10BD10B593
:1039D0000346042210215120FFF764FD10BD10B5ED
:1039E0000346002201215320FFF75CFD10BD10B5F6
:1039F0000346022204215320FFF754FD10BD10B5E9
:103A0000034600220F215420FFF74CFD10BD10B5D6
:103A10000346012202216220FFF744FD10BD10B5CC
:103A2000034601220221622000F043F810BD38B5A0
:103A30000546002168460170FFF7F1FF044668461D
:103A40000078002804D00020FFF7E1FF001944B2FD
:103A50002B46022204215520FFF724FD001940B215
:103A600038BD10B50346072280215620FFF71AFD06
:103A700010BD10B50346002203215F20FFF712FDA1
:103A800010BD01220146572042E601220146562080
:103A90003EE60122014655203AE6012201461E205B
:103AA0007BE6012201461D2077E6012201461C200B
:103AB00073E6F8B516460F4600216A4611700A49AA
:103AC0001D460C68002C09D0A3680122694698475E
:103AD000694609783940F1402970F8BD7E20C0431D
:103AE000F8BD00005009080070900000FFB581B0DB
:103AF0000E46002069460870F7481D4604681746C0
:103B0000002C13D0A36801220198984700280BD1FC
:103B100069460878BD40B043354028430870636863
:103B200001220198984740B205B0F0BD7E20C04305
:103B3000FAE703460022FF215220D7E7034600227E
:103B4000FF215120D2E70346032238214C20CDE744
:103B500010B5012808D0022810D0032818D0042856
:103B600020D00120C04310BD0020FFF7ECFF044629
:103B70000120FFF7E3FF041902201CE00020FFF7FB
:103B8000E2FF04460420FFF7D9FF04190E2012E0DB
:103B90000520FFF7D8FF04461720FFF7CFFF0419D1
:103BA000522008E00020FFF7CEFF04460720FFF771
:103BB000C5FF04191A20FFF7BCFF001940B210BD61
:103BC00010B50346002201214B20FFF78FFF04466A
:103BD000C148001DC16803208847204610BDF8B5C4
:103BE00016460F4600216A461170BB491D460C68F7
:103BF000002C0BD0A368012269469847002804D105
:103C0000694609783940F1402970F8BD7E20C043EB
:103C1000F8BD0346002201214B20E0E738B50546F8
:103C200002280CD0042D1CD2002168460170FFF739
:103C3000F0FF044668460078002804D008E0002021
:103C4000FFF7BEFF38BD0120FFF7BAFF001944B2ED
:103C50002B46012206214C20FFF748FF001940B2F5
:103C600038BD0120C04338BD38B500209A4C0090C3
:103C7000216801225D208B68103198472168054634
:103C800001225E208B681131984721684519012275
:103C900064208B68123198472168451901226520FC
:103CA0008B681331984721684519012271208B6870
:103CB0001C31984721684519012270208B681D31FD
:103CC0009847451920680222836869466A20984708
:103CD00045196946206809888182022283686946FD
:103CE00068209847451969464878020208780243D7
:103CF0002068C282022283686E209847451969466F
:103D0000487802020878024320680283022283680E
:103D100062209847451969464878020208780243AC
:103D200020684283022283686C209847694649785C
:103D300040194A06520E69464A702268098840B204
:103D4000D18338BD03460022FF21402047E7624867
:103D500010B5001D011F08600120FFF731FF044668
:103D60005D48001DFFF7EEFF0419FFF77DFF001906
:103D700040B210BD10B500F09AFA10BDF8B5074674
:103D8000002016460D460446009001F042FE3846DB
:103D900080210843FFF7B7F806E00020FFF7B3F8EB
:103DA000641C2870E4B26D1CB442F6D301F0E4FF49
:103DB0000098F8BDF7B5002716460D463C4601F0C1
:103DC00028FE0098FFF79FF805E028786D1CFFF7A4
:103DD0009AF8641CE4B2B442F7D301F0CDFF384640
:103DE000FEBD70B5054600F009F9FFF7B0FF0446C7
:103DF0000320FFF713FF0419002D05D00120FFF762
:103E0000A7FE001940B270BD60B270BD06E770B584
:103E10000346012292033148D3422BD02E4A162466
:103E20001268145F002C26D0958A002D23D000291B
:103E300021D0D68B002E1ED008B241004D43012167
:103E4000C9036918091409191E251824555F145F40
:103E5000401B4443A0101A24145F1A1BD203101AEB
:103E60002FF037FE1D49C943884202DC494288428F
:103E700000DA084600B270BD70B505460122120393
:103E80001648D54227D0002925D0134A1468E28B62
:103E9000002A20D090032FF006FE01218903401A4A
:103EA00000B21D21024661564243D2115143227F86
:103EB000D2014243881801214012090541181320FC
:103EC0002056A03041430813112161566843401326
:103ED000C900401800B270BD889000000080FFFF4C
:103EE00070B50546012212034948D54227D0002962
:103EF00025D0484A1468E28B002A20D090032FF086
:103F0000D2FD01218903401A00B21D2102466156EB
:103F10004243D2115143227FD201424388180121EA
:103F200040120905411812202056A03041430813C1
:103F30001021615668434013C900401800B270BD9B
:103F4000F0B5044689B00020009001903148006827
:103F5000002808D0082283686946422098470890C4
:103F6000002804D03DE07E20C04309B0F0BD684683
:103F700000780122C108684601708256032352016D
:103F80000A4302818078C10868468170C3565F0188
:103F90000F43478100790523410868460171C356E4
:103FA000DE010E4386818079C007C00F207268460B
:103FB0008079810868468171C07985010D43684622
:103FC000C58110462946FFF78BFF208038462946D9
:103FD000FFF752FF608029463046FFF718FFA080A8
:103FE000E5800898C1E7ABE70A4A1268002A02D0C8
:103FF0009368012218477E20C04370470548064950
:10400000001D4160054981600549C160002070477D
:104010000080FFFF88900000B53D00007D3D00005E
:10402000753D000010B503210220FDF722FB10BDF5
:10403000F8B50124002325022A46194618460094A3
:10404000FDF721FB00232A46012118460094FDF7C5
:104050001AFB00232A46022118460094FDF713FBA1
:1040600000232A46092102200094FDF70CFB0024BE
:104070000326360207233246214602200094FDF72C
:1040800002FB06233246092102200094FDF7FBFAC9
:1040900005230022042102200094FDF7F4FA93483E
:1040A000022101700321417029466802FDF768FB77
:1040B000FDF74EFCF8BD10B503210220FDF7CFFA45
:1040C00010BD38B5FFF7AEFFFDF736FCFFF7F3FF85
:1040D0000124002325022A46194602200094FDF7F8
:1040E000D2FA00232A46092102200094FDF7CBFAD8
:1040F00000232A46042102200094FDF7C4FA00227E
:104100000523114610460094FDF7BDFA0623DD0194
:104110002A46012100200094FDF7B5FA07232A461C
:10412000022100200094FDF7AEFA00232A4609215F
:104130000220FDF788FA38BD10B56E496C48486119
:10414000FDF709FD4021002301220846FDF7B4FCDC
:1041500010BDFEB500206946087208700871074658
:10416000654EFDF7EBFC05200007808A400701D56E
:10417000FEF77FFE6148007802286BD1707D002831
:1041800002D06846FFF713FCB07D002802D001A8DA
:10419000FFF705FCF07D002809D002A94820FFF7B1
:1041A00023FF6846007AC107C90F68460172684656
:1041B0000178007901436846007A01434AD05048AB
:1041C0002223428801884F482EF0F2F8050041D0A2
:1041D00068460078002806D0A81DFFF7ACFB6846AB
:1041E0000078A87001276846444C007920340028E4
:1041F0000FD0207A401C207228460C30FFF774FB49
:10420000207A317C884204D968460079E870002021
:1042100020726846007A002806D028461830FFF73A
:10422000E2FE6846007A2871002F0ED0F07D00284B
:104230000BD0607A401CC0B26072717C884204D995
:104240000120FFF7E3FD0020607228462EF0C8F839
:10425000FCF712FBFFF770FFFEBD08B500206946B2
:10426000087005200007808A400701D5FEF701FE8F
:10427000FCF7FBFA6846FFF714FC6846FFF70DFCF5
:104280006846FFF712FC68460078400706D51949D2
:1042900001208873FFF776FB00F03FF908BD00238B
:1042A00010B5012219461846FDF706FC10BD7D2108
:1042B000C90048430AE000BF00BF00BF00BF00BF05
:1042C00000BF00BF00BF00BF00BF00BF401EF2D252
:1042D000704710B507490C484861FDF73CFC0023C6
:1042E000012219464020FDF7E7FB10BD68070800D2
:1042F00053410000AC900000500908006C07080012
:10430000501508000BD800005B42000010B594481F
:10431000012380783222010292480C312EF048F8B5
:10432000012101702EF05CF810BDF8B505200007E2
:10433000808A400701D5FEF79CFD894CA0890028A2
:104340001AD0A0790322002601271202002802D0E9
:10435000012811D108E00121002308460096FDF74D
:1043600092F9A771258907E00121002308460097EB
:10437000FDF789F9A6716589A089401E0004000C2B
:10438000A08104D078492846FEF7EAFC6071F8BDA8
:1043900010B5734C0020A0710A20A081208160819B
:1043A0007149FEF7DDFC607110BD10B56C4C0A2040
:1043B00020815A2060810020C043A0810020A0718C
:1043C00069490A20FEF7CCFC607110BD10B5644C41
:1043D0002079FEF7A5FC6079FEF7A2FC10BD70B550
:1043E00005221207928A0C460546500701D5FEF7B2
:1043F00040FDFFF7EBFFFFF7CBFFFFF787FF00F074
:10440000B6FF00F0DCFD00F09BFF0020FEF7BBFADA
:1044100021462846FEF7C0F854480021017570BDBA
:1044200070B5054605200007808A400701D5FEF7D4
:1044300020FD00F0C4FD4A4CE078FEF771FCFFF768
:104440002EFF0120A0732846FEF7B5F870BD1CB5FD
:1044500001AC009400F0D2F81CBD10B50520000797
:10446000808A400701D5FEF704FD00F080FF00F0D0
:10447000A6FD3B4901208873FEF7B3FA0120FCF743
:10448000D9F910BD10B5044605200007808A400701
:1044900001D5FEF7EEFC442C17D131484079FEF7E8
:1044A0003FFC0220FFF7B2FC0020FEF7DFFDFFF724
:1044B00069FA0020FFF740F90320FFF73DF900F00B
:1044C0001BFDFFF706FFFCF7CCF910BD10B532203D
:1044D0002EF0EFF8052801D0FEF700FA10BD3EB52A
:1044E0000446002006226B461A722278B12A04D0B4
:1044F000401CC0B2641C8842F7D31A4602A90120AE
:10450000FCF72EF868468078207068464078607026
:1045100068460078A07000203EBD70B5104DA87BA5
:10452000002812D0012812D01924A401FEF71DFA88
:10453000C48184810A213130FFF7D1FFFEF716FADA
:10454000022132202EF074F870BD0120A873A0243F
:10455000FFF72BFF06490748FEF702FC2871E5E745
:10456000AC900000013000002B4300008C070800D5
:10457000CD4400007017000010B536211023322200
:1045800088022DF015FF00211A4A03E0362B0DD0CA
:10459000491CC9B21C234B43D35CFF2BF6D100212D
:1045A0004160816081812DF01BFF10BD1C235943A8
:1045B0008918097A0170F2E770B505461C2332228A
:1045C00036210D482DF0F4FE058001218170002276
:1045D000027141718171C17101724172827205492A
:1045E00004460B2238310B302FF09AFA20462DF07A
:1045F000F7FE70BD906E000002D80000FEB51C46AC
:10460000089B0526494D6F4668C713462246FEF7AC
:10461000E8FAFEBD10B510460C462EF04AF8012807
:1046200009D132220123114690022DF0C1FE2178DA
:1046300001702DF0D5FE002010BD00207047F8B5A8
:104640003B488D79067C4888CA1D19285CD13949B8
:1046500000270C460120203434312B002FF0CEFBF4
:10466000130D0B2E291517133154541A1F34383CCF
:104670003F474B565400207503E02E4A27753846B5
:10468000578701223EE0012224E000F0F4FF01F010
:104690000BF839E0104600F01CFF277534E000F0FD
:1046A000D3FE0F222449284601F028F800F0CCFE62
:1046B0002AE02149C87600F0A7FF25E000F0B2FF0C
:1046C00022E000F097FF1FE0104600F01CFF1BE007
:1046D0001A490822284615E0104600F01BFF1A2050
:1046E000464316481A223118284608310AE0104677
:1046F00000F021FF08E03001811B10480F2209184B
:104700002846563100F0FAFF0020F8BD0A4A90769C
:104710002075B8E707488168491E8160002070470E
:1047200010B5084601F0A8F8002010BDD46E0000B6
:10473000EC0708006C070800500908006C09080025
:1047400010B50E2110482FF004FA104936202DF034
:104750001AFF012136202DF06BFF10BD70B50A4CF9
:10476000054662882188022309482DF021FE058034
:104770002DF036FEE088002125F07FFA002136205A
:104780002DF056FF70BD000050150800FC6E0000B3
:1047900009D80000FEB5BD4C1F460D4662800023BF
:1047A000BB4816E0914212D13118496800290ED059
:1047B0001C214B4318184068019000922A78A01DD4
:1047C0006B68A968FDF706FE060008D011E05B1CC7
:1047D000DBB21C265E43815DFF29E3D112E028781D
:1047E0002072E088002125F048FA002136202DF0C3
:1047F0001FFF012336223946A6482DF0D9FD067049
:104800002DF0EEFD0020FEBD70B51E460C4608885A
:1048100029F0D1FD9D4DFF2828712E8010D0A17860
:10482000E88825F02AFAE888221D173080B217217F
:1048300025F09CF9022136202DF0FAFE002070BDF3
:10484000944B944A5B1C093289219048FDF768FD1E
:10485000F4E7F0B58D4815460C460279190A8FB079
:1048600091427DD12388C188007A591A8EB2B04214
:1048700078D90AAA0EA9184625F0A4F96846018D30
:104880002046854A08300190914218D12088FDF7D2
:1048900040FE07A925F0D4F96846808B4005800FBB
:1048A000012800D000202146FDF71EFE05062D0E32
:1048B0002DD161882088019A25F058F926E0002042
:1048C000734F15E0A94211D1D119896900290DD082
:1048D000019900911C256843C01985696388A288E5
:1048E000E1793046A847050008D010E0401CC0B26E
:1048F0001C2141430A46B95CFF29E3D1A288002A62
:10490000D7D061882088019B25F00FF90546E07912
:10491000002828D0002D26D1208809AA02A925F038
:1049200041F968460089801D83B258484288018851
:104930005848C01D2DF03CFD074668460289B81D49
:1049400009992FF0EDF85148007929F04AFD388097
:104950007E8068460089B88038462DF041FD02E02F
:104960000AE0FFE78225A079012805D14748218880
:1049700000792A4626F03DFB00200FB0F0BD70B54F
:10498000424C0E46087821886288122802D01328EB
:1049900008D018E03F480623001D2DF009FD05460C
:1049A000608906E03B480623801D2DF001FD054689
:1049B000A0896880207929F014FD288070782871FA
:1049C00028462DF00DFD002070BD70B52F4D0C4612
:1049D000287929F006FD2188884207D1E888618876
:1049E000A21D401880B2A18825F0C0F8002070BD3B
:1049F000FEB5264D0C46287929F0F3FC2188884223
:104A000023D1E8886188A21D401880B2A18825F0D2
:104A1000ADF8E8886188401880B2297AFDF798FDE2
:104A20006A4601A925F0BEF800980088012801D047
:104A30008B260BE0E8886188401882B20021134879
:104A4000FDF784FC6088688112E0812611486A883D
:104A500029880623001D2DF0ABFC0746608878806E
:104A6000287929F0BEFC38803E7138462DF0B8FC1C
:104A70000020FEBD10B5054A180A1279904202D1F5
:104A80000888FFF76BFE002010BD000050150800DD
:104A9000B071000001D8000002290000F0B5054601
:104AA000044640356888298889B048434000000C96
:104AB000264620360390307F400644D5208F0E28AE
:104AC00015D900200C220021424312199446624657
:104AD0008B00D218278F53690E3F3B41491C53610D
:104AE0000329F4D3401C0328ECD30E2020872F8801
:104AF00080B28740384661692EF0EBFF2066009057
:104B00003846616A2EF0E5FF606602903846616BB8
:104B10002EF0DFFFA0660146A3680098181AA06473
:104B2000E2680298101AE0642769781A20650098F4
:104B30001818606502981018A0657818E065707FF5
:104B40008021084326E00E20208777482065E06416
:104B5000A064C043E065A065606500202061E0605E
:104B60000146A06002E00021884203D1238F012288
:104B70009A4000E000220C2343438F001B19DB19ED
:104B8000491C5A610329EFD3401C0328EBD3707FE3
:104B90004006400E707728880399411AA985039929
:104BA0004018E88509B0F0BDF0B507460446203747
:104BB0008FB0387F0C90C0067ED52368A16C186832
:104BC000814200DA0846A0648646E16C586881425A
:104BD00000DA0846E0640890216D9868814200DAA6
:104BE000084620658446616D1868814200DD0846EC
:104BF0006065A26D59688A4200DD1146A165079182
:104C0000E26D99688A4200DC0A467146411AE26503
:104C1000491C491005922166089D079B5B1B5B1C84
:104C20005D106346D21A521C5610A6666566A942EC
:104C300001DA0A4600E02A46B24205DAA94201DA60
:104C40000A4602E02A4600E03246234640330D93EE
:104C50009B8D9A4203DA787F4006400E42E0704412
:104C6000401C4010A0600390089A07988018401CD0
:104C70004010E060049005986044401C40102061A2
:104C800005900C9880062AD50D98228F00880792EF
:104C9000904002902EF007FF606101902946029833
:104CA0002EF001FF05466062314602982EF0FBFEB1
:104CB000014660630C9800E015E0C0090FD0019A2E
:104CC00003985043079A1041A0600498079A6843DC
:104CD0001041E06005984843079908412061787FBA
:104CE0008021084378770FB0F0BD70B504462034BA
:104CF000217F05460846FD26C0073140800F01434D
:104D00002177C8070FD02846FFF74EFF607FC00904
:104D100002D0284600F00AF8617F207FC9093040A0
:104D200049000843207770BDFF7F0000F0B5028F77
:104D30000126511E8E40014620318C46097FFD24FC
:104D40000B46DB0721409B0F194363461977CB07BE
:104D500052D0CB090CD14B070AD5056884682B6863
:104D6000C7681B1B6C68AD68E41B0769ED1B01E09D
:104D7000056838CD090724D54169876959436743D8
:104D8000CF19C16969438919791847681141396098
:104D9000016A476A59436743CF19816A6943891990
:104DA0007918476811417960C16A5943036B6343BD
:104DB000CB18416B694389195918114142689160B8
:104DC00005E041680B6041684C6041688D60614658
:104DD000097FCA0910D049070ED5416883680A685F
:104DE000D21A0A604168C3684A68D21A4A604168A8
:104DF00000698A68101A8860F0BD704770B5254C4C
:104E00006188491E09B26180002912D00022825EA9
:104E10002169891821610222825E616989186161B4
:104E20000422825EA169881801218903401AA061C9
:104E300070BD0021615E20692EF04BFE164D208171
:104E40002870000A68700021615E60692EF041FEE2
:104E50006081A91E0871000A48710021615EA06985
:104E60002EF037FEA0812871000A68710120606071
:104E70000A480021017570BD064864210180418007
:104E80000021018141818181016141618161416034
:104E900070470000C4900000EF0908008C0708006C
:104EA00010B50120FEF799FB0120FEF791FB0120D0
:104EB000FEF789FB0120FEF72AFB0020FEF797FD95
:104EC0000020FEF78CFD0120FEF736FB0720FEF7E1
:104ED00096FD0020FEF7DDFD0020FEF7D6FD002048
:104EE000FEF7CFFD0120FEF7A2FD0020FEF7C1FD79
:104EF0009620FEF754FB10BD10B50120FEF71CFCF8
:104F0000FFF7CEFF0220FEF717FC0320FEF714FC8C
:104F10000120FEF754FD0220FEF781FB0420FEF77E
:104F200061FB10BD10B50020FEF751FD10BDF8B5B6
:104F300006461A21FD4FFC4C4843C519204614383B
:104F4000007C0835022802D1204600F04AFF3001DB
:104F5000801BC1194331487D0A7D00021043802225
:104F600090430875030A4B75A38F134018430875C7
:104F7000000A48752089A870000AE870A089287185
:104F8000000A6871208AA871000AE87100210C22C9
:104F90004A431319062200204A435219860047004B
:104FA0009E19B68AD7193E72360A401C7E720328B3
:104FB000F4DB491C0329EADB208F6870F8BD10B5CB
:104FC00072B60020FEF703FD0220FEF71FFF00204F
:104FD000FEF7B2FB0320FEF7AFFB0020FEF746F81A
:104FE00062B60020D0499439087010BD10B5012078
:104FF000FEF7EDFC0120FEF78AFA0020FEF7F7FC31
:105000000020FEF7ECFC0120FEF796FA0F20FEF7D9
:10501000F6FC0020FEF73DFD0020FEF736FD0020E7
:10502000FEF72FFD0120FEF71CFD10BDF8B5BF4EA9
:10503000FF211C3E5531701ABC4C00902EF089FDAA
:10504000B949727A94390846032300278030002A30
:1050500008D0012A10D00127022A08D0032A03D041
:105060000374F8BD037408E04F870A238B87B37A73
:10507000002B01D00223F5E7077404230B87AA490C
:1050800010390B46443B59659965007C0101091AAA
:10509000091943314B7D097D1B020B43A2492C3179
:1050A0000B82032A00D002E0402293430B820028A7
:1050B00004D0012805D0022827D10FE0627A8A8126
:1050C00025E00A7C5206D50F6822125B8A82523490
:1050D000627E237E12021A43CA8216E00A7C5206BE
:1050E000D50F22465F34637E267E1B021E32334379
:1050F0008B824332537E167E1A023243CA82627F0B
:10510000237F120612141A430A83002D01D000F0E7
:105110005AF90098864A017889005158001D88473D
:10512000F8BDFEB50020804E804D0190943E1C3DA0
:1051300036202DF0BEFA7F4C022802D0642021696F
:1051400065E005200007808A400701D5FDF791FE44
:10515000754F943F7868401C786038463978203025
:105160000090002925D0012928D002295DD00429EA
:1051700050D1FFF724FFFFF792F801202169FDF7D6
:10518000EFFDE07000203870708F3C46343400280A
:105190007DD000207087FFF7CAFE0120687200F002
:1051A00083FA00F068FA01222146062000F0A6FAF0
:1051B000A9E0007D002828D0012038705A482C2111
:1051C00094382EF0C6FCFFF731FFA87E002801D0EE
:1051D000FFF752FE0920FEF7AFFAE87D002802D063
:1051E0000120FEF7B5FCFEF7A7FFFFF7FFFE022048
:1051F000FEF7A2FA0120FEF7E2FB0220FEF70FFA0B
:10520000E87D002807D0032006E00A202169FDF789
:10521000A7FDE070FEBD0220FEF7F8FD0A2021691F
:10522000FDF79EFDE070022061E032202169FDF76C
:1052300097FDE070009CE07900280AD03A4A243AB1
:1052400011460839081DFEF703F90020E07101201E
:105250000190287E00280AD0A979A0792EF023FC9D
:10526000002904D10120FDF701FF0120E071A079A0
:10527000401CA071B0680C2811DA0198002811D0E8
:105280000421032000F05BFA0521042000E030E057
:1052900000F055FA0621052000F051FA02E070698D
:1052A000401C7061308F002801D0401E3087708F05
:1052B000002818D0A87A002802D0012808D012E0CF
:1052C00019482C30407CC0090DD0002020750DE01D
:1052D000154819496C30C088884204D1B08F002825
:1052E000F3D0401EB087207D002893D10420387071
:1052F000FEBD687A022806D10B481438007CFFF7FF
:1053000016FE00F0D1F9A87E0028F1D00020A87682
:105310000A4840680028EBD000F0C6F90122214677
:10532000122000F0EBF9FEBD000808006C0908002F
:1053300058750000AC900000FF030000C49000000E
:1053400010B52C213B482EF004FC3C4C3A49C820B7
:105350002161FDF705FDE0703649012088700022CB
:105360004A60FF31E531CA763549486010BD10B555
:10537000344C00F0F1F800F055F900F091F800F02D
:105380006FF8A17D607DFEF76BFAE07DFEF729FDE9
:10539000207EFDF762FF0020FEF719FB10BD10B55F
:1053A00000F0E4FC00F0E8FC00F0DAFC0221002050
:1053B000FCF75FF900210846FCF75BF901210020AA
:1053C000FCF757F910BD1A22F0B550431D4A194990
:1053D0001C328218D07A937A0006001440311843A8
:1053E000C865507B137B0006001418430866D07B09
:1053F000937B00060014184348660020543108329D
:1054000006244443A5180C240023444366185C007A
:105410002C19677A247A3F063F1427439C003419DD
:105420005B1C6761032BF2DB401C0328E8DB507830
:105430000887F0BD6C07080023510000AC90000005
:10544000C49000005009080010B5A44CA1790029AF
:1054500003D004202EF027FB00E00420A07110BD33
:1054600000B59E480621027913002EF0C7FC0616EF
:1054700004070D10131681741F2101E081740F21A0
:1054800001744179417400BD81740721F8E781748A
:105490000321F5E781740121F2E782740021EFE72F
:1054A0008E48002141758175C17501760178CA0762
:1054B0000121002A00D041750278920700D581753C
:1054C0000278520700D5C1750278120700D501761F
:1054D000704710B5814C01460F2220462EF020FB6C
:1054E000FFF7DEFFFFF7BCFFA17D607DFEF7B8F997
:1054F000E07DFEF776FC207EFDF7AFFEFFF712FDA4
:10550000FFF7A2FF10BD10B50146754808222EF026
:1055100007FB10BD10B5017802290BD171491A2281
:10552000097C51436E4A8B18014618461A220830EE
:105530002EF0F6FA10BD10B56A490278097C022AED
:1055400009D10A01511A664A8B18014618460F22E2
:1055500056302EF0E5FA10BDF8B5002168460180FE
:105560005E4F5F4DFEF764FD03210222C9036846CA
:10557000FCF73FF9684600885B4CA04215D06846AE
:1055800004800F22594938462EF0CAFA584E20217D
:105590003046FCF786F90222B11E6846FCF795F901
:1055A0000F2231463846FCF790F9192636030222BD
:1055B00031466846FCF71DF968460088A04216D0BF
:1055C00068464A49048089221C3128462EF0A8FAF0
:1055D000B41C20212046FCF764F9022231466846BB
:1055E000FCF773F9892221462846FCF76EF9FEF78D
:1055F00068FDF8BD10B5FEF71BFD20213D48FCF706
:1056000050F9FFF7B4FE10BD10B5FEF711FD2021D3
:105610003848FCF746F920213548FCF742F9FFF7F6
:10562000A6FE10BD38B5002069460880FEF700FDD3
:105630000F222F492948FCF7DCF889222D492848F8
:10564000FCF7D7F8FEF73DFD254983314A78087805
:10565000120612140243284802818A1E54791379D3
:10566000220612141A4342814B790A791906091449
:105670001143818138BD38B51B4869460880FEF763
:10568000D7FC0324E40320212046FCF70AF9022278
:1056900021466846FCF719F90F22A11C0F48FCF7B8
:1056A00014F9FEF70EFD38BD38B50F48694608807D
:1056B000FEF7BEFC1924240320212046FCF7F1F854
:1056C000022221466846FCF700F98922A11C044801
:1056D000FCF7FBF8FEF7F5FC38BD000050090800A8
:1056E0006C090800EC070800CB3200004072000093
:1056F0000280010002900100C4900000F8B513463A
:1057000015460F46064608333222362156482CF0FD
:105710004FFE040012D00821A171E67153492046C2
:10572000098821801B216180A91CA1802A46394655
:1057300008302EF0F5F920462CF052FEF8BD70B579
:105740000D4606460D233222362147482CF030FE06
:1057500004001ED0A5710220E07103202072A11D5B
:105760004348032E16D0042E1AD0052E11D1806A7C
:10577000C91C00F017F911203C490988218060807C
:105780000720A08020462CF02BFE3A488168491C57
:10579000816070BDC06AC91C00F004F90B20EBE702
:1057A000006BC91C00F0FEF80E20E5E770B50D4651
:1057B00004460F23322236212B482CF0F9FD002815
:1057C00027D0821D85710221C171032101722849F0
:1057D000002C1FD0012C2BD0022C37D0062C18D136
:1057E0000B231146D370002313711623537100232A
:1057F00093712122CA710B7214211C4A12880280F3
:105800004180092181802CF0EBFD1A488168491CF8
:10581000816070BD0C88D470240A14714C88547156
:10582000240A94718988D171090A11720221E4E76E
:10583000CC88D470240A14710C895471240A947190
:105840004989D171090A11720521D6E74C6CD470CF
:10585000240A14718C6C5471240A9471C96CD1712E
:10586000090A11720821C8E704D80000EC140800E6
:10587000AC0708006C070800F8B5454D0446A86859
:10588000444F0C2803DD6869401C6861F8BDA078AE
:1058900000281CD00622A11D38462EF041F93E4EAC
:1058A0007068002802D13B48FFF7A8FA39483289CE
:1058B0000188891A018041887289891A418081880A
:1058C000B289891A818001210020FFF76FFFE078FB
:1058D000002808D00C22A118B81D2EF021F90221B1
:1058E0000120FFF763FF20790028CFD01823294932
:1058F000E35E4B821A22A25E8A821C20205EC8824E
:1059000000240C5F8C6302240C5FCC6304240C5FC6
:105910000C644B648A64C864934201DA194600E05F
:105920001146814205DA934201DA1C4602E0144630
:1059300000E004461749194E8031B44212DD93420B
:1059400001DD1C4600E01446844204DD934201DD83
:10595000184600E01046114A5242904202DA288F5F
:10596000002803D0087C4008400002E0087C0122A7
:105970001043087407480A4A50300178890051588A
:10598000001D884703210220FFF710FFF8BD00002B
:105990006C070800AC070800C49000000180FFFFFE
:1059A00068750000034603220870000A491C521E55
:1059B000FAD5184670470000064C0125064E05E052
:1059C000E36807CC2B430C3C98471034B442F7D320
:1059D000FAF73AFDF47200001473000002E008C800
:1059E000121F08C1002AFAD170477047002001E059
:1059F00001C1121F002AFBD1704710B507210020FA
:105A0000FBF72DFE10BD10B503210020FBF727FE8C
:105A100010BD10B509210220FBF721FE10BD30B5E5
:105A200089B000226C469300CD58521CE550092ADB
:105A3000F9DB009A0368C4685A43039B6343D31895
:105A4000049A046962439A1892130A60039BC2681D
:105A500044685343019A62439B18059A4469624320
:105A60009A1892134A60049A036944695A43059B41
:105A70006343D318029A846862439A1892138A6027
:105A8000009AC36844685A43039B6343D318049A3B
:105A9000446962439A189213CA60009A0369446980
:105AA0005A43039B6343D318049A846862439A1849
:105AB00092130A61039A036944695A43019B634341
:105AC000D318059A846862439A1892134A61069A19
:105AD0000368C4685A43079B6343D318089A046950
:105AE00062439A1883699213D2188A61069BC2682E
:105AF00044685343079A62439B18089A4469624377
:105B00009A18C3699213D218CA61069A0369446944
:105B10005A43079B6343D318089A8468006A624318
:105B20009A1892131018086209B030BD10B50028F9
:105B300023D0124B0022001F196803E0814203D8D2
:105B40000A4649680029F9D1002A0AD01368841A44
:105B50009C4204D1006818181060104602E05060A2
:105B600000E01860002907D002680B1A934203D1A5
:105B70000B68D21802604968416010BD787500005A
:105B80003EB514461D466A4600F0BEFA4035302048
:105B9000285E00994143C911009101994143C81100
:105BA00001903021695E02984843C011009902902B
:105BB00028484943C91308180199029B4943C9134E
:105BC0000818029925684943C9130A1800980199D1
:105BD000504351435343DA13009BC01343435B13B9
:105BE0005B192360019BC9134B4365685B135B1909
