:020000042000DA
:1000000000980020C9040020D1040020E904002049
:1000100000000000000000000000000000000000E0
:1000200000000000000000000000000001050020AA
:100030000000000000000000190500201B05002042
:10004000B91A0020A71B00203D2F0300951B00209C
:10005000211B0020BD2F0300B91B0020C71B00205F
:100060001D050020E5120020071C0020DD2F0300E5
:10007000A77E02001D0500201D0500201D05002093
:100080001D0500201D0500201D0500205F12002019
:1000900063120020671200206B1200206F120020F4
:020000042000DA
:1001600032000000E9060020A71700204F210020E0
:100170000000000000000000A77D0200017E0200D8
:100180000F7E02004B7E0200697E0200857E020027
:10019000AD7E020059190020470B0020C50A00203F
:1001A000CF0A002000000000000000003F00000017
:1001B000F48B002000040000140D08004C01000026
:1001C00008090800000400006C0E0800200500006B
:1001D000000000002000000048000000580000005F
:1001E00068000000260300003A0300004E030000F0
:1001F00054030000D02800008E2E000001000000F3
:1002000088130000311800200D5D020011910200DA
:1002100057230300132603009771020031060020C4
:10022000030000002F1C02007D21002004000000BC
:1002300087450200BF4402000F0C00207B8E0200A5
:10024000CF8E0200D78E0200577F0200C57F0200CA
:1002500078390020BB8002009B81020049820200A5
:10026000E98202000D830200738302008983020089
:100270000B8502003186020033870200E589020007
:100280001F8A0200278D02005B8A02003F8B02005A
:10029000118C02005F8C02003B0A0020ED8C0200F2
:1002A000474D0200754D02002F4E02001000000065
:1002B00020030000803E00003F0000000D00000011
:1002C0001700000000000000000000000000000017
:020000042000DA
:1002D000504600030003983A6400F401B80B000C88
:1002E000B80B120030003000CD009A01120024003B
:1002F00030006400B0001800280012001200D0077F
:100300000000FFFF000000000000000000000000EF
:100310001F00000244413134353831000000000034
:1003200000000000000000000000000000000000CD
:0403300000000000C9
:020000042000DA
:10035000FFFF010000C201000000000000000000DB
:100360000000F40101000116001203030A1811072E
:100370002F2A93A6BDD84152AC0B10992EC6FEED84
:10038000000000000000000000000000000000006D
:10039000000000000000000000000000000000005D
:1003A000000000000000000000004449414C4F479D
:1003B0002D505250482D424C494E4B5900000000E0
:1003C000000000000000000000000000000000002D
:1003D000000000000000000000000000000000001D
:1003E0000000000000000000050000CAEA80D007FD
:0403F000064064322D
:020000042000DA
:100450000348854603F03AF800480047211C020093
:1004600000980020144906200880FF20134901301D
:10047000086005200007818A0906FCD541898908A2
:100480008900418141890906FCD50D4A91683E23C6
:1004900099432E31916000220280018A0F231B02B2
:1004A0001943018201210748C90404C1401E0028E4
:1004B000FBDA62B6704700000034005080E100E0D3
:1004C00000330050FF0B00001548804715480047D7
:1004D00004207146084203D0EFF30980124908470F
:1004E000EFF308801049084704207146084203D002
:1004F000EFF309800D490847EFF308800B490847DF
:1005000004207146084203D0EFF3098008490847E8
:10051000EFF3088006490847FEE7FEE7FEE7000024
:1005200065040020510400209505002035050020B9
:10053000070D002005221207518A8023194351829A
:10054000124903680B6043684B6083688B60C36823
:10055000CB6003690B6143694B6183698B61C3693C
:10056000CB6108620A48836A4B62C36A8B62036B81
:10057000CB62C36B0B63436B4B63806B8863908A66
:10058000800601D500BE7047FEE700000018080095
:1005900000ED00E0052109070A8A04231A430A82B4
:1005A0000A8A02231A430A820A8940231A430A81CB
:1005B0001B4B01221A601B4B08221A804A8A802397
:1005C0001A434A82184A0368136143685361836877
:1005D0009361C368D361036913624369536283699A
:1005E0009362C369D36210631048836A5363C36A1A
:1005F0009363036BD363C36B0B4A40321360436B4B
:100600005360806B9060888A800608D500BE488A57
:10061000012280088000D203104348827047FEE721
:1006200080E200E0003300504018080000ED00E0D8
:1006300070B516460C460546012802D00C2D26D171
:100640000DE006222149224802F052FF00281ED068
:1006500006221F49304602F051FF062012E01D4DD0
:1006600029680878C00610D52078202803D20020F9
:100670002070042070BD0A7E30463A3102F03EFF01
:100680002868007E2070002070BD012070BD3246B9
:100690002146284602F038FF70BD70B50E480F495C
:1006A000C405228880252A4322800D4A53891B07CE
:1006B00001D4401EFAD20B4A0120106006220448E1
:1006C00002F01CFF2088A843208070BDA83C0300D6
:1006D00004800020AC070800A0860100D47F04003D
:1006E000200000500080004008B500F039FA0024D6
:1006F00005252D0709E004216846009402F00AFF51
:10070000002816D000F0A7F913E02889000610D5BC
:1007100001208007006B00040BD402F001FFC0072A
:1007200007D1042002F002FF064602F005FF002E6A
:10073000E1D172B601F0BAFA042806D002280BD033
:10074000032809D0012810D010E04E480078012875
:1007500001D0032000E0022000F00AF830BF4A4830
:10076000016904229143016100E030BF62B6CCE729
:10077000F8B504466846052504702D07288A04212B
:10078000084328824148424FC0690126012811D9F7
:10079000032C18D102F0D6FE002814D002F0D8FEA7
:1007A000002810D0032002F0D9FE00280BD0022030
:1007B000387009E0032C06D1032002F0CFFE002898
:1007C00001D03E7000E0022468460470204600F02C
:1007D00023F800202F49022C087001D0032C1AD1D5
:1007E0002D494A88FF2301339A434A806A882B4B5C
:1007F0001A804A8832434A8000900099491C00912F
:100800001429FADB698989088900491C6981698989
:100810004906FCD56880F8BD10B5022801D0032830
:1008200028D119490B69042213430B6105210907DB
:100830004B8A2024A3434B820B8A022423430B823E
:1008400010230228488A16D0104348827F22088845
:1008500092018024204308800020401CC0B20A2856
:10086000FBD3488A184348820D48521E42610888CB
:10087000A043088010BD10434882488A98434882AC
:1008800010BD00007803080000ED00E0E00100204A
:10089000B007080038800020200000503A80002077
:1008A00000800040704700002C480178002902D0E9
:1008B0008021417070472A49002008702949C8707A
:1008C000704726480178002902D081214170704785
:1008D0002349012008702349C87070471F480178D8
:1008E000002902D082214170704700BE1C490220BD
:1008F00008701C490120C8707047002804D00128E6
:1009000003D0022802D1E9E7CEE7DAE770471449BD
:1009100000200978002904D0012903D0022900D140
:1009200002207047012070470C48C07870470020B3
:10093000EFF31081012282F3108805221207128939
:10094000120605D40848028901231A430281184679
:10095000002900D0012181F3108870470B8000200E
:1009600078030800B20708000033005070B5052076
:1009700000070189302291430181018980221143BE
:100980000181018989088900491C018101890823A5
:1009900019430181A5490C8814430C80448A9C4367
:1009A00044820589402425430581058A0426B543F0
:1009B0000582858AAD07FCD59D4E002575600E88A1
:1009C00001252E430E804D89AE059A4D0E8801D526
:1009D0002E4300E0AE430E800D887826B5432835BF
:1009E0000D800D88062635430D80458A1D434582BE
:1009F0000B8893430B800289A243028148898005BA
:100A000003D58A490520603188800120800701686C
:100A1000821591430160884801683F225202914348
:100A2000421489180160016802031143016070BD1E
:100A300010B5824802F098FD10BD70B57B4C6088FF
:100A4000C006050F02F096FD61881E2291436A00E0
:100A50001143618070BD70B579490120C863C86BCE
:100A60000028FCD101208007C16976480022036874
:100A7000994200D202606E4C01266378724D002BC1
:100A800004D06270016002F07BFD11E0026819235E
:100A90008A1ADB019A4214D3016002F071FD2988A1
:100AA000884201D9411A00E0091A89B2182908D3ED
:100AB0002880012002F06AFD02F06EFD002800D1BE
:100AC000667070BD08B502F06DFD009008BD08B5F8
:100AD00002F06EFD009008BD1FB5684600F04BFDAA
:100AE000009802F06BFD1FBD10B5584A0020117828
:100AF00000290DD052490120C863C86B0028FCD1E1
:100B000001208007C06952490968884201D201204A
:100B100010BD00201070FFF7FAFE022803D0FFF787
:100B2000F6FE01280BD14B4908200880052000075C
:100B3000818A8906FCD4418A802291434182002027
:100B400010BD0020704710B5434900200860FFF732
:100B50006FFF01208007016B49004908016310BD48
:100B600010B53A49012008703A490820088002F07F
:100B70002BFD00F05FFAFF240134352021460001EF
:100B800002F028FDFFF789FD02F0F5FA012002F0DE
:100B900015FD00F06BFDFFF7E9FE042000F03FF8C3
:100BA000072000F03CF80A2000F039F8062000F099
:100BB00036F80B2000F033F8012000F030F8022066
:100BC00000F02DF8002000F02AF82448006802F018
:100BD00007FD00F086F8A005016821430160FFF7DA
:100BE0007BFF0024FFF760FE01F0E4FE02F099FBBA
:100BF000FFF7A9FF05200007C4820C494888E022BE
:100C00009043A0304880012002F0F0FC10BD144950
:100C100010B5884200D000BE02F0EEFC10BDC10647
:100C2000C90E012088400F4908607047200000501D
:100C3000108000200010000000020040E2040000CC
:100C4000C0000040F8050800F40508000A800020F4
:100C50004849002000330050FC0408002090002088
:100C60001111111180E200E0FFB581B01F460E4660
:100C70004D780C78002002F0C5FC042824D0002810
:100C80001DD121E03148816A2E20604309188888EF
:100C90000207120F130002F0BBFC070505050F0544
:100CA0000F050F008204920E062A05D27278012ADF
:100CB00012D0072210438880641C6407640F284602
:100CC0006D1EEDB20028DDD13B463146039A0198F6
:100CD00002F0A4FC05B0F0BD204602F0A5FC002007
:100CE000F8E770B51A480378021D0021194D07E096
:100CF000CC00165D002E01D12418A560491CC9B294
:100D00009942F5D370BD81692039897F042905D2C4
:100D1000104A89001032515881617047FEE70F4830
:100D20000D4901610E4941610E4981610E49C16160
:100D30000E4901620E4941620E4981620E49C1624B
:100D40000E4901630E494163704700007C040800AE
:100D50004C080800C83A00201C4B020000840040E8
:100D600001DFFFB5C4A8020000DFF8B57C45030031
:100D7000390F0020E4C80200F5E702DF481903003C
:100D800003DF0146F3B581B0002000900D464A888C
:100D9000044601466B46019802F04CFC060009D15E
:100DA0000098C488019802F04BFC401E844200D297
:100DB000204684B222460B21019802F047FC0746E8
:100DC000002E06D06A882978334602F045FC0020C0
:100DD000FEBD7C80009922460831381D02F08EFB52
:100DE000384602F03FFC688802F042FC0028EED052
:100DF000019902230A0201890C32044802F03EFCE8
:100E00006988018002F040FCE1E700001230000038
:100E1000FFB50646807A81B0012805D002234049FB
:100E20000D68002D02D006E00023F8E7022870D0FC
:100E3000012871D03B4D3C4CF288A08BB18880B228
:100E400002F028FC0090E0694E23042158434B0433
:100E50002268C0181152E0694E235843344B22686F
:100E60003249C0181152E0694E23717A5843304B11
:100E7000090255319B1E2268C01811520098E26980
:100E800040304E2741887A431B11294F19433F1D9B
:100E90002368D2199952E1694E277943244F4B2296
:100EA00052010C372368C9195A5221464031E26970
:100EB000097B4E27049B7A4309021D4F1943BF1C2F
:100EC0002368D21999522368E1694E246143184C72
:100ED0000022143409195A52164A962111631549F1
:100EE000327A40390A610D6204994176029900987C
:100EF00002F0D6FB0398002803D00146009802F0C8
:100F0000CFFB009802F0D2FB009805B0F0BD00E0E6
:100F100002E0FF25F5358EE7024DFA3D8BE7000034
:100F200024800020DC050000E00100202780000074
:100F30000A000800C0000040FFB581B01E461446FC
:100F40000F46150A104602F05DFB00280DD02D4912
:100F5000A8000858C07B002807D0334622463946EF
:100F6000019802F0A9FB05B0F0BD0020FBE70146A7
:100F70000A780120042A01D9002070474978002905
:100F8000FBD00129F8D1704700B502790021130088
:100F900002F03EFB0C340707353520353535353545
:100FA00027344279042A27D8C279530707D0520739
:100FB000520F012A03D0042A01D0052A1CD18279BC
:100FC000002A01D0012A17D1007AC01F0A2816D39F
:100FD000062114E04279521E0A2A10D308224271D7
:100FE0000DE0407942070AD04007400F012806D0A3
:100FF000042804D0052802D00A2100E00721084671
:1010000000BD0000C006080005200007018830224E
:10101000114301800188032211430180704705209C
:1010200000070188302291430180018889088900E6
:1010300001807047FEB50020964E0346282200210D
:10104000424392198C00491C13510A29FADB401CB7
:101050000428F3DB02F05CF88E48002208380260B6
:101060004260154600248C486900475A0120A04080
:1010700080B207421CD0282068438019A100405844
:10108000411C19D0002810D0C117224602F01AFBCB
:101090002A0102F017FB7F4B083B1A685B6810437C
:1010A0007C4A1943083A10605160641C0A2CDDDB4D
:1010B0006D1C042DD6DBFEBD0095019400BEE3E758
:1010C000F8B5164604460D460A461F460120002183
:1010D00002F0F8FA220102F0F5FA6E4B083B1A68AA
:1010E0005B6810401940084300D100BE032C00D1BA
:1010F00004246A4960014018690008183E43C6800C
:10110000F8BD70B504460D460A460120002102F0E4
:10111000D9FA220102F0D6FA5E4A083A13685268F8
:1011200018401140084300D100BE032C00D1042414
:101130005A49600140180121A940818070BD70B5F5
:1011400004460D460A460120002102F0BBFA2201A6
:1011500002F0B8FA4F4A083A136852681840114032
:10116000084300D100BE032C00D104244B49600188
:1011700040180121A940418070BDFFB581B00C46E7
:1011800005460A461F46012000210A9E02F09AFAEF
:101190002A0102F097FA3F4B083B1A685B6810403F
:1011A0001940084300D100BE002E2146284602D037
:1011B000FFF7C5FF01E0FFF7A4FF3B4621462846A5
:1011C000039AFFF77DFF05B0F0BD70B504460D46EC
:1011D0000A460120002102F075FA220102F072FA9B
:1011E0002C4A083A1368526818401140084300D14D
:1011F00000BE032C00D10424284960014018008857
:101200000121A940084000D0012070BD70B5012423
:101210002146133881400D4688B200F02AF88440F8
:101220001F48C189A9430C43C48170BD10B5044651
:10123000133804280BD82046FFF7E8FF1549A00013
:10124000A03140188038406B002801D0804710BD85
:10125000E106C90E012088401249086010BD132024
:10126000E4E71420E2E71520E0E71620DEE7172088
:10127000DCE700280AD0411E4840C003010C0020D2
:1012800001E04908401C0029FBD100E0102080B299
:101290007047000030900020E83A002000300050F5
:1012A0000014005080E200E08307FF22DB0E9A402A
:1012B0008907090E994000280BDA0007000F08384B
:1012C000830842489B001818C36993430B43C361CA
:1012D000704783083E489B001B18186890430843DA
:1012E0001860704710B5FFF79AFE05210907888836
:1012F000384AC30B104618D0374B1C88640714D5E6
:101300001178890710D5198802221143198019888C
:101310004908490019804468002C05D0985E0421D2
:10132000595E0A229A5EA04710BD8988C906FBD57E
:101330001178C907F8D0294901228A800A888023B8
:101340009A430A8080680028EED0804710BDF8B527
:1013500005242407A58810263543A5801F4C0025A9
:101360002581D2B262802A46D7000546FD40EEB202
:1013700055002D196E810E46FE40F6B26E82521C4B
:10138000042AF1DBE28903252D020004800FAA4321
:1013900000020243E281E08A0904890FA84309029E
:1013A0000843E0820125A5800D486E02066098067C
:1013B000800E8030208029460920FFF775FF054800
:1013C00001782943017007480660F8BD00ED00E090
:1013D00000E400E0288000200002005000010050DE
:1013E00080E200E000E100E00843012189030346B8
:1013F0000B432E490B802E4B1843088009200243D3
:101400004A80704729490A880F239B0100079A43A5
:10141000800D02430A80704724482649028802232F
:101420001A430280491E02D302889207FAD400218F
:101430000181408970470AE000BF00BF00BF00BFC4
:1014400000BF00BF00BF00BF00BF00BF00BF401E05
:10145000F2D2704770B50222510204464E00304667
:10146000FFF7C2FF1420FFF7E6FF002C01D0092090
:1014700000E00720FFF7C6FFFFF7CEFF054601207B
:10148000FFF7D9FF022200213046FFF7ADFF002C05
:1014900001D0092000E00720FFF7B4FFFFF7BCFFF1
:1014A0004019024A0021118070BD00000015005053
:1014B00001400000A086010008B589210520000731
:1014C00001810121614A4903118001888022114371
:1014D000018001888908890001805D48018A022213
:1014E0001143018200F0ECF802F0F2F802F0F6F895
:1014F0000020694601E00888401C0880088891287F
:10150000F9D308BD08B55349002008804880534AE4
:10151000514BD380FF23D2331381C880C321518024
:101520004F4A082111806946088003E06A46118805
:10153000491C1180694609889129F7D369460880BA
:1015400003E06A461188491C11806946098891297F
:10155000F7D3694601E00888401C08800888912874
:10156000F9D308BD3F4A5080918001201080D08877
:10157000C007FCD17047F1B5FFB0FFB094B011AC1B
:1015800033480494008AA41C1090FFF795FF31485B
:1015900001880F9141880E913049CA880D920A89BD
:1015A0000C92C2880B92408B0A902F484088099079
:1015B00048888446FFF7A6FF00252B46FF2111A887
:1015C000FFF7D0FF00210A460846049E275C365CE0
:1015D0007E40F607F60F8E401643491CC9B2F2B2A0
:1015E000082906D1FFA9C96C4A556D1C0021ADB26E
:1015F0000A461030FF2680B2B600B042E5D95B1C27
:101600009BB2022BDAD312491098088214490020A9
:10161000088010480F9901800E9941800F490D9A5A
:10162000CA800C9A0A810B9AC2800A9A42830E4A97
:101630000998508060464880052000070188802274
:10164000914301807FB07FB015B0F0BD0002004033
:10165000E0300050002400508080000060280050DE
:1016600020200050003500500026005030B58E4933
:101670008E48CA05148880231C4314808C4C6589CD
:101680002D0701D4491EFAD28A4C012121608A4CCF
:1016900001882180894940880880108898431080FB
:1016A00030BD00207047704770477047002070477A
:1016B00001218907086B07221043086370477047B0
:1016C00030B580497E4808607F494C2008807E4CB8
:1016D0007E4B203C23827F497D4848807F487E495D
:1016E00001807D4919314180222141818121890078
:1016F00001827B4941827B490183794911314183D0
:10170000764A7949203291804122784912018A80B3
:10171000774ACA80764D1035CD810A824A82921C62
:101720008A826A1FCA82FF2246320A83714A4A832A
:10173000714A592111807049704D20310D80432527
:101740004D806F4D5582D5228A80FF22D3320A8187
:101750006C4A4A816C4A8A816D4A6C4911805A49A7
:101760006C4A60394A80CA8810252A43CA80634A75
:101770000A3A0A81544D684A403D6A8063820822D1
:101780004A814E495C4A0988403A11824A49634A73
:101790000988118062490978002901D0302101832C
:1017A00030BD4008704700B58BB05E4A42625E4A69
:1017B00082625E4A42615E4AC2625E4A02605E4A7C
:1017C00002625E4A42605E4AC2613E4A3C48002173
:1017D00010603C484038026B03129A430263426B2C
:1017E0001F231B049A4303231B04D218426355484A
:1017F0000268C3129A430260026803139A430260AC
:1018000068464154491CC9B22829FAD30146282206
:101810004D4801F073FEFFF753FF01F0B1FE4B4955
:101820000880002001F0B2FE01F0B6FE0BB000BD52
:1018300010B5244A0F21224809021060214840387F
:10184000426B1F231B049A4303231B04D2184263D9
:1018500000060268D208D200026005200007028953
:1018600092089200521C0281028908231A430281C5
:10187000028A0A4302820E484189890504D50188FB
:101880007822914308310180FFF71AFF3048006F3A
:101890000078002804D02F4800880B496039C880A0
:1018A000012001F0A3FE10BDA0860100087F040006
:1018B00020000050008000407A030800AE040800B9
:1018C0004C05540780000040602C00507F7F0000D2
:1018D000AC2900000022005009090000002400503B
:1018E0002204000030D00000EE110000002500505E
:1018F0002E02000044200000402800500D950000FA
:1019000002420000E4DC0000109200005378000066
:10191000002A00508B1000009DD5000000260050CA
:1019200034800020A3160020A7160020AD1600204A
:10193000B1160020A9160020BF160020AB1600200B
:10194000A31700200002004020000800F405080052
:10195000E0010020CE05080070B50125AD07AC6B95
:101960002046FFF7B4F8C04901F0BEFE272212015D
:10197000511A00D10121BD4A50601160286B082125
:10198000884308432863BA480460BA4800680028BE
:1019900002D0A04200D200BE70BDF0B587B00024D6
:1019A0006A461472B4490A68002A5DD01146403173
:1019B0008B7C002B58D0B14B012813D0108D1A46C8
:1019C0000007803A0125126FC00EED044019105A2D
:1019D0006A46800B10711079002845D010790128D3
:1019E00002D00DE0D86C09E008894E256843A44D6B
:1019F0001A684019105ACA7C000A801A6A46107286
:101A0000107A002829D09F4A9E48203A007B956A88
:101A100005E02E224243AC18401C4007400F6F46A1
:101A20003A7A561E3E72F4D2A2785406640E3C7185
:101A30003A79D406E40E3C769A692E235843904BAB
:101A4000463BC018105A3A46C006C00F3871387964
:101A5000002802D1107E002806D0087D002803D17E
:101A6000C87D08221043C87507B0F0BD10B5052029
:101A700000074189890708D0418989088900418187
:101A800081494A88520852004A80018980221143C4
:101A90000181018A042291430182818A8907FCD550
:101AA00001F028FE012080070169490700D500BE2A
:101AB00001694907FCD510BDF8B5744EF0880028BF
:101AC0002DD10120F08072490820088005273F07AA
:101AD0007889800720D0B88A400701D501F04BFBF8
:101AE000694D28888021084328806A4CFF20608047
:101AF00004202080FFF788FA7D21C900E088A288B1
:101B0000000480188842F9D905202080B0887880A8
:101B100029888020814329805F4910200860F8BD12
:101B200070B5FFF77CFAFFF7A1FF0026574C0520A0
:101B3000E6800007418A802291434182544801890E
:101B4000490849000181D00581690422114381615E
:101B500001F0D6FD5049102080310125086001F0C8
:101B6000D5FD01F0D9FD484826704089800510D583
:101B7000607800280DD1494865700088C00708D1F9
:101B80000120FFF767FC8B218900884201D90220E0
:101B9000607070BD10B501F0C5FD00F05DF83B4907
:101BA0000120087010BD10B501208007008A0006D2
:101BB00001D500F051F810BD10B50120FFF7EDFE82
:101BC00001F0B6FD10BD10B50124A407208A00075E
:101BD00018D50220FFF7E1FE01F0B0FD20684000BB
:101BE00040086100084320602068C00FFCD11F48F6
:101BF000803001680906090E01D0012101602349E6
:101C00000420087010BD70B5254800888506254859
:101C1000AD0E44681948006F0078002802D12846AC
:101C200001F092FD20480089184EC00507D5200616
:101C30000BD5E00709D0284601F08CFD03E0200613
:101C400003D5E00701D003203070200403D5E00560
:101C500001D50220307070BD10B50C49012088708C
:101C600001F07EFD10BD0000710200004000004048
:101C70004480002040800020DC040800E0010020B7
:101C80004A0008009C040800200000503680002014
:101C9000003300500016005000E200E00015005034
:101CA0000020005000020040002C0050FEB55C4CAB
:101CB0000026606D37460090FEF736FE594D00282D
:101CC00002D12879022801D100200090FEF70CFFF4
:101CD00000280ED101F04AFD00280AD05148012603
:101CE000C078002805D005252D07A88AC00701D097
:101CF000042692E001F014FC00287DD14A48806956
:101D0000002801D0606D00904648009C81786846AC
:101D100001F032FD00286FD042488178684601F01A
:101D2000F9FB002879D0002001900094FF202D308D
:101D30000124A407216A8142FCD33A48817868468D
:101D400001F01AFD002868D036488178684601F015
:101D5000E1FB002861D00098002804D001990029F7
:101D600001D0401E009031490022097883200229C9
:101D700000D1B5202E490B78012B00D121300A70FB
:101D8000E26B0F21920A92020A43E263E16B294A55
:101D9000800211400143E163E06B3721C002C00AB9
:101DA00089050843E06300980426002801D0001D3F
:101DB0000090C002642101F097FC002800D0401E72
:101DC0001D49086017490979002900D0012101F057
:101DD000D9FC1A48C06A8047FEF7B3FE002808D035
:101DE0002888302108432880288803210843288038
:101DF0000127206B000400E00FE0C00FF9D010486D
:101E00000168C905FCD5002F01D0FFF708F901F0E2
:101E1000BFFC28898021884328813046FEBD000010
:101E200060020020B207080050070800780308008D
:101E300037800020FF03E0FF4080002008080800F2
:101E400000020040FFB5002685B0154641486A46AD
:101E5000344637461082002904D0042203A801F03A
:101E60004DFB02E00020C0430390002016E00399E0
:101E70000141C90710D00F99020151180A79022AAD
:101E800002D0102A05D102E0761CF6B201E0641CF3
:101E9000E4B20989C9198FB2401CC0B2A842E6D386
:101EA00000940023324601970E99059801F076FCC4
:101EB00000242AE003992141C90724D00F99270162
:101EC0007E18F18802A8009101900F983279C359C9
:101ED00005983189008801F067FC002813D17189C9
:101EE000002910D03079022807D10F980222C0595A
:101EF00004A901F0FDFA00280DD068467189008917
:101F0000F26801F057FC641CE4B2AC4201D2002834
:101F1000D0D009B0F0BDF0684078FF2809D008990A
:101F2000002906D005996A4609781289511A089A3B
:101F300011546A461089411C11807189F26801F0C0
:101F400039FC0028DFD16B4602220121188901F0FB
:101F500037FCD8E70328000010B51221244801F00F
:101F600035FC24491C2001F037FC00211C2001F025
:101F700039FC10BD30B503460120002103241A4668
:101F8000CA40D20704D04D0022466D1CAA4010431F
:101F9000491CC9B20929F2D330BD024600201229DA
:101FA00001D98D207047062A06D0072A07D0082AB3
:101FB000F8D10729F5D170470829F2D170470629D1
:101FC000EFD3704770B50A4C0546218802231C22C6
:101FD000094801F053FB058001F056FBE088002121
:101FE00001F006FC01211C2001F0FCFB70BD00008B
:101FF00048800020043C002004700000FEB53B4EE9
:102000001C2070801D46174634460888FFF7B2FF33
:1020100002903748334601900833132202A90097F3
:10202000A01D01F0EBFB040008D1F088002101F0B5
:10203000DFFB044601211C2001F0D4FB01231C22FC
:1020400029462C4801F01AFB047001F01DFB00200A
:10205000FEBD70B50C4625490B802078082814D8A1
:10206000CA880831415C51188DB2822D0BD061783D
:10207000FFF793FF010009D16D1C6178A8B2A21C83
:1020800001F098FB08E0822100E08121194B1748FC
:102090005B1CDA1C00F030F8002070BD70B51D46E6
:1020A0000C46088801F0B0FB104AFF28107115801B
:1020B00009D0A178D08801F09BFB02211C2001F0FF
:1020C00091FB002070BD0B4B89219B1C9A1C07487B
:1020D00000F012F8F5E710B5044A180A1279904298
:1020E00002D10888FFF76EFF002010BD4880002055
:1020F000F03A002001700000F8B514460F461E4665
:102100000546428801880623204601F0B7FA0446B6
:10211000287901F07FFB208027716680204601F03E
:10212000B3FAF8BD70B51446428800790D46010235
:10213000042323480C3101F0A1FA002D01D0132112
:1021400000E012210170448001F09EFA70BD70B56C
:10215000FFF702FF00241B4D09E0401940690028E9
:1021600003D0641CE4B2804701E0641CE4B2204662
:102170001C214843295CFF29EFD170BDF7B50D46FE
:102180001C2001F03FFA022805D1EAB21C23029973
:10219000009801F045FB009800240A4E070208E071
:1021A0003B460343641CE4B2EAB20299009801F092
:1021B00037FB1C206043305CFF28F1D1FEBD0000DE
:1021C0000D300000D43E002010B50E21104801F063
:1021D000FDFA1049362001F0FFFA0121362001F006
:1021E00001FB10BD70B50A4C0546628821880223A8
:1021F000094801F043FA058001F046FAE088002121
:1022000001F0F6FA0021362001F0ECFA70BD000072
:102210005C8000200C3F002009D80000FEB5DA4C9D
:102220001F460D4662800023D84816E0914212D125
:102230003118496800290ED01C214B4318184068FA
:10224000019000922A78A01D6B68A968FFF7FAFD3B
:10225000060008D011E05B1CDBB21C265E43815DEA
:10226000FF29E3D112E028782072E088002101F0F4
:10227000BFFA0021362001F0B5FA01233622394693
:10228000C34801F0FBF9067001F0FEF90020FEBD25
:1022900070B51D460C46088801F0B6FABA4AFF2808
:1022A0001071158009D0A178D08801F0A1FA02211F
:1022B000362001F097FA002070BDB54BB44A5B1C84
:1022C00009328921B048FFF717FFF4E7F0B5AE48AF
:1022D00015460C460279190A8FB091427DD12388A8
:1022E000C188007A591A8EB2B04278D90AAA0EA9CA
:1022F000184601F09BFA6846018D2046A54A083031
:102300000190914218D1208800F05BF907A901F0F3
:1023100093FA6846808B4005800F012800D000208A
:10232000214600F039F905062D0E2DD1618820884F
:10233000019A01F03FFA26E00020944F15E0A942EF
:1023400011D1D119896900290DD0019900911C255D
:102350006843C01985696388A288E1793046A84737
:10236000050008D010E0401CC0B21C2141430A46C1
:10237000B95CFF29E3D1A288002AD7D061882088E0
:10238000019B01F05FFA0546E079002828D0002D76
:1023900026D1208809AA02A901F05AFA68460089C4
:1023A000801D83B27848428801887948C01D01F0B9
:1023B00065F9074668460289B81D099901F09EF83B
:1023C0007148007901F026FA38807E8068460089DD
:1023D000B880384601F058F902E00AE0FFE78225AC
:1023E000A079012805D16848218800792A4601F0A2
:1023F00035FA00200FB0F0BD70B5634C0E4608787A
:1024000021886288122802D0132808D018E060487A
:102410000623001D01F032F90546608906E05C489C
:102420000623801D01F02AF90546A08968802079DD
:1024300001F0F0F9288070782871284601F024F91D
:10244000002070BD70B5504D0C46287901F0E2F9BE
:102450002188884207D1E8886188A21D401880B28F
:10246000A18801F0A7F9002070BDFEB5464D0C46CD
:10247000287901F0CFF92188884223D1E888618842
:10248000A21D401880B2A18801F094F9E888618803
:10249000401880B2297A00F0B3F86A4601A901F029
:1024A000D7F900980088012801D08B260BE0E88836
:1024B0006188401882B200213348FFF733FE6088FC
:1024C000688112E0812632486A8829880623001D27
:1024D00001F0D4F8074660887880287901F09AF9ED
:1024E00038803E71384601F0CFF80020FEBDFEB5C1
:1024F000254D0C46287901F08DF92188884223D199
:10250000E8886188A21D401880B2A18801F052F9C4
:10251000E8886188401880B2297A00F071F86A462C
:1025200001A901F095F900980088022801D08B26B6
:102530000BE0E8886188401882B201211248FFF759
:10254000F1FD6088A88112E0812611486A882988F7
:102550000623801D01F092F807466088788028796C
:1025600001F058F938803E71384601F08DF80020AE
:10257000FEBD10B5044A180A1279904202D10888AB
:10258000FFF730FE002010BD5C8000209C41002041
:1025900001D800000229000002464B880020022BCF
:1025A00001D00D2070470989002A05D00029F9D0F3
:1025B0000129F7D0812070470029FCD00229F9D1E8
:1025C000704770B586B0044601F052F805461D4EBE
:1025D0000EE06A4604A9204601F028F96846008802
:1025E000B04203D1641CA0B206B070BD641EA4B298
:1025F000A888A04202D8E888A042EAD20020F3E7E7
:10260000F0B585B0044601F033F80E4E0546FF36AE
:102610000C4F0FE06A4604A9204601F007F968460E
:102620000088B04202D1204605B0F0BDB84207D0C4
:10263000641CA4B2A888A04202D8E888A042E9D2CB
:102640000020F1E70328000010B500F017FB00F0B0
:1026500033FA0020FEF751F910BD10B50C460C21DD
:1026600048430D4940188078FF2805D000F095F9BF
:10267000208800F023F810BD00F063FE10BD10B5F7
:1026800000F0F0F9002801D000F05BFE10BD10B59D
:1026900000F057FE10BD0000848000200021FA4A9F
:1026A00005E0834201D101207047491CC9B20C23C7
:1026B0004B43D35CFF2BF4D100207047F8B505469F
:1026C0000024F14E0AE080198168002904D0641CBE
:1026D000E4B22846884701E0641CE4B220460C219D
:1026E0004843315CFF29EED1E74E0024443609E02F
:1026F0008F19B968002903D0FFF7D0FF00280AD04E
:10270000641CE4B20C216143705CFF28F0D1DE4E02
:1027100000240C3610E0641CB968E4B228468847EF
:10272000F0E780190169002904D0641CE4B228464E
:10273000884701E0641CE4B220461C214843315C18
:10274000FF29EED1F8BD70B5CF49D04C0E464436C6
:102750000D460C350DE052185268002A07D0C2B25F
:102760000C235A4351184968401C60702DE0401CEE
:10277000607060780C2242438B5CFF2BEBD10AE047
:1027800089194968002903D0FFF788FF002809D07C
:102790002078401C207021780C204143705CFF2879
:1027A000EED117E020780C21414389194968401C7B
:1027B00020700AE04919C968002909D0C1B21C2259
:1027C00051434919C968401CA0708847002070BD5A
:1027D000401CA070A0781C2141436A5CFF2AE9D10B
:1027E0000020A07060702070012070BDFFB581B026
:1027F00004461D46164618460A9F01F081F80090CF
:10280000257021463846009A01F02EF8002803D0A2
:1028100000BE002020700DE02078B04200D300BE42
:10282000721E904200D31046C2B2227000990298E4
:1028300000F064FE009801F039F805B0F0BDF0B585
:10284000924D99B0E86800285BD1502332220D21C7
:102850008F4800F013FF0446E8600E20207000202F
:102860006070A020E081A0810720207401206074A6
:1028700021460B2014310090481E20231C22179162
:102880000190FFF7B3FF21460C2031310090481E24
:1028900020231F2218910290FFF7A8FFE8681A2151
:1028A000C27C20308F1A017C1D20461A0020694608
:1028B0000874002F01DC002E23DD3E20087406AAD8
:1028C00004A9022000F0D0FF002804D000BE0020A0
:1028D0006946087415E06846017C002911D08F42D2
:1028E00005DBE27C179806AB1218019807E08E42D0
:1028F00007DB2034227C189806AB1218029800F0EF
:10290000E9F8E86819B0F0BD70B5604E044685007E
:10291000361D7059002816D121020E2332225D483F
:102920000E3100F0ABFE0A210170002C00D000BE79
:10293000705110218180082141800021C1807D22B9
:10294000028141818181705970BD10B54F4CA068E2
:10295000002820D14E48222332220D210A3800F0CF
:102960008DFE032101700A21A06041700021418287
:10297000017541751722C282082202831022428308
:1029800081836422C283202211543F4910222339BB
:10299000801C00F0B3FDA06810BD3D4810B50123B8
:1029A00032220D210B3800F069FE0221017000F087
:1029B0006BFE10BD1CB535480C21183000F006FF29
:1029C00001246846047004716A4601A9352000F0AC
:1029D0004BFF002801D0684604702C4900201831B4
:1029E0000C2242435218401C00061471000EF7D00E
:1029F000254932205C3100F0EFFE0021322000F04A
:102A0000F1FE1CBD70B50D460102224814462C2370
:102A100032220C380E3100F031FE014620310D72A9
:102A20004C7200F031FE70BD09E710B5FFF707FFEB
:102A300000F02AFE15490020C8600221322000F073
:102A4000D1FE10BD10B50446FFF75EFF00F01CFE7E
:102A50000E4A0020A100121D50500421322000F027
:102A6000C1FE10BD10B50121322000F0BBFEFFF702
:102A70006AFE10BD67E610B5FFF767FF00F004FEC1
:102A800002490020886010BD604200206C80002058
:102A90000E3400000E380000174A00214B00D35CB2
:102AA000834203D14800801840787047491CC9B25E
:102AB0000A29F3D30120704710B50020FF230E49E7
:102AC000012442008B545218401CC0B254700A2892
:102AD000F7D3D8E770B50646481C10700920154694
:102AE0000C46507022461946A81C00F007FD3078AD
:102AF000A41C0019307070BD90800020FEB51C46EB
:102B0000089B07265A4D6F4668C71346224600F0B9
:102B1000B6F9FEBD10B5104600F074FD002809D1CD
:102B2000012332220D21534800F0A8FD012101703C
:102B300000F0AAFD002010BD70B54D4C0D78241F8B
:102B40000F2D13D008DC012D12D0022D0AD0032D39
:102B500014D00E2D06D117E0102D07D0112D05D061
:102B6000122D03D02568002D00D0A847002070BD8D
:102B700048780028FAD1FFF77EFFF7E74878002869
:102B8000F4D1FFF77CFDF1E7487800F03FFCEDE77A
:102B9000F8B51C4610460E4600F034FD022824D13C
:102BA000240A00D000BE0C202746474332483D1877
:102BB000AC70FF2C15D00121E9700521322000F006
:102BC00011FE2D483188C153707A68713146A81DB5
:102BD00006220A3100F092FC002211462046FFF73F
:102BE00011FF3146204600F0EAFB0020F8BD70B529
:102BF0000C46097816460A2909D01D4D2D1F296853
:102C0000002902D021462C68A047002070BD104644
:102C100000F0F8FC0428F8D160780028F5D10521EF
:102C2000304600F0DFFDF0E710B510460C4600F02E
:102C3000E9FC032803D0052801D0042802D120464E
:102C400000F0E8FB002010BD10B510460C4600F067
:102C5000D9FC012808D12078002805D1FFF70AFF08
:102C6000002801D0FFF713FD002010BD00207047A1
:102C7000704500200234000084800020704710B5A9
:102C80001C2102233222880200F0F8FCFF2174315B
:102C9000018000F0F9FC10BD70B505460423322216
:102CA0001C21074800F0EAFC044605801C20FFF7C1
:102CB000F3FEA0700020E070204600F0E5FC70BD3F
:102CC00003700000FEB51C46089B02264D4D6F4662
:102CD00068C71346224600F0D2F8FEBDFEB5104686
:102CE0000D4600F08FFC01287ED12878002878D18D
:102CF0000E2332221C21444800F0C0FC0446002070
:102D000020700B206070024640A1A01C00F0F6FB72
:102D1000204600F0B9FC0A2332221C213A4800F078
:102D2000ADFC0446012020700720607002463AA1E5
:102D3000A01C00F0E3FB204600F0A6FC0B2332228F
:102D40001C21314800F09AFC044606202070082619
:102D50006670324632A1A01C00F0D0FB204600F085
:102D600093FC082332221C21274800F087FC05220F
:102D70000270044642702DA1801C00F0BFFB20466B
:102D800000F082FC09270C2332221C211E4800F08F
:102D900075FC04460420207067703A4625A1A01CEB
:102DA00000F0ACFB204600F06FFC0A2332221C210D
:102DB000154800F063FC044606700720607001208F
:102DC000A070D221684601800B21C90141807101A8
:102DD000818006226946E01C00F090FB204600F04E
:102DE00053FC0123322200E007E01146900200F07C
:102DF00045FC2978017000F047FC0020FEBD002052
:102E000070470000B8450020027000004469616C02
:102E10006F672053656D690044413134353878005F
:102E2000123456FFFE9ABCDE00000000782E792E88
:102E30007A000000765F352E302E332E30000000F1
:102E4000FFB583B01E4F002401AEA00000963D5890
:102E500003A80FC8A84700280ED0641C042CF4D384
:102E6000174C241F2068002803D003AD0FCD246821
:102E7000A047002007B0F0BD68460079FAE7F8B532
:102E8000089C9C46079D0346002C16D0641E14D453
:102E90000C4FE600AE5B9E4201D0BE420BD1E30078
:102EA0005B195C68002C08D013466246A04706995F
:102EB00008700020F8BD641EEBD50120F8BD0000AD
:102EC000CC450020FFFF000010B505200007008959
:102ED000000608D501208007006B000403D400F031
:102EE0001FFBC00701D0002010BD012010BD70479E
:102EF00070B5584A00248318049D002B18D0564AF8
:102F0000012B06D05349891E41180A2919D30120E3
:102F100070BD0978481E092808D88900091F515832
:102F20004E4B99421ED1800014501BE000BE19E0A8
:102F30004A8808784A49401880B2322100F09AFC49
:102F400010E04449491E4018C0B2411E092908D862
:102F5000800081188039C86F002803D0CC67804773
:102F600000E000BE2C70002070BDF8B50446401E85
:102F700009281CD83848A1000D18803DE86F0028AA
:102F800013D0364EB04210D0354F3221E01980B206
:102F900000F076FC3222012311463846EE6700F03D
:102FA0006DFB047000F070FBF8BD00BEF8BD00BE04
:102FB000F8BD70B50546284A00208300D358002B81
:102FC00004D0401C0A28F8DB002070BD8300401CA0
:102FD0000406D150240EF7D0FFF776FF002807D063
:102FE0001F482A46201880B2322100F043FC0CE032
:102FF000FDF79DFC1A48322204231146401E00F0C2
:103000003DFB4580047000F03FFB204670BD70B56D
:103010000446401E0D46092818D80F48A10008187C
:103020008038C06F00280FD00C4988420CD00C4863
:1030300032212618B0B200F023FCB0B22A46322169
:1030400000F018FC204670BD00BE00E000BE00206D
:1030500070BD0000FF37FFFFA8800020EF2E00208A
:1030600002C8000010B5362110233222880200F079
:1030700005FB0021124A03E0362B0DD0491CC9B2D2
:103080001C234B43D35CFF2BF6D1002141608160B0
:10309000818100F0F9FA10BD1C2359438918097A7F
:1030A0000170F2E710B504460423322236210548A8
:1030B00000F0E4FA04800121817000F0E5FA10BD0F
:1030C0005C48002002D80000FEB51C46089B022682
:1030D0000E4D6F4668C713462246FFF7D0FEFEBD71
:1030E00010B510460C4600F08DFA012809D13222A5
:1030F00001231146900200F0C1FA2178017000F01E
:10310000C3FA002010BD0020704700009448002042
:1031100070B5294B0026986AF643002801D0304646
:1031200000E00120C117020C090411430204986257
:103130002248046845682243294302604160D96AF5
:10314000002900D10126F117F20B4904DE62114378
:10315000046872044368224319430260416070BDF1
:1031600008B5002003460322014600901202012008
:10317000FEF703F808BD38B505242407208A02218C
:1031800088432082A08A0007FCD50D484188FF258E
:10319000013529434180FDF7C2FDFFF7E1FF012022
:1031A00000232A4601460090FDF7E7FF608A2021B0
:1031B0000843608238BD0000309000202890002035
:1031C00020000050704738B50025684605708A8891
:1031D000891D00F093F9454C6088002803D0C0B2E7
:1031E000FFF7C3FE658068460078012806D00028F6
:1031F00003D100210120FDF784FF38BD002101200B
:10320000FDF79DFF38BD10B5384C6078012802D01D
:10321000002805D00BE000210120FDF790FF03E01E
:1032200000210120FDF76DFF607800280CD0002000
:103230006070322000F0E6F9052804D12C4920788E
:10324000FFF7B7FE608010BD0120F1E738B500251B
:10325000684605708A88891D00F050F9234C608803
:10326000002811D06946227809788A4204D0C0B279
:10327000FFF7CDFE608003E0C0B2FFF776FE658009
:1032800068460078207038BD684619490078FFF715
:1032900090FEEFE770477047704710B50723322262
:1032A0003621144800F0EAF9044601210846FDF7EA
:1032B0008CFF014610480088208012206080012089
:1032C000A080A171204600F0DFF900F001F810BDE8
:1032D00010B50A4800F04AFB0122500200230146C3
:1032E000FEF735F810BDF3E77047000000800020BE
:1032F0000732002004D80000848000209B32002088
:1033000010B500206849C0434880FFF746FB10BD58
:1033100010B500216448C94381800078FFF792FB13
:1033200010BD10B5614805210170FF214170CD210C
:103330008170AB21C170002101714171FFF784F9E7
:1033400010BD70B57D205A49C000FFF732FE5649C6
:103350004880FFF769FB55494A790B7912021A43F5
:10336000521C92B20A71130A4B71524B9A4202D10B
:1033700000220A714A710446C07C1C234B49062274
:103380001B1A062B08DB23461433C01800F0B6F8CE
:10339000E07C801DE0740FE025462035287C1F234B
:1033A0001B1A062B07DB3134001900F0A7F8287C24
:1033B000801D287400E000BEFFF737FB70BD70B5BC
:1033C0000C4605460C203C49684340188078FF288D
:1033D00015D0354E3570B078FFF7C7FD60880838D6
:1033E000092805D2A088002802D1E0887D2808D0CD
:1033F0007D203249C000FFF7DCFDB08001E0FFF71F
:10340000A0FF21462846FFF728F970BD442800D1C7
:1034100097E7704710B5322000F0F4F8032803D086
:10342000052801D0042801D1FFF78BFF10BD70B52E
:10343000234D441BA8420BD00BDC224C041907D0AF
:10344000214DEC4204D14C88122C01D1FFF74CFFE6
:1034500070BD022CFCD0032CFAD14C88132C1DD04B
:103460000ADC022C11D0052C12D0082C13D00C2C05
:10347000EED1FFF711FF70BD172C03D01A2C10D01E
:103480001B2CF8D1FFF706FF70BDFFF79BFE70BD48
:10349000FFF799FE70BDFFF7D9FE70BDFFF723FF60
:1034A00070BDFFF7F8FE70BDE4900020D0800020D2
:1034B00001330020FFFF0000848000201133002032
:1034C00005D80000EFC7FFFF0D60FFFF064C012588
:1034D000064E05E0E36807CC2B430C3C98471034BC
:1034E000B442F7D3FCF7B8FF184900204849002040
:1034F00003B40148019001BDD939030003B4014868
:10350000019001BD8139030003B40148019001BD60
:10351000E727030003B40148019001BD7F65020065
:1035200003B40148019001BDF92B030003B4014825
:10353000019001BDBD1E030003B40148019001BD0F
:10354000012C030003B40148019001BD1B300300AE
:1035500003B40148019001BD6B30030003B401487E
:10356000019001BD8F1F030003B40148019001BD0C
:10357000672D030003B40148019001BDB18C020026
:1035800003B40148019001BDAB8C020003B40148B3
:10359000019001BDDF89020003B40148019001BD23
:1035A000598C020003B40148019001BD7B64020004
:1035B00003B40148019001BD8D64020003B40148C9
:1035C000019001BD6F39030003B40148019001BDB2
:1035D0009D1B020003B40148019001BDDF290300D7
:1035E00003B40148019001BD032B030003B401485B
:1035F000019001BD218D020003B40148019001BD7D
:10360000F91B020003B40148019001BDAD24030081
:1036100003B40148019001BD6F3C030003B40148AD
:10362000019001BD437A020003B40148019001BD3D
:10363000151D020003B40148019001BD3DA4020024
:1036400003B40148019001BD0FB0020003B401486A
:10365000019001BDA3A2020003B40148019001BD85
:10366000FBA2020003B40148019001BD99A202002F
:1036700003B40148019001BD6B96020003B40148F8
:10368000019001BD7D21030003B40148019001BDFB
:10369000AD21030003B40148019001BDEF610200B8
:1036A00003B40148019001BD5350020003B4014826
:1036B000019001BD2D50020003B40148019001BDED
:1036C00031D2020003B40148019001BDF13B030077
:1036D00003B40148019001BD0B8C020003B4014802
:1036E000019001BD398B020003B40148019001BD76
:1036F0000739030003B40148019001BD9D2A03006E
:1037000003B40148019001BD132D030003B4014827
:10371000019001BDED1B020003B40148019001BD01
:10372000FB2A030003B40148019001BD452F0300AB
:1037300003B40148019001BD6F62020003B4014867
:10374000019001BD5F62020003B40148019001BD18
:10375000198A020003B40148019001BDE78C020000
:1037600003B40148019001BD4F62020003B4014857
:10377000019001BD2D1E030003B40148019001BD5D
:103780002D27030003B40148019001BD1B65020011
:1037900003B40148019001BD452A030003B4014868
:1037A000019001BDA995020003B40148019001BD3B
:1037B000A996020003B40148019001BD8B98020054
:1037C00003B40148019001BD9198020003B401487F
:1037D000019001BDB339030003B40148019001BD5C
:1037E0006B23030003B40148019001BD29240300A9
:1037F00003B40148019001BD9D99020003B4014842
:10380000019001BD619C020003B40148019001BD1B
:103810005FE1020003B40148019001BD8BE10200A9
:1038200003B40148019001BD3DE1020003B4014829
:10383000019001BDE398020003B40148019001BD6D
:103840005F99020003B40148019001BD499802004C
:1038500003B40148019001BDC398020003B40148BC
:10386000019001BD23AD020003B40148019001BDE8
:10387000E127030003B40148019001BD1F260300A6
:1038800003B40148019001BDB126030002E008C85D
:10389000121F08C1002AFAD170477047002001E0CA
:1038A00001C1121F002AFBD17047000010B500288B
:1038B00023D0124B0022001F196803E0814203D875
:1038C0000A4649680029F9D1002A0AD01368841AE7
:1038D0009C4204D1006818181060104602E0506045
:1038E00000E01860002907D002680B1A934203D148
:1038F0000B68D21802604968416010BD4C4B002033
:10390000F0B50B30C108C900144F0026144A0FE06F
:1039100003688B420BD38B4205D95C1A4318456868
:1039200030C3083B00E04368136002C004E0021D9E
:1039300010680028ECD13046002803D138680028F0
:1039400001D00020F0BD064A06481060064A121A4F
:10395000D208D20044C001203860D7E7504B002085
:103960004C4B0020F4900020F09100200149886029
:1039700070470000288000200101000A04280A0482
:103980000203AA0055032A00A001FFFF2C0100003A
:103990000A0000007D7202000B0000009377020015
:1039A0000C000000F37602000D0000009972020086
:1039B0000E000000CB7202000F0000001B77020017
:1039C00010000000F57202001200000037730200C0
:1039D000110000007D73020013000000A7730200B5
:1039E00014000000D17302001500000003760200ED
:1039F00016000000357602001B000000177402005C
:103A00004D0000008F760200170000004977020089
:103A100018000000337502001900000077750200DD
:103A20001A000000BD7502001C000000B5770200FE
:103A30001D000000D57702001E0000006B77020019
:103A40001F0000009374020020000000E3740200D5
:103A5000210000001B780200490000005978020094
:103A600000080000690C00200100000065780200D9
:103A7000090000007D78020005000000A778020020
:103A800006000000D1780200020000003579020033
:103A900007000000F978020000000000237902000E
:103AA000030000009579020004000000B7790200CD
:103AB00008000000217A02004C000000A97B0200EF
:103AC0009039002026000000C4410300C03A0020C5
:103AD000AC05080006000100850D0020110E002035
:103AE0006F0F0020890F0020FF003F00FF03FF0140
:103AF0000028010002000200D43B0020032801003E
:103B000005000500D63B0020292A01001200000014
:103B1000000000000328010005000500DB3B002039
:103B2000242A010012000000000000000328010008
:103B300005000500E03B0020252A010012000000DE
:103B4000000000000328010005000500E53B0020FF
:103B5000272A0100120000000000000003280100D5
:103B600005000500EA3B0020262A010012000000A3
:103B7000000000000328010005000500EF3B0020C5
:103B8000282A0100120000000000000003280100A4
:103B900005000500F43B0020232A01000800000076
:103BA000000000000328010005000500F93B00208B
:103BB0002A2A010012000000000000000328010072
:103BC00005000500FE3B0020502A01000700000010
:103BD000000000000A18020000292A020100242A1D
:103BE000020200252A020300272A020400262A02D4
:103BF0000500282A020600232A0207002A2A0208B2
:103C000000502A00343C00204C3C00205A80002008
:103C10000300010000700000FD1F00200270000082
:103C200053200020037000009D2000200338000076
:103C3000D7200020143C0020010000001C3C002084
:103C40000200000000000000000000002C3C0020EA
:103C5000010000002F2A93A6BDD84152AC0B109949
:103C60002EC6FEED08000020EE8D0CE1F04A0CB3EC
:103C700025DC536A68862D0400004F43313C939243
:103C800042E6A876FA3BEFB4875A040000D8B0CBDE
:103C900064D54D11E594C51D66BB8E7F8B12000067
:103CA00017B967984C664C01963331B1915900159C
:103CB0000200002368EC521E6244749A1BD18BAB45
:103CC00075B66E1200009EE7BA08B9A948ABA1AC60
:103CD000031C2E0D296C22000028D5E1C1E1C54747
:103CE00029B55765C3BA47159E1A00008C09E0D163
:103CF000815442408E4FD2B377E32A7700280328BD
:103D000002290129FC3C00200200010010001000E3
:103D1000543C0020FE3C0020020001001300130070
:103D2000643C00204C490020100008000100000005
:103D300000000000023D0020020001000D000D0007
:103D400008490020FE3C002002000100130013007F
:103D5000773C00205C4900201000080001000000B2
:103D600000000000023D00200200010009000900DF
:103D7000E0480020FE3C0020020001001300130078
:103D80008A3C00206C490020100008000800000058
:103D900000000000023D00200200010010001000A1
:103DA000BC480020FE3C002002000100130013006C
:103DB0009D3C00207C490020100001020200000010
:103DC00000000000003D0020020009000200000089
:103DD00000000000023D0020020001000B000B006B
:103DE000A4480020FE3C0020020001001300130044
:103DF000B03C00208C4900201000010002000000AF
:103E000000000000023D0020020001000B000B003A
:103E1000B0480020FE3C0020020001001300130007
:103E2000C33C00209C49002010000102010000005A
:103E300000000000003D0020020009000200000018
:103E400000000000023D0020020001000C000C00F8
:103E5000EC480020FE3C002002000100130013008B
:103E6000D63C0020AC4900201000410014000000A6
:103E700000000000003D00200200090002000000D8
:103E800000000000023D0020020001000C000C00B8
:103E9000D0480020FE3C0020020001001300130067
:103EA000E93C0020BC49002010000902320000005B
:103EB00000000000003D0020020009000200000098
:103EC00000000000023D0020020001000A000A007C
:103ED000FC48002036000000043D00201D000000CA
:103EE00065300020A5300020C9210020000000001E
:103EF000FF000000000000000000000000000000C3
:103F0000000000000000000000000000144200203B
:103F10002C4200206A800020030001002F2A93A673
:103F2000BDD84152AC0B10992EC6FEED0800002002
:103F3000EE8D0CE1F04A0CB325DC536A68862D0443
:103F400000004F43313C939242E6A876FA3BEFB42F
:103F5000875A040000D8B0CB64D54D11E594C51D37
:103F600066BB8E7F8B12000017B967984C664C01B8
:103F7000963331B1915900150200002368EC521EAE
:103F80006244749A1BD18BAB75B66E1200009EE72B
:103F9000BA08B9A948ABA1AC031C2E0D296C2200AC
:103FA0000028D5E1C1E1C54729B55765C3BA471512
:103FB0009E1A00008C09E0D1815442408E4FD2B34A
:103FC00077E32A770028032802290129C43F00202B
:103FD00002000100100010001C3F0020C63F00201E
:103FE00002000100130013002C3F0020CC490020E8
:103FF000100008000100000000000000CA3F00207F
:10400000020001000D000D0008490020C63F0020FD
:1040100002000100130013003F3F0020DC49002094
:10402000100008000100000000000000CA3F00204E
:104030000200010009000900E0480020C63F0020FE
:104040000200010013001300523F0020EC49002041
:10405000100008000800000000000000CA3F002017
:104060000200010010001000BC480020C63F0020E4
:104070000200010013001300653F0020FC490020EE
:10408000100001020200000000000000C83F0020F4
:10409000020009000200000000000000CA3F0020EA
:1040A000020001000B000B00A4480020C63F0020C6
:1040B0000200010013001300783F00200C4A00208A
:1040C000100001000200000000000000CA3F0020B4
:1040D000020001000B000B00B0480020C63F00208A
:1040E00002000100130013008B3F00201C4A002037
:1040F000100001020100000000000000C83F002085
:10410000020009000200000000000000CA3F002079
:10411000020001000C000C00EC480020C63F00200B
:1041200002000100130013009E3F00202C4A0020D3
:10413000100041001400000000000000C83F0020F3
:10414000020009000200000000000000CA3F002039
:10415000020001000C000C00D0480020C63F0020E7
:104160000200010013001300B13F00203C4A002070
:10417000100009023200000000000000C83F0020CB
:10418000020009000200000000000000CA3F0020F9
:10419000020001000A000A00FC480020360000006E
:1041A000CC3F00201D00000065300020A53000201D
:1041B000C921002000000000FF00000000000000F6
:1041C00000000000000000000000000000000000EF
:1041D0000000000000D800001D22002002D80000CE
:1041E000912200200E300000CD220020003000007F
:1041F000F923002004D800006B24002003D800001D
:104200004524002006D80000EF24002003380000D9
:1042100073250020DC41002001000000D441002073
:1042200001000000E4410020050000000C420020D5
:104230000100000001020304050600000A0000005E
:10424000000000000000000000000000000000006E
:1042500000001700080010000000640000000000CB
:10426000FF00000000000000000000003600000019
:104270009C4300201D00000065300020A530002078
:10428000C921002000000000FF0000000000000025
:10429000000000000000000000000000000000001E
:1042A000000000001C0000007F2C0020992C002042
:1042B000FF000000000000000000000000000000FF
:1042C000B0450020A480002006000100120000007C
:1042D000640000000000000000000000000000007A
:1042E000000000000000000000002F2A93A6BDD8A7
:1042F0004152AC0B10992EC6FEED08000020EE8D49
:104300000CE1F04A0CB325DC536A68862D040000EA
:104310004F43313C939242E6A876FA3BEFB4875A7A
:10432000040000D8B0CB64D54D11E594C51D66BB23
:104330008E7F8B12000017B967984C664C0196333C
:1043400031B1915900150200002368EC521E6244FD
:10435000749A1BD18BAB75B66E1200009EE7BA083B
:10436000B9A948ABA1AC031C2E0D296C2200002872
:10437000D5E1C1E1C54729B55765C3BA47159E1AAE
:1043800000008C09E0D1815442408E4FD2B377E3D4
:104390002A770028032802290129000092430020DF
:1043A0000200010010001000EA42002094430020A7
:1043B0000200010013001300FA4200204C4A0020C2
:1043C00010000800010000000000000098430020D9
:1043D000020001000D000D00084900209443002058
:1043E00002000100130013000D4300205C4A00206E
:1043F00010000800010000000000000098430020A9
:104400000200010009000900E04800209443002058
:104410000200010013001300204300206C4A00201A
:104420001000080008000000000000009843002071
:104430000200010010001000BC480020944300203E
:104440000200010013001300334300207C4A0020C7
:10445000100001020200000000000000964300204E
:104460000200090002000000000000009843002044
:10447000020001000B000B00A44800209443002020
:104480000200010013001300464300208C4A002064
:10449000100001000200000000000000984300200E
:1044A000020001000B000B00B048002094430020E4
:1044B0000200010013001300594300209C4A002011
:1044C00010000102010000000000000096430020DF
:1044D00002000900020000000000000098430020D4
:1044E000020001000C000C00EC4800209443002066
:1044F00002000100130013006C430020AC4A0020AE
:10450000100041001400000000000000964300204D
:104510000200090002000000000000009843002093
:10452000020001000C000C00D04800209443002041
:1045300002000100130013007F430020BC4A00204A
:104540001000090232000000000000009643002025
:104550000200090002000000000000009843002053
:10456000020001000A000A00FC4800202F3400204D
:1045700001340000152B002000340000392B0020EE
:1045800000380000EF2B002001380000912B0020A4
:1045900003380000292C002000C80000492C00200E
:1045A000103400006D2C0020FFFF0000412E002081
:1045B000A84500200100000001700000DD2C002053
:1045C00004700000FF2D00202F340020FD2A002061
:1045D000F12E0020C52C0020C93000202F2A93A6E0
:1045E000BDD84152AC0B10992EC6FEED080000203C
:1045F000EE8D0CE1F04A0CB325DC536A68862D047D
:1046000000004F43313C939242E6A876FA3BEFB468
:10461000875A040000D8B0CB64D54D11E594C51D70
:1046200066BB8E7F8B12000017B967984C664C01F1
:10463000963331B1915900150200002368EC521EE7
:104640006244749A1BD18BAB75B66E1200009EE764
:10465000BA08B9A948ABA1AC031C2E0D296C2200E5
:104660000028D5E1C1E1C54729B55765C3BA47154B
:104670009E1A00008C09E0D1815442408E4FD2B383
:1046800077E32A770028032802290129844600209D
:104690000200010010001000DC45002086460020CA
:1046A0000200010013001300EC450020CC4A00205A
:1046B0001000080001000000000000008A460020F1
:1046C000020001000D000D00084900208646002070
:1046D0000200010013001300FF450020DC4A002007
:1046E0001000080001000000000000008A460020C1
:1046F0000200010009000900E04800208646002071
:10470000020001001300130012460020EC4A0020B2
:104710001000080008000000000000008A46002089
:104720000200010010001000BC4800208646002056
:10473000020001001300130025460020FC4A00205F
:104740001000010202000000000000008846002066
:104750000200090002000000000000008A4600205C
:10476000020001000B000B00A44800208646002038
:104770000200010013001300384600200C4B0020FB
:104780001000010002000000000000008A46002026
:10479000020001000B000B00B048002086460020FC
:1047A00002000100130013004B4600201C4B0020A8
:1047B00010000102010000000000000088460020F7
:1047C0000200090002000000000000008A460020EC
:1047D000020001000C000C00EC480020864600207E
:1047E00002000100130013005E4600202C4B002045
:1047F0001000410014000000000000008846002066
:104800000200090002000000000000008A460020AB
:10481000020001000C000C00D04800208646002059
:104820000200010013001300714600203C4B0020E1
:10483000100009023200000000000000884600203D
:104840000200090002000000000000008A4600206B
:10485000020001000A000A00FC48002036000000A7
:104860008C4600201D00000065300020A53000208F
:10487000C921002000000000FF000000000000002F
:104880000000000000000000000000000000000028
:104890000000000001D80000E130002009D800002D
:1048A000073100204144432056616C75652031007A
:1048B0004144432056616C75652032004C454420CC
:1048C000426C696E6B79205370656564000000006E
:1048D000496E64696361746561626C650000000023
:1048E0004C45442053746174650000004275747433
:1048F0006F6E205374617465000000004C6F6E672A
:104900002056616C75650000436F6E74726F6C2089
:10491000506F696E74000000544B0020008000202E
:10492000D80000009C380020544B0020209000202C
:10493000D00100009C38002008090800D028080099
:10494000300700009C380020800C000020EE8D0C09
:10495000E1F04A0CB325DC536A68862D4F43313CA5
:10496000939242E6A876FA3BEFB4875AD8B0CB646C
:10497000D54D11E594C51D66BB8E7F8B17B9679821
:104980004C664C01963331B1915900152368EC52B5
:104990001E6244749A1BD18BAB75B66E9EE7BA0843
:1049A000B9A948ABA1AC031C2E0D296C28D5E1C1D7
:1049B000E1C54729B55765C3BA47159E8C09E0D1B3
:1049C000815442408E4FD2B377E32A7720EE8D0C8C
:1049D000E1F04A0CB325DC536A68862D4F43313C25
:1049E000939242E6A876FA3BEFB4875AD8B0CB64EC
:1049F000D54D11E594C51D66BB8E7F8B17B96798A1
:104A00004C664C01963331B1915900152368EC5234
:104A10001E6244749A1BD18BAB75B66E9EE7BA08C2
:104A2000B9A948ABA1AC031C2E0D296C28D5E1C156
:104A3000E1C54729B55765C3BA47159E8C09E0D132
:104A4000815442408E4FD2B377E32A7720EE8D0C0B
:104A5000E1F04A0CB325DC536A68862D4F43313CA4
:104A6000939242E6A876FA3BEFB4875AD8B0CB646B
:104A7000D54D11E594C51D66BB8E7F8B17B9679820
:104A80004C664C01963331B1915900152368EC52B4
:104A90001E6244749A1BD18BAB75B66E9EE7BA0842
:104AA000B9A948ABA1AC031C2E0D296C28D5E1C1D6
:104AB000E1C54729B55765C3BA47159E8C09E0D1B2
:104AC000815442408E4FD2B377E32A7720EE8D0C8B
:104AD000E1F04A0CB325DC536A68862D4F43313C24
:104AE000939242E6A876FA3BEFB4875AD8B0CB64EB
:104AF000D54D11E594C51D66BB8E7F8B17B96798A0
:104B00004C664C01963331B1915900152368EC5233
:104B10001E6244749A1BD18BAB75B66E9EE7BA08C1
:104B2000B9A948ABA1AC031C2E0D296C28D5E1C155
:104B3000E1C54729B55765C3BA47159E8C09E0D131
:104B4000815442408E4FD2B377E32A7700000000B1
:044B50000000000061
:040000052000045182
:00000001FF
