:020000042000DA
:1000000000980020A5040020AD040020C5040020B5
:1000100000000000000000000000000000000000E0
:10002000000000000000000000000000DD040020CF
:100030000000000000000000F5040020F70400208C
:10004000DD210020CB2200200D310300B922002049
:10005000452200208D310300DD220020EB2200200C
:10006000F9040020091A00202B230020AD310300E1
:1000700057810200F9040020F9040020F90400204F
:10008000F9040020F9040020F9040020831900205D
:10009000871900208B1900208F1900209319002048
:020000042000DA
:1001600032000000C5060020CB1E002073280020AE
:10017000000000000000000063800200BD8002005B
:10018000B50A0020FB8002001981020035810200BF
:100190005D8102007D2000205D0B0020A10A00206F
:1001A000AB0A002000000000000000003F0000003B
:1001B000F48B002000040000740B080048010000CC
:1001C0006807080000040000C80C080020050000B3
:1001D000000000002000000048000000580000005F
:1001E0006800000004010000160100002801000062
:1001F0002E010000202A00008E2E000001000000C9
:1002000088130000551F0020E9600200FD930200E2
:10021000C311002019280300A57402000D06002058
:1002200003000000D5200200A128002004000000E7
:10023000D74902000F490200290C002063910200F7
:10024000B7910200BF910200078202007182020092
:1002500030420020AD8302009384020041850200F9
:1002600015860200378602005F860200758602004E
:10027000F9870200258902005D8A0200D38C020002
:10028000098D02000F900200438D0200278E0200AC
:10029000F98E0200478F0200170A0020D58F020056
:1002A00049510200775102002F5202001000000055
:1002B00020030000803E000000000000000000005D
:020000042000DA
:1002C000504600030003983A6400F401B80B000C98
:1002D000B80B120030003000CD009A01120024004B
:1002E00030006400B0001800280012001200D0078F
:1002F0000000FFFF00000000000000000000000000
:100300001F00000244413134353833000000000042
:1003100000000000000000000000000000000000DD
:0403200000000000D9
:020000042000DA
:10034000FFFF010000C201000000000000000000EB
:100350000000F40101000116001203030A1811073E
:100360002F2A93A6BDD84152AC0B10992EC6FEED94
:10037000000000000000000000000000000000007D
:10038000000000000000000000000000000000006D
:10039000000000000000000000004449414C4F47AD
:1003A0002D505250482D424C494E4B5900000000F0
:1003B000000000000000000000000000000000003D
:1003C000000000000000000000000000000000002D
:1003D0000000000000000000050000CAEA80D0070D
:0403E000064064323D
:020000042000DA
:100440000348854603F0D2FB00480047C72002005E
:10045000009800200F4906200880FF200E49013037
:1004600008600E4988683E2290432E308860002242
:10047000052000070280018A0F231B021943018215
:1004800001210748C90404C1401E0028FBDA62B6F6
:10049000704700000034005080E100E0003300505D
:1004A000FF0B00001548804715480047042071469F
:1004B000084203D0EFF3098012490847EFF30880A0
:1004C0001049084704207146084203D0EFF3098021
:1004D0000D490847EFF308800B490847042071468F
:1004E000084203D0EFF3098008490847EFF308807A
:1004F00006490847FEE7FEE7FEE700005504002036
:100500004104002071050020110500203D0D002050
:1005100005221207518A8023194351821249036828
:100520000B6043684B6083688B60C368CB60036972
:100530000B6143694B6183698B61C369CB6108625D
:100540000A48836A4B62C36A8B62036BCB62C36BDC
:100550000B63436B4B63806B8863908A800601D585
:1005600000BE7047FEE700000018080000ED00E044
:10057000052109070A8A04231A430A820A8A0223E8
:100580001A430A820A8940231A430A811B4B01221B
:100590001A601B4B08221A804A8A80231A434A8217
:1005A000184A036813614368536183689361C368A1
:1005B000D361036913624369536283699362C369B8
:1005C000D36210631048836A5363C36A9363036BF7
:1005D000D363C36B0B4A40321360436B5360806B31
:1005E0009060888A800608D500BE488A012280086B
:1005F0008000D203104348827047FEE780E200E0AB
:10060000003300504018080000ED00E070B51646B9
:100610000C460546012802D00C2D26D10DE00622FD
:100620002149224803F0F4FA00281ED006221F496F
:10063000304603F0F3FA062012E01D4D29680878D1
:10064000C00610D52078202803D200202070042076
:1006500070BD0A7E30463A3103F0E0FA2868007E29
:100660002070002070BD012070BD32462146284612
:1006700003F0DAFA70BD70B50E480F49C405228840
:1006800080252A4322800D4A53891B0701D4401E2E
:10069000FAD20B4A012010600622044803F0BEFA89
:1006A0002088A843208070BD383E030000800020D1
:1006B000C0060800A0860100D47F0400200000507E
:1006C0000080004008B500F056FA002405252D07EB
:1006D00009E004216846009403F0ACFA002816D023
:1006E00000F0A7F913E02889000610D50120800743
:1006F000006B00040BD403F0A3FAC00707D1042059
:1007000003F0A4FA064603F0A7FA002EE1D172B670
:1007100001F05EFE042806D002280BD0032809D081
:10072000012810D010E04E480078012801D00320A5
:1007300000E0022000F00AF830BF4A4801690422B4
:100740009143016100E030BF62B6CCE7F8B50446E2
:100750006846052504702D07288A0421084328824D
:100760004148424FC0690126012811D9032C18D1F4
:1007700003F078FA002814D003F07AFA002810D099
:10078000032003F07BFA00280BD00220387009E028
:10079000032C06D1032003F071FA002801D03E702B
:1007A00000E0022468460470204600F023F8002090
:1007B0002F49022C087001D0032C1AD12D494A88E8
:1007C000FF2301339A434A806A882B4B1A804A8858
:1007D00032434A8000900099491C00911429FADBA9
:1007E000698989088900491C698169894906FCD59C
:1007F0006880F8BD10B5022801D0032828D1194916
:100800000B69042213430B61052109074B8A20243D
:10081000A3434B820B8A022423430B82102302281A
:10082000488A16D0104348827F220888920180248B
:10083000204308800020401CC0B20A28FBD3488A0D
:10084000184348820D48521E42610888A043088020
:1008500010BD10434882488A9843488210BD00006A
:100860005402080000ED00E0E0010020C40608008A
:1008700048800020200000504A8000200080004076
:10088000704700002C480178002902D08021417077
:1008900070472A49002008702949C87070472648C7
:1008A0000178002902D0812141707047234901203D
:1008B00008702349C87070471F480178002902D08A
:1008C00082214170704700BE1C49022008701C49FB
:1008D0000120C8707047002804D0012803D00228E6
:1008E00002D1E9E7CEE7DAE770471449002009783A
:1008F000002904D0012903D0022900D10220704729
:10090000012070470C48C07870470020EFF3108139
:10091000012282F31088052212071289120605D4DB
:100920000848028901231A4302811846002900D091
:10093000012181F3108870470780002054020800CD
:10094000C60608000033005070B505200007018975
:100950003022914301810189802211430181018963
:1009600089088900491C01810189082319430181F3
:10097000B5490C8814430C80448A9C434482058901
:10098000402425430581058A0426B5430582858ACE
:10099000AD07FCD5AD4E002575600E8801252E43B0
:1009A0000E804D89AE05AA4D0E8801D52E4300E07C
:1009B000AE430E800D887826B54328350D800D880E
:1009C000062635430D80458A1D4345820B88934397
:1009D0000B800289A24302814889800503D59A4988
:1009E00005206031888001208007016882159143CD
:1009F0000160984801683F225202914342148918CD
:100A00000160016802031143016070BD10B5924896
:100A100003F03AF910BD70B58B4C6088C006050F25
:100A200003F038F961881E2291436A001143618006
:100A300070BD70B589490120C863C86B0028FCD11E
:100A400001208007C169864800220368994200D2CC
:100A500002607E4C01266378824D002B04D06270C8
:100A6000016003F01DF911E0026819238A1ADB0105
:100A70009A4214D3016003F013F92988884201D9FE
:100A8000411A00E0091A89B2182908D328800120E8
:100A900003F00CF903F010F9002800D1667070BD66
:100AA00008B503F00FF9009008BD08B503F010F980
:100AB000009008BD08B56C4901204A695206D20F62
:100AC00013D04A699206D20F0FD000220A61009219
:100AD000FF225F32009B5B1C00939342FAD349696B
:100AE000C907C90F02D003F0F9F8002008BD1FB5EF
:100AF000684601F0D2F8009803F0F6F81FBD10B573
:100B00005A4A0020117800290DD054490120C863A9
:100B1000C86B0028FCD101208007C06954490968CE
:100B2000884201D2012010BD00201070FFF7DDFEC9
:100B3000022803D0FFF7D9FE01280BD14D49082028
:100B4000088005200007818A8906FCD4418A80221A
:100B500091434182002010BD0020704710B54649E6
:100B600000200860FFF752FF01208007016B490059
:100B70004908016310BD10B53C49012008703D498A
:100B80000820088003F0B6F800F0E4FDFF240134EB
:100B90000D202146800103F0B3F8FFF76CFD02F051
:100BA0007AFE012003F0A0F801F0F2F8FFF7CCFE86
:100BB000042000F041F8072000F03EF80A2000F081
:100BC0003BF8062000F038F80B2000F035F8012043
:100BD00000F032F8022000F02FF8002000F02CF88E
:100BE0002648006803F092F800F08BF800F047FD0B
:100BF000A005016821430160FFF779FF0024FFF79A
:100C000041FE02F067FA02F01CFFFFF7A7FF052084
:100C10000007C4820C494888E0229043A0304880F5
:100C2000012003F079F810BD154910B5884200D0B5
:100C300000BE03F077F810BDC106C90E0120884040
:100C40001049086070470000200000500C80002010
:100C50000010000000020040E2040000C00000405C
:100C60007C04080078040800001000500680002072
:100C700018540020003300508C030800049000201A
:100C80001111111180E200E0FFB581B01F460E4640
:100C90004D780C78002003F04BF8042824D000286D
:100CA0001DD121E04148816E2E20604309188888BB
:100CB0000207120F130003F041F8070505050F05A1
:100CC0000F050F008204920E062A05D27278012ABF
:100CD00012D0072210438880641C6407640F2846E2
:100CE0006D1EEDB20028DDD13B463146039A0198D6
:100CF00003F02AF805B0F0BD204603F02BF80020E1
:100D0000F8E770B52A480378021D0021294D07E055
:100D1000CC00165D002E01D12418A560491CC9B273
:100D20009942F5D370BD028908892349101A80B20F
:100D3000884201D90120704700207047816920391D
:100D4000897F082905D21B4A8900103251588161D8
:100D50007047FEE71A48194901611A4941611A4969
:100D600081611A49C1611A4901621A4941621A49ED
:100D700081621A49C1621A4901631A4941631A49D9
:100D800081631A49C1630E4819494030816019498D
:100D9000C16001201849C00608601849CA691202DA
:100DA000120ACA611449803908607047D8020800E5
:100DB00004060800804300203075000094270300DB
:100DC0000084004062B600DF28A30200704701DF04
:100DD0001CCA0200F8BD02DF40CB0200F5E703DFCA
:100DE00084D4020004DF89B0941B030005DF00B542
:100DF000EC0C030070BD07DF80E100E000ED00E0D7
:100E000070B516460D46104602F092FF002869D0D4
:100E1000340A304602F08CFF012812D0A87A1E282E
:100E200011D029460A310E2845D019DC801E030056
:100E300002F084FF0B255829582D58315839583D58
:100E40005800022070BD3146274802F089FF00217A
:100E5000204602F08BFF0221304602F08DFF41E078
:100E600018283CD006DC102819D012282BD01628C0
:100E700038D130E0522822D0D22833D127E0204682
:100E800002F080FF2EE0204602F082FF2AE020469A
:100E900002F084FF26E0204602F086FF22E0204692
:100EA00002F088FF1EE0204602F08AFF1AE020468A
:100EB00002F08CFF16E0204602F08EFF12E0204682
:100EC00002F090FF0EE0204602F092FF0AE020467A
:100ED00002F094FF06E0204602F096FF02E0204672
:100EE00002F098FF002070BD01280000F8B50D4603
:100EF000064681002B48EA884458521C20686B89BA
:100F0000018F294F51430091014640314A89C989D7
:100F1000511A8AB2991A89B2B94214D29A4212D09D
:100F2000294602F07DFF2D892049009802F07EFFBE
:100F30002818801C4034E0823002401C80B204211A
:100F400002F01AFFF8BD2821304602F075FFF8BD07
:100F5000F8B50546870013480C46C059C988006893
:100F6000114E024640325389D2899A1A92B28B1A94
:100F70009BB2B34211D20B4E8A420ED002F062FFF6
:100F8000F05905225F30611C02F048FE2802401C27
:100F900080B2052102F0F0FEF8BD2821284602F0BB
:100FA0004BFFF8BD4C030800FF7F00001027000036
:100FB00070B50446007800250D2801D00A2200E013
:100FC00002225A494B7A002B06D00D2804D0637CAC
:100FD000032B01D0432551E0097A8A4339D10D28EA
:100FE00009D00E2802D00F2803D134E0607C0328FA
:100FF00004D3402542E0607C0328FAD8A07C042872
:10100000F7D20A2908D0607C012822D0022820D0FB
:101010006078032809D811E002F01AFF012806D1F0
:101020006078032803D0002801D0492526E002F08B
:101030000FFF002802D160780228F6D83020035D27
:1010400022462046E17C3132143000F019F8054682
:1010500014E0422512E002F0FBFE012807D160787F
:10106000052804D1A01D02F0F9FE0028DDD002F011
:10107000EFFE002802D160780228D6D8284670BD3D
:10108000FFB5002086B001216A4611700446059123
:101090000021002C06D0089D099A1F239A4234D9BA
:1010A000402032E01C23069D079AF7E76B185E7814
:1010B000330002F043FE1D26101010101010101007
:1010C0001026262626262626262626262626101002
:1010D000101010102600059B03E06F46FF5CB7421E
:1010E00004D05B1E5BB2002BF7DA03E0002B01DBC0
:1010F0004A2006E0059B6F46FE54059B5B1CDBB255
:1011000005936B5C491C5918C9B2914201D2002861
:10111000CCD0914202D04A200AB0F0BD641CE4B2A7
:10112000022CF9D20028B3D0F6E700009805080099
:1011300070B5EFF31085012080F31088264802F087
:1011400093FE0446002D1DD0012080F31088002C52
:1011500023D020462038C08B204988421DD1618988
:10116000208902F087FE05000ED021461031A389A8
:1011700062892089A847002806D001280DD00228BE
:101180000BD105E00020E0E7204602F079FE04E004
:10119000114821460C3002F079FEEFF31084012053
:1011A00080F310880C480068002802D1012002F06A
:1011B00073FE002C03D0012080F3108870BD002046
:1011C000FAE710B5BC21064802F06CFE0549012083
:1011D00002F06EFE10BD0000A80508003883000074
:1011E000040608003111002000B502790021130027
:1011F00002F0A4FD0C34070735352035353535357B
:1012000027344279042A27D8C279530707D05207D6
:10121000520F012A03D0042A01D0052A1CD1827959
:10122000002A01D0012A17D1007AC01F0A2816D33C
:10123000062114E04279521E0A2A10D30822427174
:101240000DE0407942070AD04007400F012806D040
:10125000042804D0052802D00A2100E0072108460E
:1012600000BDF3B581B001980C460102CA1D0223EE
:1012700032480E3102F022FE047001990546022721
:101280002F488E00002C06D0042C16D0062C10D02F
:10129000072C3FD108E0815905224968897C11401B
:1012A00069708059C77335E0084602F00DFE68701A
:1012B00030E080590F21C1732CE00446805940680A
:1012C000417C012902D1007E01280FD0019802F053
:1012D00001FE01210028A0590BD04268D07D0028D2
:1012E0001CD001281AD004280DD00FE0002068700F
:1012F0000DE04068C27D022A01D0042A06D1007C9C
:1013000002280BD102E0107C022807D06F70A1598F
:101310000320C873284602F0E3FDFEBD6970F6E7BE
:1013200001460A780120042A01D900207047497833
:101330000029FBD00129F8D170470000021C0000F1
:1013400028050800FFB589B00D46002069460590C4
:1013500008720B98000A009002F0BCFD07460B983B
:1013600002F0E6FC00287DD00B982978000A840062
:10137000784E012963D0042904D0062948D00729D2
:1013800068D125E03059C17B032901D0042961D1FE
:10139000697800291AD040681022A91C02F03EFC8E
:1013A000002F06D03159C87B032807D0042808D065
:1013B00050E03059C07B032803D04BE00B20C873AA
:1013C00048E00521009802F091FD43E00120B6E0DD
:1013D0003059C07B0E283DD1009802F075FD0021E8
:1013E00003E02A18401C9170C0B21028F9D3688A13
:1013F00069460883294606A808221431023002F003
:101400000DFC06ABAA1C3946009802F075FD21E0E0
:101410003059C07B0F281DD1AA1C0A21009802F068
:1014200071FD002F04D03946009802F071FD11E0E3
:1014300000231A463946009802F070FD0AE0012F99
:1014400008D10B9802F074FC01281CD0002801D0B0
:10145000022005906846007A002811D002AA0521D2
:10146000009800E00CE002F04DFD6846027A602032
:1014700002436846027201233946009802F04EFD8D
:1014800005980DB0F0BD3059C07B0228E2D16878D4
:10149000002851D002210B9802F06EFC305907222F
:1014A0004068A91C173002F0B9FBE878002804D185
:1014B00030594068407C01283AD0009802F034FD51
:1014C000002837D0297A009802F034FD002833D064
:1014D000009802F035FD0121009802F037FD002848
:1014E0002CD030594068417E00292BD0042929D0C6
:1014F000C17E027D1140C17630594068017F427D36
:10150000114001776846007A0028A7D1305902219E
:1015100042680098173202F0F5FC305941684031BA
:10152000897B002913D004210098FFF79AFE91E7E8
:10153000022004E0062002E0082000E003206946C3
:1015400008728BE70021C17630594068D9E70B213A
:10155000C1737FE72805080010B50C4602F0FCFCBB
:1015600021888A004F4989580968002902D04E4BCA
:10157000C968995010BDF8B50E461046150A02F01C
:10158000D7FBAC00474F002817D0142815D01528DA
:1015900009D038596030C07BC00606D53D212846A9
:1015A00002F04AFC09E0022008E002F0DBFC01281E
:1015B00003D131462846FFF799FC002039590968C4
:1015C000002902D0384AC9681151F8BDFFB50F464D
:1015D0001546110A334A8800125881B012681E4617
:1015E000002A01D0D46803E02F4A00231458135076
:1015F000002C18D0201F42882C4B9A4213D100880F
:10160000602810D12046403002898A420BD1808860
:10161000002808D0A068002802D0204602F0A8FCCC
:10162000204602F0ABFC33462A463946019802F0C8
:10163000ABFC05B0F0BD70B510460D46140A02F0C3
:1016400077FB002819D0142817D015280BD015497E
:10165000A00008586030C07BC00606D53D2120465A
:1016600002F0EAFB09E0022070BD02F07BFC0128D9
:1016700003D129462046FFF76BFC002070BD70B5F2
:101680000B480378021D00210A4D07E0CC00165DCF
:10169000012E01D12418A560491CC9B29942F5D385
:1016A00070BD00004C03080020800020388300003B
:1016B00004060800A8450020052000070188302204
:1016C00011430180018803221143018070470520E6
:1016D0000007018830229143018001888908890030
:1016E0000180704730B5B4480023016DDB43002909
:1016F00001D01A4600E00122AF49026508390C68A2
:101700004D680C602A434A60426F002A01D01A4695
:1017100000E0012242670C6852024D680C602A43C7
:101720004A60026E002A01D01A4600E001220266D9
:101730000C6812014D680C602A434A60C26D002A91
:1017400000D10123C3650A68D8004B680A601843BA
:10175000486030BDFEB50020974E03462822002188
:10176000424392198C00491C13510A29FADB401C90
:101770000428F3DBFFF7B6FF02F05AF88E48002288
:10178000083802604260154600248C486900475AB8
:101790000120A04080B207421CD028206843801955
:1017A000A1004058411C19D0002810D0C117224672
:1017B00002F0F0FB2A0102F0EDFB7F4B083B1A68B8
:1017C0005B6810437C4A1943083A10605160641CFE
:1017D0000A2CDDDB6D1C042DD6DBFEBD00950194CB
:1017E00000BEE3E7F8B5164604460D460A461F4616
:1017F0000120002102F0CEFB220102F0CBFB6E4B58
:10180000083B1A685B6810401940084300D100BECD
:10181000032C00D104246A496001401869000818AB
:101820003E43C680F8BD70B504460D460A46012009
:10183000002102F0AFFB220102F0ACFB5E4A083A45
:101840001368526818401140084300D100BE032CB1
:1018500000D104245A49600140180121A940818027
:1018600070BD70B504460D460A460120002102F005
:1018700091FB220102F08EFB4F4A083A136852682E
:1018800018401140084300D100BE032C00D10424AD
:101890004B49600140180121A940418070BDFFB54E
:1018A00081B00C4605460A461F46012000210A9ECB
:1018B00002F070FB2A0102F06DFB3F4B083B1A68F7
:1018C0005B6810401940084300D100BE002E21463D
:1018D000284602D0FFF7C5FF01E0FFF7A4FF3B4613
:1018E00021462846039AFFF77DFF05B0F0BD70B58D
:1018F00004460D460A460120002102F04BFB22015E
:1019000002F048FB2C4A083A13685268184011400C
:10191000084300D100BE032C00D1042428496001F3
:10192000401800880121A940084000D0012070BD66
:1019300070B501242146133881400D4688B200F06D
:101940002AF884401F48C189A9430C43C48170BD53
:1019500010B50446133804280BD82046FFF7E8FFDB
:101960001549A000A03140188038406B002801D0F4
:10197000804710BDE106C90E012088401249086069
:1019800010BD1320E4E71420E2E71520E0E716205D
:10199000DEE71720DCE700280AD0411E4840C003DC
:1019A000010C002001E04908401C0029FBD100E0A7
:1019B000102080B27047000028900020B845002019
:1019C000003000500014005080E200E08307FF2246
:1019D000DB0E9A408907090E994000280BDA0007B0
:1019E000000F0838830842489B001818C3699343C6
:1019F0000B43C361704783083E489B001B1818685F
:101A0000904308431860704710B5FFF760FE05214A
:101A100009078888384AC30B104618D0374B1C88F2
:101A2000640714D51178890710D51988022211434B
:101A3000198019884908490019804468002C05D08C
:101A4000985E0421595E0A229A5EA04710BD8988DB
:101A5000C906FBD51178C907F8D0294901228A8027
:101A60000A8880239A430A8080680028EED0804745
:101A700010BDF8B505242407A58810263543A58098
:101A80001F4C00252581D2B262802A46D700054628
:101A9000FD40EEB255002D196E810E46FE40F6B2A5
:101AA0006E82521C042AF1DBE28903252D02000418
:101AB000800FAA4300020243E281E08A0904890FF1
:101AC000A84309020843E0820125A5800D486E0263
:101AD00006609806800E8030208029460920FFF796
:101AE00075FF054801782943017007480660F8BD75
:101AF00000ED00E000E400E038800020000200502B
:101B00000001005080E200E000E100E00843012114
:101B1000890303460B432E490B802E4B1843088044
:101B2000092002434A80704729490A880F239B01F4
:101B300000079A43800D02430A80704724482649D3
:101B4000028802231A430280491E02D302889207A8
:101B5000FAD400210181408970470AE000BF00BF2C
:101B600000BF00BF00BF00BF00BF00BF00BF00BF7D
:101B700000BF401EF2D2704770B5022251020446E7
:101B80004E003046FFF7C2FF1420FFF7E6FF002C9F
:101B900001D0092000E00720FFF7C6FFFFF7CEFFC6
:101BA00005460120FFF7D9FF022200213046FFF74A
:101BB000ADFF002C01D0092000E00720FFF7B4FFA3
:101BC000FFF7BCFF4019024A0021118070BD0000E0
:101BD0000015005001400000A086010008B58921D1
:101BE0000520000701810121614A49031180018814
:101BF00080221143018001888908890001805D48A5
:101C0000018A02221143018200F0ECF802F0C8F9C7
:101C100002F0CCF90020694601E00888401C0880E9
:101C200008889128F9D308BD08B5534900200880D9
:101C30004880534A514BD380FF23D2331381C8804D
:101C4000C32151804F4A082111806946088003E072
:101C50006A461188491C1180694609889129F7D381
:101C60006946088003E06A461188491C118069466C
:101C700009889129F7D3694601E00888401C08804B
:101C800008889128F9D308BD3F4A508091800120EF
:101C90001080D088C007FCD17047F1B5FFB0FFB00D
:101CA00094B011AC33480494008AA41C1090FFF740
:101CB00095FF314801880F9141880E913049CA88BB
:101CC0000D920A890C92C2880B92408B0A902F4881
:101CD0004088099048888446FFF7A6FF00252B46D8
:101CE000FF2111A8FFF7D0FF00210A460846049EF5
:101CF000275C365C7E40F607F60F8E401643491C83
:101D0000C9B2F2B2082906D1FFA9C96C4A556D1CA7
:101D10000021ADB20A461030FF2680B2B600B042B4
:101D2000E5D95B1C9BB2022BDAD3124910980882CA
:101D300014490020088010480F9901800E994180B5
:101D40000F490D9ACA800C9A0A810B9AC2800A9A8E
:101D500042830E4A0998508060464880052000075B
:101D600001888022914301807FB07FB015B0F0BD23
:101D700000020040E030005000240050808000004D
:101D800060280050202000500035005000260050F0
:101D900030B58E498E48CA05148880231C431480B0
:101DA0008C4C65892D0701D4491EFAD28A4C012139
:101DB00021608A4C018821808949408808801088E8
:101DC0009843108030BD00207047704770477047BF
:101DD0000020704701218907086B07221043086320
:101DE0007047704730B580497E4808607F494C2075
:101DF00008807E4C7E4B203C23827F497D48488072
:101E00007F487E4901807D491931418022214181ED
:101E10008121890001827B4941827B490183794983
:101E200011314183764A79492032918041227849A3
:101E300012018A80774ACA80764D1035CD810A8298
:101E40004A82921C8A826A1FCA82FF2246320A8311
:101E5000714A4A83714A592111807049704D20316D
:101E60000D8043254D806F4D5582D5228A80FF22FB
:101E7000D3320A816C4A4A816C4A8A816D4A6C4924
:101E800011805A496C4A60394A80CA8810252A4311
:101E9000CA80634A0A3A0A81544D684A403D6A80C2
:101EA000638208224A814E495C4A0988403A11827D
:101EB0004A49634A0988118062490978002901D09A
:101EC0003021018330BD4008704700B58BB05E4AB9
:101ED00042625E4A82625E4A42615E4AC2625E4A13
:101EE00002605E4A02625E4A42605E4AC2613E4AE7
:101EF0003C48002110603C484038026B03129A4372
:101F00000263426B1F231B049A4303231B04D21852
:101F1000426355480268C3129A4302600268031381
:101F20009A43026068464154491CC9B22829FAD331
:101F3000014628224D4801F071FEFFF753FF01F0E2
:101F4000AFFE4B490880002001F0B0FE01F0B4FE66
:101F50000BB000BD10B5244A0F21224809021060C1
:101F600021484038426B1F231B049A4303231B0460
:101F7000D218426300060268D208D200026005202F
:101F80000007028992089200521C028102890823EC
:101F90001A430281028A0A4302820E484189890556
:101FA00004D501887822914308310180FFF71AFF98
:101FB0003048006F0078002804D02F4800880B4973
:101FC0006039C880012001F0A7FE10BDA086010085
:101FD000087F0400200000500080004056020800E6
:101FE0004A0308004C05540780000040602C005054
:101FF0007F7F0000AC29000000220050090900008A
:10200000002400502204000030D00000EE11000037
:10201000002500502E0200004420000040280050FF
:102020000D95000002420000E4DC00001092000068
:1020300053780000002A00508B1000009DD500004E
:102040000026005044800020C71D0020CB1D00202A
:10205000D11D0020D51D0020CD1D0020E31D002036
:10206000CF1D0020C71E00200002004020000800F5
:1020700078040800E00100205204080070B5012532
:10208000AD07AC6B2046FEF710FDC04901F0CEFE57
:1020900027221201511A00D10121BD4A506011605E
:1020A000286B0821884308432863BA480460BA486B
:1020B0000068002802D0A04200D200BE70BDF0B57A
:1020C00087B000246A461472B4490A68002A5DD0B9
:1020D000114640318B7C002B58D0B14B012813D0D6
:1020E000108D1A460007803A0125126FC00EED04CC
:1020F0004019105A6A46800B10711079002845D09B
:102100001079012802D00DE0D86C09E008894E252D
:102110006843A44D1A684019105ACA7C000A801AF4
:102120006A461072107A002829D09F4A9E48603A69
:10213000007B956E05E02E224243AC18401C400700
:10214000400F6F463A7A561E3E72F4D2A278540679
:10215000640E3C713A79D406E40E3C769A692E23DB
:102160005843904B463BC018105A3A46C006C00F21
:1021700038713879002802D1107E002806D0087DF9
:10218000002803D1C87D08221043C87507B0F0BDF0
:1021900010B5052000074189890708D041898908C1
:1021A0008900418181494A88520852004A80018948
:1021B000802211430181018A042291430182818A94
:1021C0008907FCD501F0F8FE012080070169490765
:1021D00000D500BE01694907FCD510BDF8B5744EA5
:1021E000F08800282DD10120F08072490820088055
:1021F00005273F077889800720D0B88A400701D596
:1022000001F049FB694D28888021084328806A4CE9
:10221000FF20608004202080FFF74EFA7D21C90056
:10222000E088A288000480188842F9D9052020801F
:10223000B088788029888020814329805F491020D8
:102240000860F8BD70B5FFF742FAFFF7A1FF00265E
:10225000574C0520E6800007418A80229143418245
:1022600054480189490849000181D0058169042247
:102270001143816101F0A6FE5049102080310125F3
:10228000086001F0A5FE01F0A9FE484826704089CB
:10229000800510D5607800280DD149486570008808
:1022A000C00708D10120FFF767FC8B218900884215
:1022B00001D90220607070BD10B501F095FE00F0EC
:1022C0005DF83B490120087010BD10B50120800762
:1022D000008A000601D500F051F810BD10B50120AC
:1022E000FFF7EDFE01F086FE10BD10B50124A40736
:1022F000208A000718D50220FFF7E1FE01F080FEDA
:102300002068400040086100084320602068C00F3A
:10231000FCD11F48803001680906090E01D0012157
:10232000016023490420087010BD70B5254800885D
:1023300085062548AD0E44681948006F00780028CE
:1023400002D1284601F062FE20480089184EC005DF
:1023500007D520060BD5E00709D0284601F05CFE22
:1023600003E0200603D5E00701D0032030702004ED
:1023700003D5E00501D50220307070BD10B50C49C1
:102380000120887001F04EFE10BD000071020000B7
:102390004000004054800020508000206C03080062
:1023A000E00100204A000800380308002000005027
:1023B00046800020003300500016005000E200E08C
:1023C000001500500020005000020040002C00507A
:1023D000FEB55C4C0026606D37460090FEF792FA21
:1023E000594D002802D12879022801D100200090FF
:1023F000FEF785FB00280ED101F01AFE00280AD056
:1024000051480126C078002805D005252D07A88A47
:10241000C00701D0042692E001F012FC00287DD113
:102420004A488069002801D0606D00904648009CB1
:102430008178684601F002FE00286FD0424881781A
:10244000684601F0F7FB002879D000200190009445
:10245000FF202D300124A407216A8142FCD33A4891
:102460008178684601F0EAFD002868D03648817816
:10247000684601F0DFFB002861D00098002804D0F6
:102480000199002901D0401E0090314900220978AD
:102490008320022900D1B5202E490B78012B00D1D1
:1024A00021300A70E26B0F21920A92020A43E26322
:1024B000E16B294A800211400143E163E06B37215F
:1024C000C002C00A89050843E0630098042600287A
:1024D00001D0001D0090C002642101F0A7FC00287B
:1024E00000D0401E1D49086017490979002900D015
:1024F000012101F0A9FD1A48C06A8047FEF72CFBB4
:10250000002808D028883021084328802888032103
:10251000084328800127206B000400E00FE0C00F73
:10252000F9D010480168C905FCD5002F01D0FFF78C
:10253000CEF801F08FFD288980218843288130461C
:10254000FEBD000060020020C6060800A8050800C5
:102550005402080047800020FF03E0FF5080002065
:102560001C07080000020040FFB5002685B0154694
:1025700041486A46344637461082002904D0042276
:1025800003A801F04BFB02E00020C04303900020B1
:1025900016E003990141C90710D00F9902015118A3
:1025A0000A79022A02D0102A05D102E0761CF6B27E
:1025B00001E0641CE4B20989C9198FB2401CC0B2A1
:1025C000A842E6D300940023324601970E9905985D
:1025D00001F046FD00242AE003992141C90724D0D7
:1025E0000F9927017E18F18802A8009101900F9899
:1025F0003279C35905983189008801F037FD0028E8
:1026000013D17189002910D03079022807D10F9891
:102610000222C05904A901F0FBFA00280DD0684637
:1026200071890089F26801F027FD641CE4B2AC42B4
:1026300001D20028D0D009B0F0BDF0684078FF2862
:1026400009D00899002906D005996A4609781289A7
:10265000511A089A11546A461089411C11807189D7
:10266000F26801F009FD0028DFD16B46022201214A
:10267000188901F007FDD8E70328000010B51221E2
:10268000244801F005FD24491C2001F007FD00212C
:102690001C2001F071FB10BD30B503460120002164
:1026A00003241A46CA40D20704D04D0022466D1CAE
:1026B000AA401043491CC9B20929F2D330BD0246D1
:1026C0000020122901D98D207047062A06D0072A3A
:1026D00007D0082AF8D10729F5D170470829F2D187
:1026E00070470629EFD3704770B50A4C054621881C
:1026F00002231C22094801F0E1FB058001F0F0FBF8
:10270000E088002101F0D0FC01211C2001F034FB05
:1027100070BD000058800020D446002004700000E6
:10272000FEB53B4E1C2070801D4617463446088877
:10273000FFF7B2FF02903748334601900833132267
:1027400002A90097A01D01F0B5FC040008D1F08893
:10275000002101F0A9FC044601211C2001F00CFB22
:1027600001231C2229462C4801F0A8FB047001F02B
:10277000B7FB0020FEBD70B50C4625490B802078C4
:10278000082814D8CA880831415C51188DB2822DAE
:102790000BD06178FFF793FF010009D16D1C6178C0
:1027A000A8B2A21C01F068FC08E0822100E08121AF
:1027B000194B17485B1CDA1C00F030F8002070BD84
:1027C00070B51D460C46088801F07AFC104AFF28B7
:1027D0001071158009D0A178D08801F065FC022124
:1027E0001C2001F0C9FA002070BD0B4B89219B1CF5
:1027F0009A1C074800F012F8F5E710B5044A180AC9
:102800001279904202D10888FFF76EFF002010BDB8
:1028100058800020C045002001700000F8B5144623
:102820000F461E460546428801880623204601F0D1
:1028300045FB0446287901F049FC20802771668019
:10284000204601F04DFBF8BD70B514464288007972
:102850000D460102042323480C3101F02FFB002D0B
:1028600001D0132100E012210170448001F038FBF7
:1028700070BD70B5FFF702FF00241B4D09E0401941
:102880004069002803D0641CE4B2804701E0641C66
:10289000E4B220461C214843295CFF29EFD170BDDA
:1028A000F7B50D461C2001F043FA022805D1EAB223
:1028B0001C230299009801F00FFC009800240A4E96
:1028C000070208E03B460343641CE4B2EAB2029903
:1028D000009801F001FC1C206043305CFF28F1D11E
:1028E000FEBD00000D300000A449002010B50E21EF
:1028F000104801F0CDFB1049362001F0CFFB01213B
:10290000362001F039FA10BD70B50A4C05466288D0
:1029100021880223094801F0D1FA058001F0E0FA8C
:10292000E088002101F0C0FB0021362001F024FAEC
:1029300070BD00006C800020DC49002009D8000038
:10294000FEB5DA4C1F460D4662800023D84816E0DB
:10295000914212D13118496800290ED01C214B43F5
:1029600018184068019000922A78A01D6B68A96829
:10297000FFF7FAFD060008D011E05B1CDBB21C2655
:102980005E43815DFF29E3D112E028782072E08860
:10299000002101F089FB0021362001F0EDF901232F
:1029A00036223946C34801F089FA067001F098FAD8
:1029B0000020FEBD70B51D460C46088801F080FB66
:1029C000BA4AFF281071158009D0A178D08801F08B
:1029D0006BFB0221362001F0CFF9002070BDB54B12
:1029E000B44A5B1C09328921B048FFF717FFF4E7AE
:1029F000F0B5AE4815460C460279190A8FB09142DF
:102A00007DD12388C188007A591A8EB2B04278D914
:102A10000AAA0EA9184601F065FB6846018D2046FA
:102A2000A54A08300190914218D1208800F05BF946
:102A300007A901F05DFB6846808B4005800F0128E7
:102A400000D00020214600F039F905062D0E2DD1C9
:102A500061882088019A01F00FFB26E00020944F46
:102A600015E0A94211D1D119896900290DD0019928
:102A700000911C256843C01985696388A288E179A3
:102A80003046A847050008D010E0401CC0B21C2109
:102A900041430A46B95CFF29E3D1A288002AD7D076
:102AA00061882088019B01F029FB0546E079002818
:102AB00028D0002D26D1208809AA02A901F024FBE4
:102AC00068460089801D83B2784842880188794829
:102AD000C01D01F0F3F9074668460289B81D09993F
:102AE00001F09CF87148007901F0F0FA38807E809E
:102AF00068460089B880384601F0F2F902E00AE041
:102B0000FFE78225A079012805D16848218800794E
:102B10002A4601F0FFFA00200FB0F0BD70B5634CFB
:102B20000E46087821886288122802D0132808D01F
:102B300018E060480623001D01F0C0F905466089D1
:102B400006E05C480623801D01F0B8F90546A0891F
:102B50006880207901F0BAFA2880707828712846B8
:102B600001F0BEF9002070BD70B5504D0C462879BB
:102B700001F0ACFA2188884207D1E8886188A21D5B
:102B8000401880B2A18801F077FA002070BDFEB530
:102B9000464D0C46287901F099FA2188884223D1C4
:102BA000E8886188A21D401880B2A18801F064FA0B
:102BB000E8886188401880B2297A00F0B3F86A4644
:102BC00001A901F0A1FA00980088012801D08B2604
:102BD0000BE0E8886188401882B200213348FFF793
:102BE00033FE6088688112E0812632486A8829882D
:102BF0000623001D01F062F9074660887880287975
:102C000001F064FA38803E71384601F069F900201D
:102C1000FEBDFEB5254D0C46287901F057FA2188F6
:102C2000884223D1E8886188A21D401880B2A1881B
:102C300001F022FAE8886188401880B2297A00F011
:102C400071F86A4601A901F05FFA0098008802282D
:102C500001D08B260BE0E8886188401882B2012100
:102C60001248FFF7F1FD6088A88112E08126114823
:102C70006A8829880623801D01F020F907466088AC
:102C80007880287901F022FA38803E71384601F0C8
:102C900027F90020FEBD10B5044A180A12799042A7
:102CA00002D10888FFF730FE002010BD6C800020A4
:102CB0006C4C002001D800000229000002464B881D
:102CC0000020022B01D00D2070470989002A05D071
:102CD0000029F9D00129F7D0812070470029FCD0C4
:102CE0000229F9D1704770B586B0044601F018FA90
:102CF00005461D4E0EE06A4604A9204601F0F2F991
:102D000068460088B04203D1641CA0B206B070BD12
:102D1000641EA4B2A888A04202D8E888A042EAD2E1
:102D20000020F3E7F0B585B0044601F0F9F90E4E46
:102D30000546FF360C4F0FE06A4604A9204601F015
:102D4000D1F968460088B04202D1204605B0F0BDF6
:102D5000B84207D0641CA4B2A888A04202D8E88870
:102D6000A042E9D20020F1E70328000010B500F0EE
:102D700015FB00F031FA0020FDF7ADFD10BD10B5D8
:102D80000C460C2148430D4940188078FF2805D097
:102D900000F093F9208800F023F810BD00F061FEE8
:102DA00010BD10B500F0EEF9002801D000F059FE7A
:102DB00010BD10B500F055FE10BD0000948000203D
:102DC0000021F94A05E0834201D101207047491CE6
:102DD000C9B20C234B43D35CFF2BF4D100207047C6
:102DE000F8B505460024F04E0AE0801981680029F4
:102DF00004D0641CE4B22846884701E0641CE4B2B5
:102E000020460C214843315CFF29EED1E64E0024D8
:102E1000443609E08F19B968002903D0FFF7D0FFC5
:102E200000280AD0641CE4B20C216143705CFF28C6
:102E3000F0D1DD4E00240C3610E0641CB968E4B219
:102E400028468847F0E780190169002904D0641CEE
:102E5000E4B22846884701E0641CE4B220461C2105
:102E60004843315CFF29EED1F8BD70B5CE49CF4C57
:102E70000E4644360D460C350DE052185268002AB5
:102E800007D0C2B20C235A4351184968401C6070E5
:102E90002DE0401C607060780C2242438B5CFF2B5D
:102EA000EBD10AE089194968002903D0FFF788FFB0
:102EB000002809D02078401C207021780C20414344
:102EC000705CFF28EED117E020780C21414389196E
:102ED0004968401C20700AE04919C968002909D0D6
:102EE000C1B21C2251434919C968401CA0708847CF
:102EF000002070BD401CA070A0781C2141436A5C7A
:102F0000FF2AE9D10020A07060702070012070BD00
:102F1000FFB581B004461D46164618460A9F01F0CB
:102F20004BF90090257021463846009A01F0FEF8D2
:102F3000002803D000BE002020700DE02078B042B1
:102F400000D300BE721E904200D31046C2B222705F
:102F50000099029800F062FE009801F003F905B0B4
:102F6000F0BDF0B5914D99B0E86800285BD15023D1
:102F700032220D218E4800F0A1FF0446E8600E20A9
:102F8000207000206070A020E081A08107202074C4
:102F90000120607421460B2014310090481E20232C
:102FA0001C2217910190FFF7B3FF21460C2031310D
:102FB0000090481E20231F2218910290FFF7A8FFBF
:102FC000E8681A21C27C20308F1A017C1D20461A25
:102FD000002069460874002F01DC002E23DD3E200E
:102FE000087406AA04A9022001F0A0F8002804D061
:102FF00000BE00206946087415E06846017C00297F
:1030000011D08F4205DBE27C179806AB12180198AD
:1030100007E08E4207DB2034227C189806AB12189A
:10302000029800F0E7F8E86819B0F0BD70B55F4E9F
:1030300004468500361D7059002814D121020A2348
:1030400032225C480E3100F039FF0A210170002C59
:1030500000D000BE705110218180082141800021E4
:10306000C1807D210181705970BD10B54F4CA068A1
:10307000002820D14E48222332220D210A3800F0A8
:103080001DFF032101700A21A060417000214182CF
:10309000017541751722C2820822028310224283E1
:1030A00081836422C283202211543F491022233994
:1030B000801C00F0B3FDA06810BD3D4810B5012391
:1030C00032220D210B3800F0F9FE0221017000F0D0
:1030D00007FF10BD1CB535480C21183000F0D8FF93
:1030E00001246846047004716A4601A9352001F084
:1030F0001DF8002801D0684604702C4900201831C2
:103100000C2242435218401C00061471000EF7D0E6
:10311000254932205C3100F0C1FF0021322000F04F
:103120002BFE1CBD70B50D460102224814462C230F
:1031300032220C380E3100F0C1FE014620310D72F2
:103140004C7200F0CDFE70BD0BE710B5FFF709FF24
:1031500000F0C6FE15490020C8600221322000F0B0
:103160000BFE10BD10B50446FFF760FF00F0B8FE7F
:103170000E4A0020A100121D50500421322000F000
:10318000FBFD10BD10B50121322000F0F5FDFFF769
:103190006CFE10BD69E610B5FFF767FF00F0A0FEFA
:1031A00002490020886010BD304D00207C80002046
:1031B0000E3400000E380000174A00214B00D35C8B
:1031C000834203D14800801840787047491CC9B237
:1031D0000A29F3D30120704710B50020FF230E49C0
:1031E000012442008B545218401CC0B254700A286B
:1031F000F7D3D8E770B50646481C1070092015466D
:103200000C46507022461946A81C00F007FD307885
:10321000A41C0019307070BDA0800020FEB51C46B3
:10322000089B07265A4D6F4668C71346224600F092
:10323000B6F9FEBD10B5104600F07AFD002809D1A0
:10324000012332220D21534800F038FE0121017084
:1032500000F046FE002010BD70B54D4C0D78241FC7
:103260000F2D13D008DC012D12D0022D0AD0032D12
:1032700014D00E2D06D117E0102D07D0112D05D03A
:10328000122D03D02568002D00D0A847002070BD66
:1032900048780028FAD1FFF77EFFF7E74878002842
:1032A000F4D1FFF77EFDF1E7487800F03FFCEDE751
:1032B000F8B51C4610460E4600F03AFD022824D10F
:1032C000240A00D000BE0C202746474332483D1850
:1032D000AC70FF2C15D00121E9700521322000F0DF
:1032E0004BFD2D483188C153707A68713146A81D55
:1032F00006220A3100F092FC002211462046FFF718
:1033000011FF3146204600F0EAFB0020F8BD70B501
:103310000C46097816460A2909D01D4D2D1F29682B
:10332000002902D021462C68A047002070BD10461D
:1033300000F0FEFC0428F8D160780028F5D10521C2
:10334000304600F019FDF0E710B510460C4600F0CD
:10335000EFFC032803D0052801D0042802D1204621
:1033600000F0E8FB002010BD10B510460C4600F040
:10337000DFFC012808D12078002805D1FFF70AFFDB
:10338000002801D0FFF715FD002010BD0020704778
:10339000405000200234000094800020704710B597
:1033A0001C2102233222880200F088FDFF217431A3
:1033B000018000F095FD10BD70B505460423322252
:1033C0001C21074800F07AFD044605801C20FFF709
:1033D000F3FEA0700020E070204600F081FD70BD7B
:1033E00003700000FEB51C46089B02264D4D6F463B
:1033F00068C71346224600F0D2F8FEBDFEB510465F
:103400000D4600F095FC01287ED12878002878D15F
:103410000E2332221C21444800F050FD04460020B7
:1034200020700B206070024640A1A01C00F0F6FB4B
:10343000204600F055FD0A2332221C213A4800F0B4
:103440003DFD0446012020700720607002463AA12D
:10345000A01C00F0E3FB204600F042FD0B233222CB
:103460001C21314800F02AFD044606202070082661
:103470006670324632A1A01C00F0D0FB204600F05E
:103480002FFD082332221C21274800F017FD0522BA
:103490000270044642702DA1801C00F0BFFB204644
:1034A00000F01EFD09270C2332221C211E4800F0CB
:1034B00005FD04460420207067703A4625A1A01C33
:1034C00000F0ACFB204600F00BFD0A2332221C2149
:1034D000154800F0F3FC04460670072060700120D8
:1034E000A070D221684601800B21C9014180710181
:1034F000818006226946E01C00F090FB204600F027
:10350000EFFC0123322200E007E01146900200F0B8
:10351000D5FC2978017000F0E3FC0020FEBD0020FE
:103520007047000088500020027000004469616C00
:103530006F672053656D6900444131343538780038
:10354000123456FFFE9ABCDE00000000782E792E61
:103550007A000000765F352E302E332E30000000CA
:10356000FFB583B01E4F002401AEA00000963D5869
:1035700003A80FC8A84700280ED0641C042CF4D35D
:10358000174C241F2068002803D003AD0FCD2468FA
:10359000A047002007B0F0BD68460079FAE7F8B50B
:1035A000089C9C46079D0346002C16D0641E14D42C
:1035B0000C4FE600AE5B9E4201D0BE420BD1E30051
:1035C0005B195C68002C08D013466246A047069938
:1035D00008700020F8BD641EEBD50120F8BD000086
:1035E0009C500020FFFF000010B505200007008957
:1035F000000608D501208007006B000403D400F00A
:103600001FFBC00701D0002010BD012010BD704776
:1036100070B5584A00248318049D002B18D0564AD0
:10362000012B06D05349891E41180A2919D30120BC
:1036300070BD0978481E092808D88900091F51580B
:103640004E4B99421ED1800014501BE000BE19E081
:103650004A8808784A49401880B2322100F06CFD4F
:1036600010E04449491E4018C0B2411E092908D83B
:10367000800081188039C86F002803D0CC6780474C
:1036800000E000BE2C70002070BDF8B50446401E5E
:1036900009281CD83848A1000D18803DE86F002883
:1036A00013D0364EB04210D0354F3221E01980B2DF
:1036B00000F056FB3222012311463846EE6700F037
:1036C000FDFB047000F00CFCF8BD00BEF8BD00BEB0
:1036D000F8BD70B50546284A00208300D358002B5A
:1036E00004D0401C0A28F8DB002070BD8300401C79
:1036F0000406D150240EF7D0FFF776FF002807D03C
:103700001F482A46201880B2322100F015FD0CE037
:10371000FDF7FBF81A48322204231146401E00F040
:10372000CDFB4580047000F0DBFB204670BD70B51A
:103730000446401E0D46092818D80F48A100081855
:103740008038C06F00280FD00C4988420CD00C483C
:1037500032212618B0B200F003FBB0B22A46322163
:1037600000F0EAFC204670BD00BE00E000BE002074
:1037700070BD0000FF37FFFFB88000200F3600202B
:1037800002C8000010B5362110233222880200F052
:1037900095FB0021124A03E0362B0DD0491CC9B21B
:1037A0001C234B43D35CFF2BF6D100214160816089
:1037B000818100F095FB10BD1C2359438918097ABB
:1037C0000170F2E710B50446042332223621054881
:1037D00000F074FB04800121817000F081FB10BDBA
:1037E0002C53002002D80000FEB51C46089B022680
:1037F0000E4D6F4668C713462246FFF7D0FEFEBD4A
:1038000010B510460C4600F093FA012809D1322277
:1038100001231146900200F051FB2178017000F065
:103820005FFB002010BD00207047000064530020A3
:1038300070B5294B0026986AF643002801D030461F
:1038400000E00120C117020C090411430204986230
:103850002248046845682243294302604160D96ACE
:10386000002900D10126F117F20B4904DE62114351
:10387000046872044368224319430260416070BDCA
:1038800008B50020034603220146009012020120E1
:10389000FEF705F808BD38B505242407208A022163
:1038A00088432082A08A0007FCD50D484188FF2567
:1038B000013529434180FDF74DFAFFF7E1FF012073
:1038C00000232A4601460090FDF7E9FF608A202187
:1038D0000843608238BD000028900020209000201E
:1038E00020000050704738B50025684605708A886A
:1038F000891D00F093F9454C6088002803D0C0B2C0
:10390000FFF7C3FE658068460078012806D00028CE
:1039100003D100210120FDF786FF38BD00210120E1
:10392000FDF79FFF38BD10B5384C6078012802D0F4
:10393000002805D00BE000210120FDF792FF03E0F5
:1039400000210120FDF76FFF607800280CD00020D7
:103950006070322000F0ECF9052804D12C49207861
:10396000FFF7B7FE608010BD0120F1E738B50025F4
:10397000684605708A88891D00F050F9234C6088DC
:10398000002811D06946227809788A4204D0C0B252
:10399000FFF7CDFE608003E0C0B2FFF776FE6580E2
:1039A00068460078207038BD684619490078FFF7EE
:1039B00090FEEFE770477047704710B5072332223B
:1039C0003621144800F07AFA044601210846FDF732
:1039D0008EFF014610480088208012206080012060
:1039E000A080A171204600F07BFA00F001F810BD24
:1039F00010B50A4800F016FC0122500200230146CF
:103A0000FEF737F810BDF3E770470000DC900020A8
:103A10002739002004D8000094800020BB39002002
:103A200010B500206849C0434880FFF746FB10BD31
:103A300010B500216448C94381800078FFF792FBEC
:103A400010BD10B5614805210170FF214170CD21E5
:103A50008170AB21C170002101714171FFF786F9BE
:103A600010BD70B57D205A49C000FFF732FE56499F
:103A70004880FFF769FB55494A790B7912021A43CE
:103A8000521C92B20A71130A4B71524B9A4202D1E4
:103A900000220A714A710446C07C1C234B4906224D
:103AA0001B1A062B08DB23461433C01800F0B6F8A7
:103AB000E07C801DE0740FE025462035287C1F2324
:103AC0001B1A062B07DB3134001900F0A7F8287CFD
:103AD000801D287400E000BEFFF737FB70BD70B595
:103AE0000C4605460C203C49684340188078FF2866
:103AF00015D0354E3570B078FFF7C7FD60880838AF
:103B0000092805D2A088002802D1E0887D2808D0A5
:103B10007D203249C000FFF7DCFDB08001E0FFF7F7
:103B2000A0FF21462846FFF72AF970BD442800D19E
:103B300097E7704710B5322000F0FAF8032803D059
:103B4000052801D0042801D1FFF78BFF10BD70B507
:103B5000234D441BA8420BD00BDC224C041907D088
:103B6000214DEC4204D14C88122C01D1FFF74CFFBF
:103B700070BD022CFCD0032CFAD14C88132C1DD024
:103B80000ADC022C11D0052C12D0082C13D00C2CDE
:103B9000EED1FFF711FF70BD172C03D01A2C10D0F7
:103BA0001B2CF8D1FFF706FF70BDFFF79BFE70BD21
:103BB000FFF799FE70BDFFF7D9FE70BDFFF723FF39
:103BC00070BDFFF7F8FE70BDE0900020E08000209F
:103BD000213A0020FFFF000094800020313A0020AD
:103BE00005D80000EFC7FFFF0D60FFFF064C012561
:103BF000064E05E0E36807CC2B430C3C9847103495
:103C0000B442F7D3FCF720FCE853002018540020FE
:103C100003B40148019001BD773B030003B40148A0
:103C2000019001BD213B030003B40148019001BD97
:103C3000D729030003B40148019001BD2B6902009C
:103C400003B40148019001BDC12D030003B4014834
:103C5000019001BD0921030003B40148019001BD99
:103C6000C92D030003B40148019001BDEB310300ED
:103C700003B40148019001BD3D32030003B4014883
:103C8000019001BDD721030003B40148019001BD9B
:103C90002F2F030003B40148019001BD998F02004A
:103CA00003B40148019001BD938F020003B40148A1
:103CB000019001BDCD8C020003B40148019001BD0B
:103CC000418F020003B40148019001BD2768020042
:103CD00003B40148019001BD3968020003B40148F2
:103CE000019001BDB780020003B40148019001BDFD
:103CF0000F3B030003B40148019001BD551B0200B6
:103D000003B40148019001BDCF2B030003B4014867
:103D1000019001BDCB2C030003B40148019001BD0B
:103D20000990020003B40148019001BD831D020007
:103D300003B40148019001BDB326030003B4014858
:103D4000019001BDFD3D030003B40148019001BD98
:103D5000197D020003B40148019001BD0522020053
:103D600003B40148019001BDA528030003B4014834
:103D7000019001BDD5AF020003B40148019001BD1F
:103D80003126030003B40148019001BDA1A5020042
:103D900003B40148019001BDE3A5020003B401484A
:103DA000019001BD87A8020003B40148019001BD44
:103DB000A7A9020003B40148019001BD93AA020023
:103DC00003B40148019001BD95AB020003B4014862
:103DD000019001BDF9AB020003B40148019001BD9F
:103DE00069AC020003B40148019001BD17AD0200A7
:103DF00003B40148019001BD77AD020003B401484E
:103E0000019001BDF1AD020003B40148019001BD74
:103E100085AE020003B40148019001BD11AF02005C
:103E200003B40148019001BD3350020003B40148BE
:103E3000019001BDA73A030003B40148019001BD00
:103E40005548020003B40148019001BD1F50020013
:103E500003B40148019001BD7F0C030003B4014885
:103E6000019001BDAB0C030003B40148019001BDFA
:103E7000BF22020003B40148019001BDEB260300FC
:103E800003B40148019001BD3524030003B4014887
:103E9000019001BD2F22020003B40148019001BD31
:103EA000DD20030003B40148019001BD533B030032
:103EB00003B40148019001BD9D20030003B40148F3
:103EC000019001BDB123030003B40148019001BD7D
:103ED00049E5020003B40148019001BDF9E3020085
:103EE00003B40148019001BDE123030003B401487C
:103EF000019001BD4BCD020003B40148019001BD0A
:103F000099D1020003B40148019001BDABD0020079
:103F100003B40148019001BD69D0020003B4014817
:103F2000019001BD77CF020003B40148019001BDAB
:103F300001CC020003B40148019001BD29CC02006C
:103F400003B40148019001BD15D2020003B4014839
:103F5000019001BD8DD2020003B40148019001BD62
:103F6000B938020003B40148019001BDBB7F0200D3
:103F700003B40148019001BD7758020003B4014821
:103F8000019001BDD722030003B40148019001BD97
:103F90002D42020003B40148019001BD8D3D030094
:103FA00003B40148019001BDF38E020003B401483F
:103FB000019001BD218E020003B40148019001BDB2
:103FC000652C030003B40148019001BDDB2E030002
:103FD00003B40148019001BD231D020003B4014850
:103FE000019001BDC32C030003B40148019001BD41
:103FF0001531030003B40148019001BD3B66020086
:1040000003B40148019001BD2B66020003B40148CE
:10401000019001BD038D020003B40148019001BD70
:10402000CF8F020003B40148019001BD1B6602005E
:1040300003B40148019001BD7920030003B4014895
:10404000019001BD2129030003B40148019001BD85
:10405000C768020003B40148019001BD0D2C0300A4
:1040600003B40148019001BD9598020003B40148D2
:10407000019001BD9599020003B40148019001BD72
:104080006D9B020003B40148019001BD739B0200C7
:1040900003B40148019001BD533B030003B4014840
:1040A000019001BD8725030003B40148019001BDC3
:1040B0007B9C020003B40148019001BD459F0200B2
:1040C00003B40148019001BDB7E3020003B4014805
:1040D000019001BDE3E3020003B40148019001BD7A
:1040E00095E3020003B40148019001BDC59B0200A5
:1040F00003B40148019001BD419C020003B4014892
:10410000019001BD2B9B020003B40148019001BD49
:10411000A59B020003B40148019001BDF3AF02006A
:1041200003B40148019001BD5799020003B401484E
:10413000019001BDD129030003B40148019001BDE4
:104140002528030002E008C8121F08C1002AFAD17E
:1041500070477047002001E001C1121F002AFBD107
:104160007047000010B5002823D0124B0022001F1A
:10417000196803E0814203D80A4649680029F9D149
:10418000002A0AD01368841A9C4204D100681818C7
:104190001060104602E0506000E01860002907D06F
:1041A00002680B1A934203D10B68D2180260496867
:1041B000416010BD1C560020F0B50B30C108C9008D
:1041C000144F0026144A0FE003688B420BD38B4236
:1041D00005D95C1A4318456830C3083B00E04368C2
:1041E000136002C004E0021D10680028ECD13046C4
:1041F000002803D13868002801D00020F0BD064A0D
:1042000006481060064A121AD208D20044C00120A3
:104210003860D7E7205600201C560020EC90002084
:10422000E891002001498860704700003880002034
:104230000101000A04280A040203AA0055032A0007
:10424000A001FFFF2C0100000A000000857502009C
:104250000B0000006B7A02000C000000CB7902001A
:104260000D000000A17502000E000000D3750200D1
:104270000F000000F379020010000000FD7502003D
:104280001200000017760200110000005D760200A7
:10429000130000008776020014000000B1760200CF
:1042A00015000000D778020016000000097902000E
:1042B0001B000000F77602004D0000005779020055
:1042C00017000000217A0200180000001378020095
:1042D00019000000537802001A00000095780200CF
:1042E0001C0000008D7A02001D000000AD7A020063
:1042F0001E000000437A02001F00000073770200D6
:1043000020000000C377020021000000F37A0200C1
:1043100049000000317B020000080000890C0020E9
:10432000010000003B7B020009000000537B0200FB
:10433000050000007D7B020006000000A77B020054
:10434000020000000B7C020007000000CF7B02008F
:1043500000000000F97B0200030000006B7C0200FB
:10436000040000008D7C020008000000F77C0200C1
:104370004C0000006D7E0200484200202600000034
:104380005443030078430020320408000600010073
:10439000270D0020010E00206312002021130020B1
:1043A00045130020E911002000000000B10F00209B
:1043B000050400005915002006040000933902008E
:1043C00007040000D9390200080400001F3A020067
:1043D00002040000B73B020000040000093C020098
:1043E000040400006F3C020003040000D93C0200FA
:1043F000010400004B3D020009040000D73A02000E
:104400000A040000413B02000B0400004D3F020083
:10441000210400009942020026040000EB4702003C
:1044200000080000EF3F02003F000000CF41020003
:104430004B000000C93D02004E000000213E02007A
:10444000230400007F3E020024040000B93E020065
:10445000270400009B43020028040000C54302001B
:10446000250400003D4302002B040000F14302003C
:1044700031040000114402003204000059440200DB
:10448000350400008D440200290400007715002047
:104490002A040000371600202C0400006D4502009D
:1044A0002D040000F74502002E0400002B460200F8
:1044B0002F0400006346020033040000934602000C
:1044C000340400001547020036040000454702008E
:1044D0003004000097470200010800002D4202004E
:1044E00001080000CD15002000080000EF3F020089
:1044F00000000000000000000000000000000000BC
:1045000000000000000000000000000000000000AB
:10451000000000000000000000000000000000009B
:10452000000000000000000000000000000000008B
:10453000000000000000000000000000000000007B
:10454000000000000000000000000000000000006B
:10455000000000000000000000000000000000005B
:10456000000000000000000000000000000000004B
:10457000000000000000000000000000000000003B
:10458000000000000000000000000000000000002B
:10459000E0440020020000000000000000000000D5
:1045A000B043002026000000F0440020A045002079
:1045B0006403080016000600FF003F00FF03FF0130
:1045C0000028010002000200A44600200328010088
:1045D00005000500A6460020292A0100120000005F
:1045E000000000000328010005000500AB46002084
:1045F000242A01001200000000000000032801002E
:1046000005000500B0460020252A01001200000028
:10461000000000000328010005000500B546002049
:10462000272A0100120000000000000003280100FA
:1046300005000500BA460020262A010012000000ED
:10464000000000000328010005000500BF4600200F
:10465000282A0100120000000000000003280100C9
:1046600005000500C4460020232A010008000000C0
:10467000000000000328010005000500C9460020D5
:104680002A2A010012000000000000000328010097
:1046900005000500CE460020502A0100070000005A
:1046A000000000000A18020000292A020100242A42
:1046B000020200252A020300272A020400262A02F9
:1046C0000500282A020600232A0207002A2A0208D7
:1046D00000502A00044700201C4700206A80002068
:1046E000030001000070000021270020027000007C
:1046F0007727002003700000C12700200338000046
:10470000FB270020E446002001000000EC460020CA
:10471000020000000000000000000000FC46002035
:10472000010000002F2A93A6BDD84152AC0B10996E
:104730002EC6FEED08000020EE8D0CE1F04A0CB311
:1047400025DC536A68862D0400004F43313C939268
:1047500042E6A876FA3BEFB4875A040000D8B0CB03
:1047600064D54D11E594C51D66BB8E7F8B1200008C
:1047700017B967984C664C01963331B191590015C1
:104780000200002368EC521E6244749A1BD18BAB6A
:1047900075B66E1200009EE7BA08B9A948ABA1AC85
:1047A000031C2E0D296C22000028D5E1C1E1C5476C
:1047B00029B55765C3BA47159E1A00008C09E0D188
:1047C000815442408E4FD2B377E32A7700280328E2
:1047D00002290129CC47002002000100100010002E
:1047E00024470020CE4700200200010013001300E0
:1047F000344700201C540020100008000100000075
:1048000000000000D2470020020001000D000D0052
:10481000D8530020CE4700200200010013001300EF
:10482000474700202C540020100008000100000021
:1048300000000000D247002002000100090009002A
:10484000B0530020CE4700200200010013001300E7
:104850005A4700203C5400201000080008000000C7
:1048600000000000D24700200200010010001000EC
:104870008C530020CE4700200200010013001300DB
:104880006D4700204C54002010000102020000007F
:1048900000000000D04700200200090002000000D4
:1048A00000000000D2470020020001000B000B00B6
:1048B00074530020CE4700200200010013001300B3
:1048C000804700205C54002010000100020000001E
:1048D00000000000D2470020020001000B000B0086
:1048E00080530020CE470020020001001300130077
:1048F000934700206C5400201000010201000000CA
:1049000000000000D0470020020009000200000063
:1049100000000000D2470020020001000C000C0043
:10492000BC530020CE4700200200010013001300FA
:10493000A64700207C540020100041001400000015
:1049400000000000D0470020020009000200000023
:1049500000000000D2470020020001000C000C0003
:10496000A0530020CE4700200200010013001300D6
:10497000B94700208C5400201000090232000000CA
:1049800000000000D04700200200090002000000E3
:1049900000000000D2470020020001000A000A00C7
:1049A000CC53002036000000D44700201D0000003A
:1049B00085370020C5370020ED28002000000000CA
:1049C000FF000000000000000000000000000000E8
:1049D000000000000000000000000000E44C002087
:1049E000FC4C00207A800020030001002F2A93A6AF
:1049F000BDD84152AC0B10992EC6FEED0800002028
:104A0000EE8D0CE1F04A0CB325DC536A68862D0468
:104A100000004F43313C939242E6A876FA3BEFB454
:104A2000875A040000D8B0CB64D54D11E594C51D5C
:104A300066BB8E7F8B12000017B967984C664C01DD
:104A4000963331B1915900150200002368EC521ED3
:104A50006244749A1BD18BAB75B66E1200009EE750
:104A6000BA08B9A948ABA1AC031C2E0D296C2200D1
:104A70000028D5E1C1E1C54729B55765C3BA471537
:104A80009E1A00008C09E0D1815442408E4FD2B36F
:104A900077E32A770028032802290129944A002075
:104AA0000200010010001000EC490020964A00208E
:104AB0000200010013001300FC4900209C54002058
:104AC0001000080001000000000000009A4A0020C9
:104AD000020001000D000D00D8530020964A00206E
:104AE00002000100130013000F4A0020AC54002004
:104AF0001000080001000000000000009A4A002099
:104B00000200010009000900B0530020964A00206D
:104B10000200010013001300224A0020BC540020B0
:104B20001000080008000000000000009A4A002061
:104B300002000100100010008C530020964A002053
:104B40000200010013001300354A0020CC5400205D
:104B5000100001020200000000000000984A00203E
:104B60000200090002000000000000009A4A002034
:104B7000020001000B000B0074530020964A002035
:104B80000200010013001300484A0020DC540020FA
:104B90001000010002000000000000009A4A0020FE
:104BA000020001000B000B0080530020964A0020F9
:104BB00002000100130013005B4A0020EC540020A7
:104BC000100001020100000000000000984A0020CF
:104BD0000200090002000000000000009A4A0020C4
:104BE000020001000C000C00BC530020964A00207B
:104BF00002000100130013006E4A0020FC54002044
:104C0000100041001400000000000000984A00203D
:104C10000200090002000000000000009A4A002083
:104C2000020001000C000C00A0530020964A002056
:104C30000200010013001300814A00200C550020DF
:104C4000100009023200000000000000984A002015
:104C50000200090002000000000000009A4A002043
:104C6000020001000A000A00CC53002036000000B8
:104C70009C4A00201D00000085370020C537002019
:104C8000ED28002000000000FF00000000000000F0
:104C90000000000000000000000000000000000014
:104CA0000000000000D800004129002002D80000C8
:104CB000B52900200E300000F1290020003000004E
:104CC0001D2B002004D800008F2B002003D80000EB
:104CD000692B002006D80000132C002003380000A8
:104CE000972C0020AC4C002001000000A44C0020B8
:104CF00001000000B44C002005000000DC4C002046
:104D00000100000001020304050600000A00000083
:104D10000000000000000000000000000000000093
:104D200000001700080010000000640000000000F0
:104D3000FF0000000000000000000000360000003E
:104D40006C4E00201D00000085370020C537002074
:104D5000ED28002000000000FF000000000000001F
:104D60000000000000000000000000000000000043
:104D7000000000001C0000009F330020B933002019
:104D8000FF00000000000000000000000000000024
:104D900080500020B48000200600010012000000B6
:104DA000640000000000000000000000000000009F
:104DB000000000000000000000002F2A93A6BDD8CC
:104DC0004152AC0B10992EC6FEED08000020EE8D6E
:104DD0000CE1F04A0CB325DC536A68862D04000010
:104DE0004F43313C939242E6A876FA3BEFB4875AA0
:104DF000040000D8B0CB64D54D11E594C51D66BB49
:104E00008E7F8B12000017B967984C664C01963361
:104E100031B1915900150200002368EC521E624422
:104E2000749A1BD18BAB75B66E1200009EE7BA0860
:104E3000B9A948ABA1AC031C2E0D296C2200002897
:104E4000D5E1C1E1C54729B55765C3BA47159E1AD3
:104E500000008C09E0D1815442408E4FD2B377E3F9
:104E60002A7700280328022901290000624E002029
:104E70000200010010001000BA4D0020644E002016
:104E80000200010013001300CA4D00201C55002031
:104E9000100008000100000000000000684E002023
:104EA000020001000D000D00D8530020644E0020C8
:104EB0000200010013001300DD4D00202C550020DE
:104EC000100008000100000000000000684E0020F3
:104ED0000200010009000900B0530020644E0020C8
:104EE0000200010013001300F04D00203C5500208B
:104EF000100008000800000000000000684E0020BC
:104F000002000100100010008C530020644E0020AD
:104F10000200010013001300034E00204C55002036
:104F2000100001020200000000000000664E002098
:104F3000020009000200000000000000684E00208E
:104F4000020001000B000B0074530020644E00208F
:104F50000200010013001300164E00205C550020D3
:104F6000100001000200000000000000684E002058
:104F7000020001000B000B0080530020644E002053
:104F80000200010013001300294E00206C55002080
:104F9000100001020100000000000000664E002029
:104FA000020009000200000000000000684E00201E
:104FB000020001000C000C00BC530020644E0020D5
:104FC00002000100130013003C4E00207C5500201D
:104FD000100041001400000000000000664E002098
:104FE000020009000200000000000000684E0020DE
:104FF000020001000C000C00A0530020644E0020B1
:1050000002000100130013004F4E00208C550020B9
:10501000100009023200000000000000664E00206F
:10502000020009000200000000000000684E00209D
:10503000020001000A000A00CC5300204F3B002070
:1050400001340000353200200034000059320020C5
:10505000003800000F33002001380000B13200207A
:10506000033800004933002000C8000069330020E5
:10507000103400008D330020FFFF00006135002058
:10508000785000200100000001700000FD33002076
:10509000047000001F3500204F3B00201D3200200F
:1050A00011360020E5330020E93700202F2A93A68F
:1050B000BDD84152AC0B10992EC6FEED0800002061
:1050C000EE8D0CE1F04A0CB325DC536A68862D04A2
:1050D00000004F43313C939242E6A876FA3BEFB48E
:1050E000875A040000D8B0CB64D54D11E594C51D96
:1050F00066BB8E7F8B12000017B967984C664C0117
:10510000963331B1915900150200002368EC521E0C
:105110006244749A1BD18BAB75B66E1200009EE789
:10512000BA08B9A948ABA1AC031C2E0D296C22000A
:105130000028D5E1C1E1C54729B55765C3BA471570
:105140009E1A00008C09E0D1815442408E4FD2B3A8
:1051500077E32A77002803280229012954510020E7
:105160000200010010001000AC5000205651002039
:105170000200010013001300BC5000209C550020C9
:105180001000080001000000000000005A5100203B
:10519000020001000D000D00D853002056510020E0
:1051A0000200010013001300CF500020AC55002076
:1051B0001000080001000000000000005A5100200B
:1051C0000200010009000900B053002056510020E0
:1051D0000200010013001300E2500020BC55002023
:1051E0001000080008000000000000005A510020D4
:1051F00002000100100010008C53002056510020C6
:105200000200010013001300F5500020CC550020CF
:1052100010000102020000000000000058510020B0
:105220000200090002000000000000005A510020A6
:10523000020001000B000B007453002056510020A7
:10524000020001001300130008510020DC5500206B
:105250001000010002000000000000005A51002070
:10526000020001000B000B0080530020565100206B
:1052700002000100130013001B510020EC55002018
:105280001000010201000000000000005851002041
:105290000200090002000000000000005A51002036
:1052A000020001000C000C00BC53002056510020ED
:1052B00002000100130013002E510020FC550020B5
:1052C00010004100140000000000000058510020B0
:1052D0000200090002000000000000005A510020F6
:1052E000020001000C000C00A053002056510020C9
:1052F0000200010013001300415100200C56002051
:105300001000090232000000000000005851002087
:105310000200090002000000000000005A510020B5
:10532000020001000A000A00CC53002036000000F1
:105330005C5100201D00000085370020C53700208B
:10534000ED28002000000000FF0000000000000029
:10535000000000000000000000000000000000004D
:105360000000000001D800000138002009D800002A
:10537000273800204144432056616C756520310078
:105380004144432056616C75652032004C454420F1
:10539000426C696E6B792053706565640000000093
:1053A000496E64696361746561626C650000000048
:1053B0004C45442053746174650000004275747458
:1053C0006F6E205374617465000000004C6F6E674F
:1053D0002056616C75650000436F6E74726F6C20AF
:1053E000506F696E74000000245600200080002079
:1053F000E8000000544100202456002020900020A6
:10540000C80100005441002068070800202A080055
:10541000E005000054410020800C000020EE8D0CBF
:10542000E1F04A0CB325DC536A68862D4F43313CCA
:10543000939242E6A876FA3BEFB4875AD8B0CB6491
:10544000D54D11E594C51D66BB8E7F8B17B9679846
:105450004C664C01963331B1915900152368EC52DA
:105460001E6244749A1BD18BAB75B66E9EE7BA0868
:10547000B9A948ABA1AC031C2E0D296C28D5E1C1FC
:10548000E1C54729B55765C3BA47159E8C09E0D1D8
:10549000815442408E4FD2B377E32A7720EE8D0CB1
:1054A000E1F04A0CB325DC536A68862D4F43313C4A
:1054B000939242E6A876FA3BEFB4875AD8B0CB6411
:1054C000D54D11E594C51D66BB8E7F8B17B96798C6
:1054D0004C664C01963331B1915900152368EC525A
:1054E0001E6244749A1BD18BAB75B66E9EE7BA08E8
:1054F000B9A948ABA1AC031C2E0D296C28D5E1C17C
:10550000E1C54729B55765C3BA47159E8C09E0D157
:10551000815442408E4FD2B377E32A7720EE8D0C30
:10552000E1F04A0CB325DC536A68862D4F43313CC9
:10553000939242E6A876FA3BEFB4875AD8B0CB6490
:10554000D54D11E594C51D66BB8E7F8B17B9679845
:105550004C664C01963331B1915900152368EC52D9
:105560001E6244749A1BD18BAB75B66E9EE7BA0867
:10557000B9A948ABA1AC031C2E0D296C28D5E1C1FB
:10558000E1C54729B55765C3BA47159E8C09E0D1D7
:10559000815442408E4FD2B377E32A7720EE8D0CB0
:1055A000E1F04A0CB325DC536A68862D4F43313C49
:1055B000939242E6A876FA3BEFB4875AD8B0CB6410
:1055C000D54D11E594C51D66BB8E7F8B17B96798C5
:1055D0004C664C01963331B1915900152368EC5259
:1055E0001E6244749A1BD18BAB75B66E9EE7BA08E7
:1055F000B9A948ABA1AC031C2E0D296C28D5E1C17B
:10560000E1C54729B55765C3BA47159E8C09E0D156
:10561000815442408E4FD2B377E32A7700000000D6
:045620000000000086
:040000052000044192
:00000001FF
